:100000002DC1000048C10000D5C200000C949F140F
:100010000C94EB0F0C94DE0F3EC100003CC10000BD
:100020003AC1000038C1000036C1000078C20000AB
:1000300032C100006CC7000033C70000F5C60000E5
:100040002AC1000028C1000026C100000C948316BC
:1000500022C1000020C100000C94401D700A4B0A10
:10006000800A7E0A800A800AE809800A800A800ADB
:10007000800A800A640A800A800A800A800A120ABA
:10008000E809D909800AD609120A580B320B6B0B02
:100090009F0A6B0B6B0BB10A230B6B0B6B0B6B0B80
:1000A0006B0B4B0B6B0B6B0B6B0B6B0BDC0AB10A0B
:1000B000A40A6B0B980ADC0A6B0B120B76177917E4
:1000C000DE18DE18DE18DE180A18C71734183F18B5
:1000D000A417AD18B218B218D11880178A178A174A
:1000E000A417A417E9185018571808191619441A14
:1000F000441A441A441A631963196319631963197A
:10010000781A7E1A7E1AC91A22192E193A19461916
:1001100053199619A519C6193A82388231812D01D1
:1001200003012E0104012F011C811A8118811E0177
:100130008E8290823A4F70656E4852323072666D90
:1001400020312E3020466562203136203230313168
:100150002030313A32383A33322052656C5F312EDA
:10016000300A0020570020580020453A00204973EB
:100170003A200020423A2000424F4F540020533A88
:10018000200020493A200020563A2000443A20001E
:10019000AAAA2DD40123456789ABCDEF1F1C1F1ED2
:1001A0001F1E1F1F1E1F1E1F00001F003B005A00A6
:1001B00078009700B500D400F300110130014E0122
:1001C0003F065B4F666D7D077F6F777C395E797187
:1001D0006354737630084001484109495054105C1B
:1001E00000332738583E786E200116072016011676
:1001F00020160216201603162016041620160516C1
:1002000020160616201607160B011F2416161616A2
:1002100020160C16200E1C1C000F0F20001D202085
:1002200000120E1D0B0A2626200E0220200E03208F
:10023000200E04200E0E121C28241F1B02031B1963
:100240001800010002030405060708090A393542AF
:100250003E0C0D0E0F1011121314150011241FBEA9
:10026000CFEFD4E0DEBFCDBF11E0A0E0B1E0EEE51E
:10027000FCE302C005900D92A831B107D9F713E055
:10028000A8E1B1E001C01D92A13AB107E1F70E94D7
:1002900071120C942D1EB4CE80910001882311F0B0
:1002A0006FEF19C02091180130911901F90193E005
:1002B000EE0FFF1F9A95E1F780911A0190911B01B3
:1002C0006AE070E00E948E1D220F331FC9018E0F5D
:1002D0009F1F0E948E1D862F0895E82F882329F4E2
:1002E00014BA2F98109292020895809192028E175C
:1002F00009F47BC0739A1092200110921F01109292
:10030000250110922401109227011092260182E00B
:1003100080930101E0939202E0932A0190916C0393
:1003200080910001882319F480916B0302C08091B1
:100330006A03282F30E0892F90E0AC01249FC00190
:10034000259F900D349F900D112464E670E00E946B
:100350007A1D33E0660F771F3A95E1F770932C0111
:1003600060932B0180912B0190912C01880F991F94
:10037000880F991F909322018093210181E085BB12
:1003800016BC80936E008CB18093230180916B002A
:10039000806180936B004091660380913802909158
:1003A00039026AE070E00E948E1D80E0942F0E9466
:1003B0007A1D842F90E0861797073CF040916503E3
:1003C000842F90E06817790714F447BD01C067BD1A
:1003D000EF3F31F488E084BB2F9889E684BD08950F
:1003E00080E184BB2F9A89E784BD0895282F8091EE
:1003F0000001882309F045C0739943C0243629F4CD
:1004000080911A0190911B011DC0222329F41092A2
:100410002901109228011AC030E080911A019091B0
:100420001B019595879595958795AC01249FC001F3
:10043000259F900D349F900D112469E170E00E947A
:100440008E1DCB01909329018093280140911801C2
:1004500050911901209128013091290180911E01AC
:10046000B901680F711D6417750714F48FEF35CF4C
:1004700080911E01281B31094217530714F481E0B3
:100480002CCF089580910101882309F044C0209168
:100490001C0130911D012C5F3F4F53E0369527958D
:1004A0005A95E1F780916C03281B310980916D0307
:1004B00090E0AC01249FC001259F900D349F900DCA
:1004C000112464E670E00E948E1D80916E03482F17
:1004D00050E0461757074CF088279927841B950B47
:1004E000AB01681779070CF4AC0187B59A01280FA6
:1004F000311D40916603842F90E0821793073CF0F2
:1005000040916503842F90E02817390714F447BD04
:10051000089527BD089581508093010108951F9289
:100520000F920FB60F9211242F938F939F93809168
:100530001F019091200101969093200180931F014B
:1005400080911F019091200120916903921760F022
:1005500088E484BD80916B008F7E80936B00109245
:100560006E007398F4981CC0809121019091220133
:10057000892B51F080912101909122010197909354
:100580002201809321010EC084B3887159F08091BB
:100590001F019091200190931D0180931C01F59AF9
:1005A00014BA2F989F918F912F910F900FBE0F909B
:1005B0001F9018951F920F920FB60F9211241F9340
:1005C0002F933F934F935F936F937F938F939F935B
:1005D000AF93BF93EF93FF935CB1452F50FD0AC0DB
:1005E0008091C10080698093C10080916B008E7FF3
:1005F00080936B0080916B0084FF93C080912301F6
:10060000852784FF8EC020911F01309120018091A9
:10061000240190912501281B390B80911F01909195
:100620002001909325018093240144FD6FC08091A7
:10063000680390E0880F991F8217930708F071C034
:1006400020912601309127018091670390E0880F67
:10065000991F8217930708F064C080911801909148
:10066000190120912A01332727FD3095280F391FC2
:10067000309319012093180184B3887129F4809173
:100680001E018F5F80931E0180918E0290918F02D8
:10069000A0919002B09191020196A11DB11D80938D
:1006A0008E0290938F02A0939002B093910280915A
:1006B0001F019091200190931D0180931C011092C5
:1006C0002701109226011092200110921F01109212
:1006D000250110922401F49A2091180130911901FA
:1006E00080912801909129012817390731F410923F
:1006F0001E0114BA2F98F59A14C080912B01909185
:100700002C0190932201809321010BC0809126013E
:10071000909127018217930720F4309327012093AB
:1007200026015093230180916B0082FD43C044C099
:1007300080916B008B7F80936B00789480912A026C
:100740008230C9F420912902E22FF0E0ED53FD4FF1
:10075000808190E02F5F20932902986B0E94520EB7
:1007600090912902809108019817E0F083E080932E
:100770002A02F79A21C08430A9F41091290280E05E
:1007800090EB0E94520EE12FF0E0ED53FD4F80837D
:100790001F5F10932902F79A103520F085E08093AF
:1007A0002A020AC0F894000080916B008460809354
:1007B0006B0000006299BCCFFF91EF91BF91AF91A8
:1007C0009F918F917F916F915F914F913F912F9169
:1007D0001F910F900FBE0F901F9018951F93CF93EE
:1007E000DF931091920280E078DD80912101909159
:1007F0002201892B31F080910001882309F46DC01A
:1008000025C0113009F040C0C0911801D0911901E4
:1008100080910001823079F5D0931B01C0931A01B9
:1008200080916F0390917003892BC9F4C436D10570
:100830006CF0D0937003C0936F0387E10E94B016F1
:1008400088E10E94B0161092000147C08FEF80939C
:100850000001809130018860809330013EC08FEFAD
:100860003CDDC85ED340D0932901C093280183E0CA
:100870008093000132C080911A0190911B019093E6
:1008800019018093180129C01F3F39F5809100019B
:10089000833089F4109200012091180130911901E0
:1008A00080911A0190911B01821B930B90931B0165
:1008B00080931A010EC0809118019091190185361C
:1008C00091053CF010930001809130018860809385
:1008D00030011092190110921801809100018823B3
:1008E00079F480911A0190911B018436910544F4AA
:1008F0008FEF8093000180913001886080933001F8
:10090000DF91CF911F9108951F93182F8823B1F481
:1009100080E0E3DC109219011092180110921B0183
:1009200010921A018EEF8093000185E080930201FE
:1009300080913001877F8093300133C08091020124
:10094000882321F08150809302010FC08091000123
:10095000813059F482E08093000188EE93E0909317
:1009600029018093280181E0B8DC809100018E3F4D
:10097000C1F4133069F48FEF9FEF9093700380936D
:100980006F0387E10E94B01688E10E94B01606C08E
:10099000123021F41092700310926F0381E0809363
:1009A00000011F91089590912D01980F90932D01B2
:1009B000993010F489E003C09E3318F08DE38093E2
:1009C0002D0110922F018AE0809305010895282FB0
:1009D0008F3F29F480912E018093350106C08E3F10
:1009E00081F48091350180932E0190E08091040183
:1009F000882309F491E0909304018AE08093050133
:100A000006C087FD02C08093040110920501809109
:100A10000401882349F02E3F39F080E00E949D10A8
:100A200080932E0180932D0110922F010895CF9273
:100A3000DF92EF92FF920F931F93C62E882321F42B
:100A400080912E018823E9F490E080912E0181119C
:100A500091E0892F0E949D10982F882391F0809318
:100A60002E0180910401882361F090932D018091E3
:100A7000050187FF06C080910301981711F01092BD
:100A800005010091150310912F01112319F0809198
:100A90007F0302C080917E03282F30E0802F90E0FA
:100AA0008096821B930B60E270E00E948E1D40E0F6
:100AB00050E060E177E2282F30E0F901EE0FFF1FF0
:100AC000EA5EFC4F0190F081E02D309739F0E61797
:100AD000F7070CF4BF014E175F070CF0FA018017FF
:100AE00031F02F5F3F4F822F8F71AF01E4CFE09045
:100AF0003A02F0903B029701261B370B80917D0351
:100B000090E0821793072CF4112399F010922F0193
:100B10000EC0112371F4EE19FF0980917C0390E05F
:100B20008E179F0734F48091800380932F011092D9
:100B300005018091060190910701009729F0019726
:100B400090930701809306018091050118161CF40B
:100B50008150809305014091060150910701411594
:100B6000510529F080910501882309F034C13091A5
:100B70002D013A3018F080912F0181113AE08091D7
:100B80000301381739F030930301109232011092AB
:100B9000310103C0452B09F019C18091610325E0A3
:100BA000829FC001112490930701809306013D3379
:100BB00008F0DCC082E3389F900111242E193F0910
:100BC00068EF2033360714F420E338EF890177E02B
:100BD000213D370714F000ED17E08091330190912B
:100BE0003401009709F443C08E199F0971F49801EC
:100BF00017FF04C022273327201B310B809160038D
:100C000090E08217930754F032C01816190624F4A6
:100C1000101611061CF02BC017FF29C060915E034F
:100C200080E092E370E00E948E1D601771075CF413
:100C30008091310190913201860F971F909332017C
:100C40008093310114C088279927861B970B409108
:100C5000310150913201081719071CF4461B570B3C
:100C600002C0400F511F5093320140933101F09266
:100C70003401E0923301D0905F03DD2019F480E06D
:100C800092E307C080E092E36D2D70E00E948E1D1C
:100C9000CB014091310150913201841795072CF41A
:100CA00090933201809331010BC022273327281BF8
:100CB000390B4217530724F430933201209331014A
:100CC000980117FF04C022273327201B310BB901DD
:100CD000882777FD8095982F20915D0330E040E0D4
:100CE00050E00E94421D9B01AC0170915E0360E0E8
:100CF00080E090E0620F731F841F951F98014427C6
:100D000037FD4095542F0E94421D672F782F892F61
:100D1000992787FD9A953091630320E07901002798
:100D2000F7FC0095102F4D2D50E0209131013091AE
:100D30003201F9014E9F90014F9F300D5E9F300DA3
:100D40001124442737FD4095542FE20EF31E041F53
:100D5000151FE60EF71E081F191FF1E0EF16F4E647
:100D6000FF06F0E00F07F0E01F071CF0C0906403DF
:100D70002DC017FF03C0C090620328C02C2D33275D
:100D800027FD309580E09FEFBC01269FC001279F83
:100D9000900D369F900D11248E0D9F1D81509F4FF9
:100DA0008F5F914098F02F2D332727FD3A95C09003
:100DB00064038C2D90E08217930744F0C090620387
:100DC0008C2D90E0281739070CF0C22E8C2D07D2FD
:100DD0008FEF80930501209138023091390221155F
:100DE0003105D1F080917A0344E1849FC001112440
:100DF0002817390720F480913001806C0BC0809156
:100E00007903849FC00111242817390728F48091A1
:100E100030018064809330018C2D1F910F91FF90E1
:100E2000EF90DF90CF9008951F920F920FB60F9220
:100E300011248F93EF93FF93E1ECF0E08081877BA7
:100E40008083FF91EF918F910F900FBE0F901F90B5
:100E5000189582E08093C0001092C50083E38093D0
:100E6000C40086E08093C200EBE6F0E08081816000
:100E700080830895F8948091C10085FD0FC0809112
:100E8000C1008F7B8093C1008091C00080648093FB
:100E9000C0008091C10088628093C1007894089559
:100EA0001F920F920FB60F9211242F933F934F93DF
:100EB0005F936F937F938F939F93AF93BF93EF93C2
:100EC000FF9386D0882319F08093C6000FC08091CD
:100ED000C1008F7D8093C1008091C00080648093A9
:100EE000C0008091C10080648093C100FF91EF91A8
:100EF000BF91AF919F918F917F916F915F914F9132
:100F00003F912F910F900FBE0F901F9018951F9239
:100F10000F920FB60F9211242F933F934F935F932D
:100F20006F937F938F939F93AF93BF93EF93FF93B1
:100F30008091C6005FD0E1ECF0E080818F76808305
:100F4000EBE6F0E0808181608083FF91EF91BF91BB
:100F5000AF919F918F917F916F915F914F913F9151
:100F60002F910F900FBE0F901F9018958E3018F094
:100F700022E830E011C0E82FF0E0EE0FFF1FE85E3E
:100F8000FE4FA591B491B7FF04C0BF772D913C915E
:100F900003C08C91282F30E0C9010895582FF89490
:100FA00040913801E42FF0E09F012F5F3F4F2F77F2
:100FB00030708091390190E02817390739F0E65CEC
:100FC000FE4F50834F5F4F774093380178940895D8
:100FD0009091390180913801891711F480E00895CA
:100FE000E92FF0E0E65CFE4F80819F5F9F77909352
:100FF00039010895282F8823F9F08D3009F42AE06B
:1010000080913601E82FF0E0E654FE4F2083982FC0
:101010009F5F9F719093360180913701981721F45B
:101020009F5F9F71909337012A3031F4F69A809137
:10103000DA018F5F8093DA010895F8949091370177
:1010400080913601891779F0E92FF0E0E654FE4FE0
:10105000E0819F5F9F71909337018091DA01815009
:101060008093DA0103C01092DA01E0E078948E2FC9
:1010700008951F93182F843650F064E60E94611D76
:10108000805D8CDF812F64E60E94611D192F812F06
:101090006AE00E94611D805D81DF812F6AE00E940D
:1010A000611D892F805D7ADF1F9108950F931F9333
:1010B0008C0164E670E00E947A1D862FDADFC80199
:1010C00064E670E00E947A1DD4DF1F910F910895AD
:1010D0001F93182F82958F708A3010F0895A01C0A3
:1010E000805D5CDF812F8F708A3010F0895A01C0DB
:1010F000805D54DF1F9108951F93182F892FE8DF1B
:10110000812FE6DF1F910895CF93DF93EC01FC015F
:10111000849104C043DF2196FE0184918823D1F796
:10112000DF91CF9108950F931F93082F10E01BC0FC
:1011300084DF982F282F20532A3020F081568630C4
:10114000C8F42752E12FE69510FF06C0F0E0E55203
:10115000FE4F8081280F05C0F0E0E552FE4F22953A
:10116000207F20831F5F101718F367DF982F8A30C6
:1011700009F490E0892F1F910F9108951F93162F66
:101180000DDF8BE50BDF812FA3DF8DE507DF8DE31F
:1011900005DF1F9108950F931F93CF93DF93082FBF
:1011A00086E5FCDEE4E3F1E01491EF0109C0812F54
:1011B000F5DE002311F0812FA9D22196FE011491B2
:1011C0001123A9F7DF91CF911F910F91089590916D
:1011D000380180913901981709F04CCE08951F937A
:1011E000182F8CE891E090DF80910F01805370DF21
:1011F00080E2D4DE80910B013CDF8EE2CFDE809175
:101200000A0137DF8EE2CADE8091090132DF80E217
:10121000C5DE80910C012DDF8AE3C0DE80910D01D7
:1012200028DF8AE3BBDE80910E0123DF80E2B6DE99
:1012300080910401882311F48DE409C090912E015E
:1012400080912D01981711F08DE201C081E4A6DE96
:1012500087E891E059DF17FD02C0812F02C080911D
:101260002F0207DF82E891E04FDF80913A029091F0
:101270003B021CDF8DE791E047DF909103019E3335
:1012800020F088E791E040DF05C082E3989FC0012D
:1012900011240CDF83E791E037DF809138029091D1
:1012A000390204DF8DE691E02FDF809131019091CA
:1012B000320122DF80913001882331F089E691E00C
:1012C00023DF8091300104DF17FF03C086E691E041
:1012D0001BDF80912F01882319F083E691E014DF52
:1012E0008AE05CDE74DF1E3F29F081E08093E2013A
:1012F00084E40CD220910D0180910401882311F423
:1013000090E008C090912E0180912D01981751F125
:1013100090E880E0822B892BF9D190910E01809189
:101320002F01811180E4892BF1D180913001EED120
:1013300080913B02EBD180913A02E8D18091390251
:10134000E5D180913802E2D180912D01DFD117FDE6
:1013500002C0812F02C080912F02D8D11092E201E9
:101360001F91089590E880E4D5CFA0E0B0E0EBEBCA
:10137000F9E00C94E81DEC01D62EFF249AE0C92E6A
:10138000BFC0FE01EF0DF11DE080F3948E2D80684B
:10139000BDD18E2D90E0FC01E154F040E731F10524
:1013A00008F0AEC0E25DFF4F0C94151E81E0F3DE45
:1013B000A7C08E010F0D111DF8018081A7D1F80182
:1013C0008081D4DD182F892FA1D1812F9FD161C0B9
:1013D000F3E5EF1681F4DE01AF0DB11DEC91E233C0
:1013E00050F4F0E0E85AFC4F11968C9111978083ED
:1013F0008C910E94B0168E010F0D111DF801808195
:1014000085D1F80100810F3F11F480E105C0E02F84
:10141000F0E0E85AFC4F808179D1F3E5EF16C9F589
:10142000F39437C087E5E816C1F4FE01EF0DF11D16
:1014300060812181422F50E04F705070542F44271B
:101440008281480F511D22952F70862F82958F70B3
:101450006F700E94551210922E018E010F0D111DFA
:10146000F801808153D1F8019081892F82958F7086
:10147000880F880F880F9F70890F0E940A17182FF6
:10148000892F44D1812F42D1F7E5EF1611F482E084
:10149000F80EF39435C0FE01EF0DF11D808183310C
:1014A00081F48181843269F4F89428E088E190E045
:1014B0000FB6F894A895809360000FBE209360004B
:1014C000FFCFE2E0FE0E1CC090E0FE01EF0DF11D2B
:1014D0008081813009F491E0F394892F78DA0EC08D
:1014E000FE01EF0DF11D8081893050F08E3340F404
:1014F000C0920501808180932D01F3948EEF6FDE01
:10150000FD1408F43ECFCDB7DEB7E8E00C94041E1E
:101510001F93E2C092DD182F90E0FC01E154F040EF
:10152000E931F10508F0D7C0EB5BFF4F0C94151EB5
:1015300084DD8A3009F0CFC080E02DDECCC07DDDB7
:101540008A3009F0C8C07CC082E0EDDD882309F054
:10155000C0C084E56091DB0111DE8091DB0106DD16
:101560005FC0173431F482E0DEDD882309F0B1C0BA
:1015700013C084E0D8DD882309F0ABC09091DB0173
:10158000923350F4E92FF0E0E85AFC4F8091DC01EF
:101590008083892F0E94B016812F6091DB01EEDDE0
:1015A000E091DB01EF3F11F480E104C0F0E0E85A84
:1015B000FC4F80818DDD8DC0123531F482E0B3DDCA
:1015C000882309F086C01CC086E0ADDD882309F0C1
:1015D00080C06091DB012091DC01422F50E04F7010
:1015E0005070542F44278091DD01480F511D2295E2
:1015F0002F70862F82958F706F7057D710922E01A3
:10160000812F6091DB01BADD9091DB01892F8295FA
:101610008F70880F880F880F9F70890F0E940A179C
:101620006BDD57C086E07FDD882309F052C08091D2
:10163000DB01E7D68091DC01E7D68091DD01ECD6B5
:101640008FEFCDDD48C086E06EDD882309F041C014
:101650008091DB0162D48091DC0166D48091DD0150
:101660006AD4EECF84E05FDD882399F58091DB01B9
:10167000833179F58091DC01843259F5F89428E0C2
:1016800088E190E00FB6F894A895809360000FBEB3
:1016900020936000FFCF82E046DD8823D1F490E004
:1016A0008091DB01813009F491E0892F90D90FC03E
:1016B00082E039DD882369F49091DB01993048F0AC
:1016C0009E3338F48AE08093050190932D018FEFCB
:1016D00086DD8AE063DC7BDD8091DA01882309F016
:1016E00019CF1F91089580E056DDB3DB70CDAF8137
:1016F000AA0FBFB7A7E00880BFBF001CBFB700821A
:1017000021963196A150B8F728970895982F809187
:10171000E201882369F4809108018A34A8F4E82F53
:10172000F0E0ED53FD4F90838F5F809308010895A3
:101730008091DE01863440F4E82FF0E0ED51FE4F59
:1017400090838F5F8093DE0108958091E001815046
:101750008093E00118167CF1882311F0823EE4F4B6
:101760001092E00180916B008B7F80936B0081E889
:101770009AEC98D283E89AEC95D289ED92E892D2CD
:101780001092290284E080932A0280916B00846089
:1017900080936B000C94DA028C3F6CF480916B00A8
:1017A0008B7F80936B0081E092E87CD28091300146
:1017B0008061809330010895A8E0B0E0E2EEFBE0A4
:1017C0000C94E81D7C01062F662339F110E06E01B0
:1017D0000894C11CD11CC60169E071E041EA52E0E5
:1017E0001ED3809110018F5F80931001E12FF0E0F4
:1017F000D701AE0FBF1FE770F070EC0DFD1D8C918F
:10180000908189278C931F5F101738F4812F90E007
:1018100087709070892B51F7DECF2896E8E00C9402
:10182000041E1F93182F80916B008B7F80936B0099
:1018300089E192E837D283EC92E060E971E044E01C
:1018400050E00E941B1E809181038093C8021123E7
:1018500069F04091DE014A5F40930801465089ECEF
:1018600092E063EE71E050E00E94241E6091080156
:101870006093C702665089EC92E09EDF6091080198
:10188000655088EC92E049E051E020E03CD2809144
:1018900010018F5F80931001809108018A5F80930F
:1018A00008011092290282E080932A0289E392E8DB
:1018B000F9D18D9880916B00846080936B000E94B9
:1018C000DA021F9108951F9340912902442309F4DD
:1018D00029C16091C302262F30E02F773070C901F3
:1018E00006978A34910510F4403518F010922902B9
:1018F00019C150E0421753070CF414C180916B00DA
:101900008B7F80936B002417350724F4862F8F7705
:101910008093290267FF89C06F77655084EC92E05D
:1019200040E050E021E0EFD1882309F4E9C01092B3
:101930002A0281E092E8B6D180912B028B7F8093BE
:101940002B0280912C028B7F80932C028091C3020A
:101950008B3849F48091C8028093C2028091C902F9
:101960008093C10211C08D3861F48FEF8093C20261
:1019700085E992E068EC72E044E050E00E94241EA9
:1019800003C083E08093E10184E18093E0018091D2
:10199000B60080FDFCCF8091B200813858F084E021
:1019A0008093B200F89480912C02816080932C0285
:1019B0007894F19A82E083BD8AE08093B2008091AE
:1019C000B60082FDFCCF809130018F7E8093300184
:1019D0008091C40216D58091C50282958F7014D56E
:1019E0008091C502880F880F880F88719091C60278
:1019F000929596959770890F0FD58091C6028F7139
:101A00008CD28091C70286958FD28091C70280FDCB
:101A100002C080E001C08EE18ED2F89480912C0249
:101A20008F7780932C0278947DC060912902862F55
:101A300090E0019623E0959587952A95E1F720910E
:101A40001001280F20931001655084EC92E049E0CA
:101A500051E021E058D1182F20912902822F90E0E7
:101A6000019668E070E00E948E1D80911001861B37
:101A700080931001265085EC92E0622F9DDE8091CC
:101A800010018F5F809310011123D1F18091C40266
:101A90008823B1F51092DE0180912B028B7F809319
:101AA0002B0280912C028B7F80932C026091290263
:101AB000663031F410922A0281E092E8F3D032C00D
:101AC00086E080930801962F95502FE40CC0E22FFA
:101AD000F0E0ED53FD4FA92FB0E0AD53BD4F8C9119
:101AE000808321509150923090F786E590E0861BDC
:101AF000910966508D539D4F38DC80E092DE12C014
:101B00001092290284E080932A0281E89AECCAD0DC
:101B100083E89AECC7D080916B00846080936B005F
:101B20000E94DA021F9108950F931F93CF93DF93C2
:101B300081EB92E062E873E048E050E00E94241EEE
:101B400089EB92E064E971E048E050E00E941B1EDE
:101B500020E030E0F901E756FD4F822F805480836A
:101B60002F5F3F4F28313105A9F789E992E0BC0189
:101B700041EB52E054D181EA92E0BC0141EB52E0EA
:101B80004ED189EA92E0BC0141EB52E048D1E1EB51
:101B9000F2E0119282E0E93BF807D9F78F01085093
:101BA0001040B097C801B801AF0139D1E801FE017A
:101BB0009EDDE9EBF2E09BDDDF91CF911F910F916C
:101BC00008958091DF018230A1F1833031F08130BE
:101BD00009F03DC081E025DE3AC080916B008B7F2B
:101BE00080936B001092C2021092C10281E89AECBD
:101BF00059D083E89AEC56D089ED92E853D08D986D
:101C000080916B00846080936B000E94DA021092D6
:101C1000290284E080932A0282E08093DF01809190
:101C2000B60080FDFCCF6091B2006A5F82E08AD18D
:101C30000EC080912A02823051F080916B008B7F20
:101C400080936B0010922A0281E092E82BD01092D0
:101C5000DF01089580916B008B7F80936B00109261
:101C60002A021092290281E89AEC1CD083E89AECAF
:101C700019D089ED92E816D084E080932A028091F1
:101C80006B00846080936B000E94DA0282E0809394
:101C9000DF018091B60080FDFCCF6091B2006C5EE8
:101CA00082E050C18D9840E197FF02C08E9A01C03A
:101CB0008E988C9A220F331F629921608C98415024
:101CC00019F0880F991FF0CF8D9A8D98C90108954A
:101CD00080E090E0E7DF87EE90E8E4DF85E896EAD1
:101CE000E1DF80E196ECDEDF83EA94E9DBDF8BEE77
:101CF00092ECD8DF81E89AECD5DF87EA94ECD2DF6A
:101D000080E398E9CFCFA8E0B0E0E9E8FEE00C94EA
:101D1000E21D6C01F62EE22E8E010F5F1F4F411562
:101D2000510541F4F801CE0109961192E817F9071F
:101D3000E1F70BC0C801BA0148E050E00E94241E40
:101D4000C801B80149E952E06AD080E05E01089418
:101D5000A11CB11C39E0632E712C6C0E7D1E36C0A7
:101D6000182F185F1F1558F01F1529F029EB822E28
:101D700022E0922E04C091EB892E92E0992EA501CB
:101D80009401982F9F1528F4F601E90FF11DE081C9
:101D900005C09F1511F0E0E001C0E0E81F1518F044
:101DA000D9018C91E827DA018C918E27FA01819371
:101DB000AF012F5F3F4FE615F70511F09F5FE2CFB0
:101DC000C501B50149E952E02AD0812F8F1540F2B3
:101DD0008E010F5F1F4F6F2D70E0EE2099F0D6013E
:101DE000A60FB71FF8019E012B5F3F4F9C9180818A
:101DF000981711F080E00FC011963196E217F307A3
:101E0000A9F708C0C601860F971FB80144E050E04B
:101E10000E94241E81E02896EEE00C94FE1D2F9275
:101E20003F924F925F926F927F928F929F92EF922A
:101E3000FF920F931F93CF93DB01FA012D903D90FA
:101E40004D905D906D907D908D909D90DC0160E255
:101E5000062E22273327A901E89473018401C4E0E8
:101E6000EE0CFF1C001F111FCA95D1F7B301C4016E
:101E7000C5E09695879577956795CA95D1F7E6263B
:101E8000F72608271927E60CF71C081D191D2EF444
:101E9000C32FC695CC70E89405C0C22FC370CC0F79
:101EA000CC0F6894EC0FF11D608171818281938168
:101EB000EC1BF040620F731F841F951FE626F72668
:101EC00008271927E20CF31C041D151D130124011A
:101ED000370148014EF4C9EB2C0FC9E73C1FC7E39B
:101EE0004C1FCEE95C1FB9CF0A9409F0B6CF2D92F2
:101EF0003D924D925D926D927D928D929D92CF9189
:101F00001F910F91FF90EF909F908F907F906F9017
:101F10005F904F903F902F900895885E68E10E94F7
:101F2000611D90930C010895845C6CE30E94611D17
:101F300090930D010895845C6CE30E94611D909361
:101F40000E010895F894E82FF0E081E090E00E2E65
:101F500002C0880F991F0A94E2F720912B02282BC8
:101F600020932B02E45DFD4F60833091B200822FFD
:101F700021FD02C02FEF04C050912D02252F231BFD
:101F800082FF0AC040912E02842F90E0831B9109AA
:101F900030E0281739070CF4452F8091B3008417DF
:101FA00031F08091B60081FDFCCF4093B30078946E
:101FB0008091700082608093700008950F930FB736
:101FC0000F93F19A00912C02016800932C020F915B
:101FD0000FBF0F9118951F920F920FB60F921124F9
:101FE0002F933F934F935F936F937F938F939F9321
:101FF0005091B2005150F19A90912B0291FF0AC07A
:1020000080912D02581731F481E0809311019D7F5A
:1020100090932B0290912B0292FF0CC080912E0284
:10202000581741F480912C02846080932C029B7F8E
:1020300090932B0270912B02872F71FD02C02FEF1E
:1020400004C060912D02262F251B82FF0AC04091FB
:102050002E02842F90E0851B910930E02817390764
:102060000CF4462F8091B300841711F04093B30015
:10207000772329F4809170008D7F809370009F9169
:102080008F917F916F915F914F913F912F910F9021
:102090000FBE0F901F901895A0E0B0E0E2E5F0E1D0
:1020A0000C94DF1DD82E3B01882319F442E0342E16
:1020B00002C038E0332EAA24AA94CC248D2C992473
:1020C000740123E0EE0CFF1C2A95E1F75E2C98E0EA
:1020D000492E4E0C00E010E0C0E0D0E010C09AD6CF
:1020E0009F7025E0803A920748F48017910730F0FE
:1020F0006816790618F0AB2CAE0C8C012196BC2E1C
:102100008C2F850D841558F3A7FE11C0DD2041F0FA
:10211000C401059667E070E00E948E1DD82ED3940E
:10212000C39480EA682E85E0782EC31438F28A2D95
:10213000CDB7DEB7E1E10C94FB1DFF920F931F9327
:10214000CF93DF93F82E90910C018CE3989FE001E0
:10215000112480910D01C80FD11D80917803813029
:1021600011F000E002C000910F01802FBE0194DF4A
:10217000182F50D6FC0117FD15C0FF2049F09F70A5
:102180008C179D0779F4159515951595101751F431
:10219000EF2FFF27E295EF70E370F070E75AFC4FE6
:1021A000808101C080E0CDB7DEB7E5E00C94071E6A
:1021B000A0E0B0E0EEEDF0E10C94E81DC82EC0EA1E
:1021C000D5E077E1D72EEE24FF2487018C2DBE01C8
:1021D00063DF87FF03C080E090E001C01BD69C0155
:1021E000207030739F708C179D0718F0CFEFDFEFD2
:1021F00002C0EC0121974D2D5CE34502C001112482
:1022000014C060E22030360740F041E050E060E06A
:1022100070E0E42AF52A062B172B1D1424F4EE0C8B
:10222000FF1C001F111FDA94CC97C817D9074CF375
:102230001C161D065CF2B701C801CDB7DEB7E8E099
:102240000C94041E1092100180910E018F5F8093F8
:102250000E018C3308F482C010920E0180910D01A2
:102260008F5F80930D018C3308F478C010920D01BC
:1022700080910C018F5F80930C01883108F443C07A
:1022800010920C0120910A01E22FF0E0E556FE4F7A
:102290003491223041F48091090190E08370907074
:1022A000892B09F43DE180910B018F5F80930B0135
:1022B000381790F491E090930B01822F8F5F8093F9
:1022C0000A018D3038F090930A01809109018F5FE7
:1022D000809309011092130380910F0167E00E941F
:1022E000611D9F5F90930F0180917803813009F009
:1022F00090E0892F5DDF60938A0370938B03809356
:102300008C0390938D0390910A01933079F480911E
:102310000C01823019F580910F018730F9F480911A
:102320000B018931D8F090930C0108959A30B1F4E3
:1023300080910C01833091F480911303882371F410
:1023400080910F01873051F480910B01883130F07A
:1023500082E080930C0181E08093130308950F9332
:102360001F93CF93DF9390910A01E92FF0E0EE0FD6
:10237000FF1FEA55FE4FC591D49180910B01C80F04
:10238000D11D933040F08091090190E083709070EE
:10239000892B09F42196E0910901F0E08F010150A9
:1023A0001040C80164E070E00E948E1D9B01C801CE
:1023B0006CE97FEF0E948E1D260F371F2E0F3F1FE7
:1023C0002B5F3F4FC9018C0F9D1F67E070E00E949B
:1023D0007A1D982F9F5F90930F0180917803813031
:1023E00009F090E0892FE4DE60938A0370938B03F9
:1023F00080938C0390938D03DF91CF911F910F9168
:10240000089580930901ABCF855F6CE00E94611D48
:102410009F5F90930A01A3CF282F80910A01E82F94
:10242000F0E0E556FE4F6491823041F4809109015D
:1024300090E083709070892B09F46DE12150822F18
:10244000860F0E94611D9F5F90930B0188CF809142
:1024500070008E7F8093700088E08093B6001092A9
:10246000B2008091B00085608093B0008091B6008A
:102470008570E1F78FEF87BB80917000816080935A
:1024800070006DCF0F931F938A01880F880F880FFC
:10249000860FC0D49C01832F82958F70F8018083B2
:1024A0003F70C9011F910F910895962F8830B8F49D
:1024B0006830A8F4243098F435E04C3D530710F010
:1024C0004FEF5FE0880F880F880F722F7295707F33
:1024D00060E0642B752B890FC3D481E0089580E000
:1024E000089585B7806885BF85BF90E890936100A7
:1024F00081E08093610090BF8FEF80937E008DE03C
:102500008093640088E183BB8EE085B981ED84B956
:102510008AE08DB983E08EB988E780BB80EA81BB11
:102520008EE280936C0080EC8DBB91DF83B190E0F4
:102530008E7009F491E0892F43D4F6DA81E00E948D
:1025400084040E944A1BC4DB81E092E8ABDB83B1C8
:1025500080958076809314031EBA789483E090E08F
:10256000D4D3803139F083E163E00E94A91C0E943A
:10257000F61CFFCFB8D883E89AEC94DB80EE90ECA1
:1025800091DB89ED92E88EDB80916B008460809313
:102590006B000E94DA0284E080932A0226E0E22E99
:1025A00001E097E0D92E83E0F82EF8948EB38823CB
:1025B00051F58091B60090E087709070892B19F5E5
:1025C00084B590E087709070892B21F48091C100D0
:1025D000887111F003BF07C080913702882311F082
:1025E000F3BE01C0D3BE80913702882339F0109228
:1025F000370280917A00806480937A00789488957D
:102600000000E3BE01C07894F79B0DC0F79880915D
:102610002A02833011F41EDBC8CF8450823008F0C8
:10262000C4CF51D9C2CFF39B04C0F3980E94F61CCB
:10263000BCCFF29B03C0F2989ED2B7CFF69B04C0EA
:10264000F6980E94880AB1CFF59B04C0F5980E94C5
:10265000EE03ABCFF09B02C0F09888D1F19BCCC0C9
:10266000F19880912C0287FF01C0ECDD90912C0243
:10267000892F817809F4B6C0F8949E7790932C0244
:10268000789410E080910E01882309F411E0812FE5
:1026900060912F020E94170580932F02112311F1E0
:1026A00080913001807C91F480910F01863071F42B
:1026B00080910C018A3051F480910D01882331F40E
:1026C00010923201109231010E94840480912F01F6
:1026D000882339F0815080932F01882311F41092C0
:1026E000050133D8209181032223C9F18091E001B3
:1026F0008230ACF190910E01921721F48091DE01AD
:10270000882341F59F3148F090FF03C08091C202B9
:1027100002C08091C1028217E9F08091C2028F3F0E
:10272000F1F4892F6EE10E94611D9217C1F480912E
:10273000950290919602A0919702B091980204C0E0
:10274000B695A795979587952A95D2F78170907041
:10275000892B29F00093DF0182E06CE0F3DB8091AC
:1027600081038823B9F08091E00182309CF0809150
:102770000E018B3311F08D3169F48091E1018823D2
:1027800021F081508093E10105C0F092DF0182E0E9
:102790006DEFD8DB80913802909139021816190636
:1027A0003CF4AAD00E94840480912F020E94F6017A
:1027B00047D080919202882321F080917B03882367
:1027C00009F0C8D18091140187FD03C08150809326
:1027D000140180E07ED38091E40088608093E4005F
:1027E00000938B0280912C0282FF06C0F8948B7FAD
:1027F00080932C027894E5D9809130029091310237
:10280000892B21F480911401882389F480E0E3D49A
:10281000182F882311F081E0DED4812F5AD38091C4
:10282000E40088608093E40000938B02BECEF49BAA
:10283000BCCEF49861D00E9484040E944202B5CEBE
:10284000909134029923A1F4809136028F5F809396
:102850003602882321F48FEF809336020895843165
:1028600009F049C08091300290913102906235C0E8
:10287000809135028F5F80933502882321F48FEF9A
:102880008093350208958430B1F59830D1F09930B5
:1028900028F4923079F0943071F505C09A30C1F087
:1028A0009E3049F51FC080913002909131028062C4
:1028B000916013C0809130029091310280649260E7
:1028C0000CC080913002909131028068946005C004
:1028D0008091300290913102986090933102809300
:1028E000300208958091300290913102906190936E
:1028F00031028093300208952098289A0000000049
:1029000083B12898209A809587709091300180FF3C
:1029100009C09460909330011092320110923101FD
:1029200080E008959B7F9093300181FF02C082E098
:10293000089582FD02C081E0089583E008951F920A
:102940000F920FB60F9211248F9326982E9AF09A19
:10295000000083B180958E76809332022E98269A5D
:102960008F910F900FBE0F901F9018951F9320917D
:102970003202207680911403822785FF17C022231C
:1029800011F0203631F48091300290913102826052
:1029900005C08091300290913102816090933102A4
:1029A0008093300210923602209314031091320269
:1029B0001E7020913402121709F45EC0112321F118
:1029C000222311F5809111018823F1F0143031F4A4
:1029D000809130029091310284600FC0123031F446
:1029E0008091300290913102886007C0183061F404
:1029F00080913002909131028061909331028093F6
:102A0000300281E08093330280913302882319F1F0
:102A1000243041F41123F9F0809130029091310279
:102A2000806213C0223041F41123A9F0809130025A
:102A300090913102806409C0283069F4112359F063
:102A4000809130029091310280689093310280939E
:102A500030021092330280911101882339F01092D4
:102A600011016091B2006E5C81E06CDA1093340267
:102A700010923502109236021F910895A0E0B0E046
:102A8000E4E4F5E10C94E41D6B01E82EFF249B01C6
:102A9000442737FD4095542FE701CC0FDD1FCC0FA5
:102AA000DD1FC25CDD4F88819981AA81BB81280F1F
:102AB000391F4A1F5B1F288339834A835B838091B8
:102AC00012018F3080F180914602F70174E0EE0F21
:102AD000FF1F7A95E1F7EE19FF09E80FF11DEE0FE0
:102AE000FF1FE85BFD4F80819181AA2797FDA0958C
:102AF000BA2F49015A01881A990AAA0ABB0AC501C4
:102B0000B40188829982AA82BB828701000F111FBB
:102B1000085C1D4F2FE030E040E050E00E94C31DF4
:102B2000F8013183208380914602F70194E0EE0F93
:102B3000FF1F9A95E1F7EE19FF09E80FF11DEE0F5F
:102B4000FF1FE85BFD4FD182C082CDB7DEB7ECE05E
:102B50000C94001E91E0909347028CE080936400F7
:102B60008CE880937A0010927B008EE580937C0045
:102B7000909337020895EF92FF920F931F938091E5
:102B800047028F5F80934702833081F0843020F4C6
:102B9000823009F0ABC006C08430F1F0853009F016
:102BA000A5C023C08DE880937A0012C020917800E0
:102BB0003091790040E050E060E070E381E190E026
:102BC000C0D780E0B9015ADF8B9A82E480937C0001
:102BD00081E08093370290C08091780090917900D5
:102BE00090933D0280933C02F3CF40917800509146
:102BF000790020913C0230913D02C9010196841771
:102C000095072CF0215030404217530744F450935D
:102C10003D0240933C0284E0809347026DC0809166
:102C20007103282F30E020503F4FE2E7F3E001E04E
:102C30008081B901680F711D4617570734F00F5F87
:102C40003196063019F09B01F3CFB90110E081E015
:102C500090E0801B910B24EF31E0829F7001839FF5
:102C6000F00C929FF00C11248CEA9DE0E80EF91E06
:102C7000461B570BBA01882777FD8095982F2CE0CB
:102C80003EEF4FEF5FEFFED60F581C4FF80120814B
:102C900030E040E050E077D7E20EF31E81E0B7016C
:102CA000EDDE8091460290E001966FE070E036D74D
:102CB00080934602882399F48091150390E0FC01EB
:102CC000EE0FFF1FEA5EFC4F20913A0230913B026B
:102CD0003183208301968F719070809315038091CA
:102CE00012018F3018F48F5F809312018B988DE062
:102CF00080937A0080936400809137021F910F9136
:102D0000FF90EF900895F29A1895F999FECF92BD31
:102D100081BDF89A80B50895F999FECF90E0880FAB
:102D2000991F880F991F860F911D80549F4F92BD48
:102D300081BDF89A80B508959C0180E0203C380759
:102D400028F0C90183709070892B49F4F999FECF5E
:102D500032BD21BD60BDF894FA9AF99A789408952D
:102D6000EF92FF920F931F93CF93DF93082F82333D
:102D700018F5E82EFF24E701C85ADC4F188160E0FF
:102D8000CBDF1817C9F01881802F62E0C5DF181754
:102D900030F01881802F63E0BFDF811720F4802F8F
:102DA00061E0BADF8883EE0CFF1CEE0CFF1CC7014C
:102DB00080549F4F6881C0DFCDB7DEB7E6E026C7FD
:102DC000FF920F931F93CF93DF93F82EC8E5D3E0C4
:102DD00000E0FF2081F4802F60E09EDF182F8883C1
:102DE000802F62E099DF181730F01881802F63E0A0
:102DF00093DF811720F4802F61E08EDF8883802F9E
:102E0000AFDF0F5F023311F02196E3CFCDB7DEB70E
:102E1000E5E0FDC6982F809113019817D9F0292F6E
:102E200030E0220F331F2C5F3F4FF999FECFC901CD
:102E3000019692BD81BDF89A40B5F999FECF32BD99
:102E400021BDF89A20B5942F80E0AC01420F511DAE
:102E50009A0104C02091560330915703C901089587
:102E6000FF920F931F93F72E803460F4082F10E029
:102E7000000F111F0C5F1F4FC8015EDFC8010196D4
:102E80006F2D5ADF1F910F91FF9008951F93182FF8
:102E900080E0E6D3812F63E02FD41F9108950F9334
:102EA0001F93082F162F811160E08CE225D4802F0C
:102EB0008150823010F060E001C0612F85E41CD4A5
:102EC000023008F410E08DE2612F16D41F910F91AB
:102ED00008951F93182F80918E03E82FF0E0E731BB
:102EE000F10508F076C1E25AFF4F9FC683E0B8D3E0
:102EF00070C18BE3CBDF80E091E063E01BD569C15B
:102F000080E0AED38091090190E08053984F61E05A
:102F10008AD45FC18BE3BADF90910A0180918E035E
:102F2000803111F043E001C041E0892F60E061D4BD
:102F300090910B0180918E03813111F043E001C02B
:102F400041E0892F62E021C0112341F080E088D365
:102F50008BE363E0D1D383E263E0CED390910C01A5
:102F600080918E03823111F043E001C041E0892F4E
:102F700062E03FD490910D0180918E03833111F076
:102F800043E001C041E0892F60E033D422C1809149
:102F900000011816D4F48BE079DF8AE063E043E0A7
:102FA000FAD380916F03909170038F5F9F4F21F44C
:102FB0008DE062E043E0EFD3809100016AE08DD5BF
:102FC000892F60E043E0E7D32DC0112311F08BE09F
:102FD0005DDF809130018823B9F087FF03C08FE067
:102FE00061E010C082FF02C080E10BC083FF02C01D
:102FF00081E107C086FF02C08FE003C084FF12C0DA
:1030000082E163E0A6D40EC080912F01882311F0E5
:103010008EE0F7CF112311F08BE038DF80912D0186
:1030200063E0B6D480910401882341F090912E0191
:1030300080912D01981711F463E001C060E088E1F0
:103040005BD380910401882311F463E001C060E048
:1030500082E352D360918A0370918B0380918C0339
:1030600090918D032ED3B5C0112311F08BE30EDFA9
:1030700080913A0290913B0263E018D4AAC01123D8
:1030800011F080E0EDD20E944C01853638F40E94A8
:103090004C0190E060E043E0E4D39BC08AE060C074
:1030A0008AE1F4DE8091860261E053D492C080E030
:1030B000D7D28BE363E020D383E263E01DD38AE1C0
:1030C00063E01AD380918602982F990F990F990F78
:1030D00020918A02920F9093130190918902392FC7
:1030E0003295307F20E04091870250918802240F72
:1030F000351F30935703209356035AD8E2D28FEFEF
:103100008093130180918702909188026CE370E0B4
:10311000F1D4862F61E038D38091870290918802A4
:1031200025E0803A920790F46CE370E0E3D4862FB8
:1031300062E041E05ED380918702909188026CE367
:1031400070E0D8D460E041E054D303C089E061E08E
:1031500000D48091890261E03BC080E081D288E0A8
:1031600063E0A3CF83E07CD29091150180918E0320
:103170008C3011F043E001C041E0892F62E0C5D3FB
:10318000E0911501F0E0E85AFC4FE08180918E0358
:103190008D3011F043E001C041E08E2F60E0B5D3E7
:1031A00018C083E05DD2809184020E94B60763E07C
:1031B000C1D38091840261E0E7D20BC08BE366DE6D
:1031C0008091860261E0E4D380918E03825063E0B7
:1031D00066DE1F910895EF92FF921F93CF93DF93C6
:1031E000409130025091310240FF02C011E005C011
:1031F00041FD02C010E001C01FEF90918E03E92F46
:10320000F0E0E731F10508F073C1EB58FF4F0DC551
:10321000882319F082E0809314018091140188239F
:1032200009F0D2C181E080938E03D1C1882319F0C7
:1032300082E08093140180911401882309F0C4C1B5
:103240008FE0AEC1112321F080910901810FD9D8FF
:103250008091300282FFB8C180E142C1112321F088
:1032600080910A01810FD0D88091300282FFACC1D9
:1032700081E136C1112321F080910B01810FCCD85F
:103280008091300282FFA0C182E12AC1112329F07E
:1032900080910C01810F0E948D0F8091300282FF7E
:1032A00093C183E11DC1112341F080910D01810F74
:1032B0000E94940F80E00E949B0F8091300282FF59
:1032C00083C187E00DC143FF08C0892F8F5F8093C2
:1032D0008E038B3009F07AC15EC18091850288230C
:1032E00051F0477F5770452B09F46EC185E08093FC
:1032F00014018BE055C1112359F09650923040F4DF
:10330000812F0E94D30486E080938E0381E001C068
:1033100080E09091300294FF02C08FEF03C097FFCE
:1033200056C18EEF0E94E70486E03AC1882351F02F
:1033300080917803813011F080E002C080910F010C
:103340008093860285E180938E03112361F02091A2
:103350008602812F992787FD9095820F911D877096
:1033600090708093860242FFC0C086E180938E03F6
:1033700010928A021092780380918602882319F0B5
:1033800081E08093780380E2EBDC68C08823A1F0C1
:103390008091860260918A0249E852E073D8909346
:1033A000880280938702815A954030F080EA95E048
:1033B0009093880280938702112309F180918702FC
:1033C000909188026AE070E095D3CB018F569F4FB1
:1033D000212F332727FD3095820F931F61E970E07D
:1033E00089D39C0153E0880F991F5A95E1F7220F6A
:1033F000331F820F931F90938802809387028091DE
:10340000300283FF09C08091890290E005968370A5
:10341000907080938902D8C082FF33C040918702A8
:10342000509188028091860260918A0220918902DF
:103430003CD880918A028F5F80938A02883060F046
:1034400080918602882329F067E03BD39F5F9093A9
:10345000860285E180938E0310922E01809178037D
:10346000813011F080E002C080910F010E94D810DD
:1034700060938A0370938B0380938C0390938D03E6
:10348000A5C084FFA1C087C0882339F0E92FF0E0F0
:10349000E95AFC4F808180938602112389F0809144
:1034A0008602810F809386028E3318F08DE380931D
:1034B000860280918602893018F489E08093860222
:1034C00042FF13C0E92FF0E0E95AFC4F80918602D9
:1034D000808380918E03815043DC80918E038F5FC7
:1034E00080938E0310922E0171C044FF6DC053C0B3
:1034F00080911401882309F067C04DC044FD4BC082
:1035000043FF02C08EE04CC042FF0BC09D3029F447
:103510008091150125DC8CE001C08DE080938E0345
:1035200053C0C12FDD27C7FDD0959C3061F4809139
:103530001501C80FD11DCE01C29662E370E0DAD248
:103540008093150141C08091150162E0E5DB182FE1
:10355000E82EFF248091150163E0DEDB682F70E028
:103560006F5F7F4F6E197F0920911501E22FF0E008
:10357000E85AFC4F8081C80FD11DCE19DF09CE015A
:10358000860F971FCBD2180F10832223E9F482D025
:103590001BC044FF02C087E003C043FF04C08CE0AF
:1035A00080938E0313C08091840290E00E96212FA9
:1035B000332727FD3095820F931F6EE070E0AED267
:1035C00080938402112311F480E001C081E02091F6
:1035D0003002309131029091850233FF0DC085E0B9
:1035E0008093140180E0992309F481E0809385029F
:1035F000882391F08BE015C0992379F534FF02C040
:103600008CE00FC032FF02C08FE00BC030FF02C061
:1036100084E107C035FF02C087E003C031FF1DC051
:1036200082E080938E0310911501123358F4812F9C
:1036300060E072DBE12FF0E0E85AFC4F808382E328
:103640008093150181E01092310210923002DF91D7
:10365000CF911F91FF90EF9008958823A1F3E3CFBE
:10366000833011F020E001C02FEF80E090E0FC01FA
:10367000E157FC4F2083019682319105C1F791E01B
:10368000909316018091E40088608093E400909309
:103690008B02089580E0E4DF809158038093E70077
:1036A00085EA8093E50086E08093E600E4EEF0E0B2
:1036B00080EC808380818860808381E08093160124
:1036C0000895EF92FF920F93CF93DF937B01082F22
:1036D000C3E4D2E0FE01849166270695F794E7944F
:1036E00008F463E009D02196CB35A1F7DF91CF91A3
:1036F0000F91FF90EF900895482F46954695469577
:10370000877021E030E001C0220F8A95EAF7362F5A
:10371000E42FF0E060FF05C0E157FC4F8081822B71
:1037200006C0E157FC4F9081822F809589238083CA
:10373000E42FF0E031FF05C0E157FC4F8185282BD5
:1037400005C0E157FC4F81852095282321876150D2
:10375000623068F0809116018130A9F020E030E0FD
:10376000F901E157FC4F90818185981721F082E0A3
:103770008093160108952F5F3F4F2930310581F75F
:1037800081E0809316010895E3E4F2E0E80FF11D73
:10379000E4918E2FB1CFEF92FF920F931F93CF93AF
:1037A000DF93E42E643008F58832F8F4E62FF0E079
:1037B000E85CFD4FF490E82FF0E0E054FE4F0491F8
:1037C000CCE3D2E011E0FE019491812F802311F42B
:1037D00060E001C06E2D892F8F0D8EDF2196F2E003
:1037E000C334DF0711F0110FEECFCDB7DEB7E6E03F
:1037F0000DC2FF920F931F93082F162FF42E6330E4
:1038000070F4843660F46AE05CD1892F612FC3DFE5
:10381000802F6AE056D11F5F612F4F2DBCDF1F91B3
:103820000F91FF9008951F93CF93DF93162FEC0114
:1038300087E2C031D80710F0CFE0D7E2CE0164E6CE
:1038400070E058D1862F62E0412FD3DFCE0164E6CD
:1038500070E050D160E0412FCCDFDF91CF911F911C
:1038600008950F931F93CF93DF939C01162F042F7E
:103870006230B8F4EC0183E0283E380710F0C7EE60
:10388000D3E0CE0164E670E035D1862F612F6E5F04
:10389000402F81DFCE0164E670E02CD1612F402FF4
:1038A000A8DFDF91CF911F910F9108950F931F9380
:1038B000CF93DF93162FEC018CEFC931D80714F4A6
:1038C000C9E1DCEF00E0D7FF04C001E0D095C1956D
:1038D000DF4FCE016AE070E021D1CB0161E0412FE2
:1038E000C0DF002311F086E104C0C85ED34024F499
:1038F00080E263E0412F4FDF8CE060E0412F4BDF3F
:10390000DF91CF911F910F910895FF920F931F9315
:10391000082F162FF42E633048F48F703CDF1F5FA2
:10392000802F82958F70612F4F2D35DF1F910F9162
:10393000FF9008950F931F93082F162F892F62E091
:10394000412FE3DF802F60E0412FDFDF1F910F91D8
:1039500008950F931F93CF93DF93062FC82FD0E0C6
:10396000CC0FDD1FCC0FDD1FC851DE4F13E0FE0171
:103970008491612F402F0FDF115021961F3FB9F71F
:103980008BE360E0B9DEDF91CF911F910F91089535
:103990000F931F93082F162F893011F48CE007C066
:1039A0008D3311F48DE003C08E3320F08BE0612F56
:1039B000D0DF19C0869562E0412F1BDF00FD02C0F9
:1039C00080E001C085E061E0412FE5DE043120F4B4
:1039D00080E263E0412FDFDE8CE060E0412FDBDE40
:1039E0008BE3612F89DE1F910F91089580918C02E6
:1039F0008F5F80938C028D3058F080918D028F5FA5
:103A0000817080938D0210928C0281E080938B02F2
:103A100080918B02882351F110928B0280918D024C
:103A200090E0FC0123E0EE0FFF1F2A95E1F7E80F7D
:103A3000F91FE157FC4F80818093EC0081818093D6
:103A4000ED0082818093EE0083818093F100848178
:103A50008093F20085818093F30086818093F60045
:103A600087818093F70080858093F800809116010C
:103A7000813029F48091E400877F8093E4000895E9
:103A8000F39A1895629FD001739FF001829FE00D19
:103A9000F11D649FE00DF11D929FF00D839FF00DCD
:103AA000749FF00D659FF00D9927729FB00DE11D79
:103AB000F91F639FB00DE11DF91FBD01CF01112456
:103AC0000895991B79E004C0991F961708F0961B7A
:103AD000881F7A95C9F78095089587FB082E0626DA
:103AE00087FD819567FD6195ECDF0EF4919507FCEC
:103AF00081950895AA1BBB1B51E107C0AA1FBB1FDC
:103B0000A617B70710F0A61BB70B881F991F5A9569
:103B1000A9F780959095BC01CD01089597FB092EDA
:103B200007260AD077FD04D0E5DF06D000201AF47E
:103B3000709561957F4F0895F6F7909581959F4F09
:103B40000895A1E21A2EAA1BBB1BFD010DC0AA1FDE
:103B5000BB1FEE1FFF1FA217B307E407F50720F0F6
:103B6000A21BB30BE40BF50B661F771F881F991F71
:103B70001A9469F760957095809590959B01AC01BA
:103B8000BD01CF01089597FB092E05260ED057FDE4
:103B900004D0D7DF0AD0001C38F4509540953095FA
:103BA00021953F4F4F4F5F4F0895F6F790958095C1
:103BB000709561957F4F8F4F9F4F08952F923F9241
:103BC0004F925F926F927F928F929F92AF92BF922D
:103BD000CF92DF92EF92FF920F931F93CF93DF93D9
:103BE000CDB7DEB7CA1BDB0B0FB6F894DEBF0FBE36
:103BF000CDBF09942A88398848885F846E847D8483
:103C00008C849B84AA84B984C884DF80EE80FD8084
:103C10000C811B81AA81B981CE0FD11D0FB6F894FA
:103C2000DEBF0FBECDBFED010895EE0FFF1F059063
:103C3000F491E02D0994FB01DC0102C005900D9286
:103C400041505040D8F70895FB01DC0102C00190BB
:0E3C50000D9241505040D8F70895F894FFCFE0
:103C5E00FE0205FF01101000060A01010C00000013
:083C6E00000101FF0232010018
:00000001FF
