:100000000EC1000029C1000068C200000C94BC0DA4
:100010000C94EA090C94DD091FC100001DC1000009
:100020001BC1000019C1000017C1000007C3000078
:1000300013C1000011C100000FC100000DC100007C
:100040000BC1000009C1000007C100000C94A20F01
:1000500003C1000001C100000C945F160609E0080E
:1000600019094F08190919096108CF08190919094F
:1000700019091909F90819091909190919098B0820
:1000800061085408190948088B081909C008951017
:100090009810FD11FD11FD11FD112911E6105311EC
:1000A0005E11C310CC11D111D111F0119F10A91004
:1000B000A910C310C31008126F1176112712351240
:1000C0006313631363136313821282128212821208
:1000D000821297139D139D13E81341124D1259126A
:1000E00065127212B512C412E512EA81E8812F81FD
:1000F0002B0103012C0104012D011A8118811681A5
:100100001C013E8240823A4F70656E485232302068
:10011000312E302046656220313620323031312098
:1001200030313A32383A33362052656C5F312E30F6
:100130000A0020570020580020453A002049733A11
:10014000200020423A2000424F4F540020533A20D2
:100150000020493A200020563A2000443A20001F4F
:100160001C1F1E1F1E1F1F1E1F1E1F00001F003BE7
:10017000005A0078009700B500D400F30011013058
:10018000014E013F065B4F666D7D077F6F777C39BF
:100190005E797163547376300840014841094950D3
:1001A00054105C00332738583E786E200116072023
:1001B0001601162016021620160316201604162005
:1001C00016051620160616201607160B011F2416F4
:1001D00016161620160C16200E1C1C000F0F2000E1
:1001E0001D202000120E1D0B0A2626200E022020A4
:1001F0000E0320200E04200E0E121C27231F1B02AC
:10020000031B191800010102030405060708090A67
:100210003935413D0B0C0D0E0F1011121314112422
:100220001FBECFEFD4E0DEBFCDBF11E0A0E0B1E054
:10023000E8E7FEE202C005900D92A631B107D9F7BA
:1002400012E0A6E1B1E001C01D92AA3CB107E1F7BE
:100250000E94420C0C943A17D3CE8091000188235F
:1002600011F06FEF19C02091160130911701F901BB
:1002700093E0EE0FFF1F9A95E1F78091180190919E
:1002800019016AE070E00E94AD16220F331FC90108
:100290008E0F9F1F0E94AD16862F0895E82F88238A
:1002A00021F414BA109242020895809142028E17EE
:1002B00009F479C0739A10921E0110921D011092D8
:1002C000230110922201109225011092240182E054
:1002D00080930101E0934202E093280190919E02F5
:1002E00080910001882319F480919D0202C08091C1
:1002F0009C02282F30E0892F90E0AC01249FC001A0
:10030000259F900D349F900D112464E670E00E94AB
:10031000991633E0660F771F3A95E1F770932A013B
:10032000609329018091290190912A01880F991FDA
:10033000880F991F9093200180931F0181E085BB56
:1003400016BC80936E008CB18093210180916B006C
:10035000826080936B00409198028091E8019091B7
:10036000E9016AE070E00E94AD1680E0942F0E94DF
:100370009916842F90E0861797073CF040919702DA
:10038000842F90E06817790714F447BD01C067BD5A
:10039000EF3F29F488E084BB81E084BD089580E1CB
:1003A00084BB81E084BD0895282F809100018823BB
:1003B00009F045C0739943C0243629F4809118018F
:1003C000909119011DC0222329F410922701109247
:1003D00026011AC030E0809118019091190195957D
:1003E000879595958795AC01249FC001259F900D19
:1003F000349F900D112469E170E00E94AD16CB018D
:100400009093270180932601409116015091170186
:10041000209126013091270180911C01B901680FBC
:10042000711D6417750714F48FEF38CF80911C018C
:10043000281B31094217530714F481E02FCF089588
:1004400080910101882309F044C020911A01309164
:100450001B012C5F3F4F53E0369527955A95E1F7E6
:1004600080919E02281B310980919F0290E0AC018F
:10047000249FC001259F900D349F900D112464E6A8
:1004800070E00E94AD168091A002482F50E0461700
:1004900057074CF088279927841B950BAB016817E9
:1004A00079070CF4AC0187B59A01280F311D4091F2
:1004B0009802842F90E0821793073CF040919702B6
:1004C000842F90E02817390714F447BD089527BDFD
:1004D000089581508093010108951F920F920FB6E5
:1004E0000F9211242F933F934F938F939F93AF932A
:1004F000BF934CB180916B0081FF92C0809121012C
:10050000842781FF8DC020911D0130911E018091B3
:10051000220190912301281B390B80911D0190919C
:100520001E01909323018093220141FF6EC08091B0
:100530009A0290E0880F991F8217930708F070C005
:1005400020912401309125018091990290E0880F3B
:10055000991F8217930708F063C08091160190914C
:10056000170120912801332727FD3095280F391FC7
:10057000309317012093160184B3887129F4809178
:100580001C018F5F80931C0180913E0290913F027D
:10059000A0914002B09141020196A11DB11D80932E
:1005A0003E0290933F02A0934002B093410280919B
:1005B0001D0190911E0190931B0180931A011092CE
:1005C00025011092240110921E0110921D0110921B
:1005D000230110922201F49A209116013091170103
:1005E00080912601909127012817390729F410924C
:1005F0001C0114BAF59A14C08091290190912A0126
:100600009093200180931F010BC080912401909151
:1006100025018217930720F43093250120932401AC
:1006200040932101BF91AF919F918F914F913F9145
:100630002F910F900FBE0F901F9018951F920F9241
:100640000FB60F9211242F938F939F9380911D01CA
:1006500090911E01019690931E0180931D0180913F
:100660001D0190911E0120919B02921758F014BC1D
:1006700080916B008D7F80936B0010926E00739859
:10068000F4981CC080911F0190912001892B51F09A
:1006900080911F01909120010197909320018093F8
:1006A0001F010DC084B3887151F080911D0190919C
:1006B0001E0190931B0180931A01F59A14BA9F9121
:1006C0008F912F910F900FBE0F901F9018951F9331
:1006D000CF93DF931091420280E0E0DD80911F0113
:1006E00090912001892B31F080910001882309F439
:1006F0006CC025C0113009F040C0C0911601D091E6
:10070000170180910001823079F5D0931901C093CF
:1007100018018091A1029091A202892BC9F4C233E1
:10072000D1056CF0D093A202C093A10287E10E9490
:10073000CF0F88E10E94CF0F1092000146C08FEFCB
:100740008093000180912E01886080932E013DC02E
:100750008FEFA4DDC45FD140D0932701C093260161
:1007600083E08093000131C08091180190911901BC
:10077000909317018093160128C01F3F31F5809197
:100780000001833089F4109200012091160130910C
:1007900017018091180190911901821B930B90937E
:1007A0001901809318010DC08091160190911701D5
:1007B000C3973CF01093000180912E0188608093D4
:1007C0002E011092170110921601809100018823CA
:1007D00071F48091180190911901C29744F48FEF40
:1007E0008093000180912E01886080932E01DF911B
:1007F000CF911F9108951F93182F8823B1F480E0A3
:100800004DDD1092170110921601109219011092ED
:1008100018018EEF8093000185E0809302018091A2
:100820002E01877F80932E0133C08091020188239F
:1008300021F08150809302010FC08091000181302E
:1008400059F482E08093000184EF91E090932701B6
:100850008093260181E022DD809100018E3FC1F46A
:10086000133069F48FEF9FEF9093A2028093A1025F
:1008700087E10E94CF0F88E10E94CF0F06C012309F
:1008800021F41092A2021092A10281E08093000153
:100890001F91089590912B01980F90932B019930FF
:1008A00010F489E003C09E3318F08DE380932B0190
:1008B00010922D018AE0809305010895282F8F3F23
:1008C00029F480912C018093330106C08E3F81F47E
:1008D0008091330180932C0190E080910401882362
:1008E00009F491E0909304018AE08093050106C029
:1008F00087FD02C0809304011092050180910401DC
:10090000882341F02E3F31F080E0EAD580932C011E
:1009100080932B0110922D010895CF92DF92EF92D8
:10092000FF920F931F93C62E882321F480912C01F0
:100930008823E1F490E080912C01811191E0892FCE
:10094000CFD5982F882391F080932C0180910401BA
:10095000882361F090932B018091050187FF06C0E9
:1009600080910301981711F0109205010091470240
:1009700010912D01112319F08091B10202C08091D4
:10098000B002282F30E0802F90E08096821B930BDE
:1009900060E270E00E94AD1640E050E060E177E276
:1009A000282F30E0F901EE0FFF1FE85BFD4F0190AB
:1009B000F081E02D309739F0E617F7070CF4BF010E
:1009C0004E175F070CF0FA01801731F02F5F3F4F91
:1009D000822F8F71AF01E4CFE090EA01F090EB013C
:1009E0009701261B370B8091AF0290E08217930787
:1009F0002CF4112399F010922D010EC0112371F4E3
:100A0000EE19FF098091AE0290E08E179F0734F433
:100A10008091B20280932D01109205018091060110
:100A200090910701009729F0019790930701809317
:100A300006018091050118161CF481508093050170
:100A400040910601509107014115510529F080910F
:100A50000501882309F034C130912B013A3018F098
:100A600080912D0181113AE080910301381739F00E
:100A7000309303011092300110922F0103C0452BD7
:100A800009F019C18091930225E0829FC0011124D1
:100A900090930701809306013D3308F0DCC082E3A8
:100AA000389F900111242E193F0968EF2033360733
:100AB00014F420E338EF890177E0213D370714F083
:100AC00000ED17E08091310190913201009709F417
:100AD00043C08E199F0971F4980117FF04C02227A3
:100AE0003327201B310B8091920290E082179307ED
:100AF00054F032C01816190624F4101611061CF012
:100B00002BC017FF29C06091900280E092E370E053
:100B10000E94AD16601771075CF480912F019091CF
:100B20003001860F971F9093300180932F0114C0DE
:100B300088279927861B970B40912F0150913001F0
:100B4000081719071CF4461B570B02C0400F511F12
:100B50005093300140932F01F0923201E092310125
:100B6000D0909102DD2019F480E092E307C080E08C
:100B700092E36D2D70E00E94AD16CB0140912F01E4
:100B800050913001841795072CF490933001809395
:100B90002F010BC022273327281B390B421753077D
:100BA00024F43093300120932F01980117FF04C0E3
:100BB00022273327201B310BB901882777FD809529
:100BC000982F20918F0230E040E050E00E946116A3
:100BD0009B01AC017091900260E080E090E0620FB8
:100BE000731F841F951F9801442737FD4095542F8C
:100BF0000E946116672F782F892F992787FD9A9574
:100C00003091950220E079010027F7FC0095102F24
:100C10004D2D50E020912F0130913001F9014E9F70
:100C200090014F9F300D5E9F300D1124442737FDFA
:100C30004095542FE20EF31E041F151FE60EF71EFB
:100C4000081F191FF1E0EF16F4E6FF06F0E00F07AA
:100C5000F0E01F071CF0C09096022DC017FF03C0E4
:100C6000C090940228C02C2D332727FD309580E0BA
:100C70009FEFBC01269FC001279F900D369F900DCE
:100C800011248E0D9F1D81509F4F8F5F914098F0D2
:100C90002F2D332727FD3A95C09096028C2D90E09A
:100CA0008217930744F0C09094028C2D90E028178F
:100CB00039070CF0C22E8C2D1ED18FEF80930501C9
:100CC0002091E8013091E90121153105D1F08091A1
:100CD000AC0244E1849FC00111242817390720F495
:100CE00080912E01806C0BC08091AB02849FC0016B
:100CF00011242817390728F480912E0180648093ED
:100D00002E018C2D1F910F91FF90EF90DF90CF90CF
:100D100008958E3018F022E830E011C0E82FF0E09E
:100D2000EE0FFF1FE651FF4FA591B491B7FF04C02E
:100D3000BF772D913C9103C08C91282F30E0C901E1
:100D40000895582FF89440913601E42FF0E09F0168
:100D50002F5F3F4F2F7730708091370190E0281739
:100D6000390739F0E85CFE4F50834F5F4F7740936F
:100D70003601789408959091370180913601891752
:100D800011F480E00895E92FF0E0E85CFE4F8081E7
:100D90009F5F9F77909337010895282F8823F9F05C
:100DA0008D3009F42AE080913401E82FF0E0E85416
:100DB000FE4F2083982F9F5F9F7190933401809105
:100DC0003501981721F49F5F9F71909335012A3068
:100DD00031F4F69A8091D8018F5F8093D8010895FD
:100DE000F8949091350180913401891779F0E92FB9
:100DF000F0E0E854FE4FE0819F5F9F7190933501D2
:100E00008091D80181508093D80103C01092D801FD
:100E1000E0E078948E2F089508951F93182F84365C
:100E200050F064E60E948016805D8BDF812F64E6BF
:100E30000E948016192F812F6AE00E948016805D23
:100E400080DF812F6AE00E948016892F805D79DF24
:100E50001F9108950F931F938C0164E670E00E9428
:100E60009916862FDADFC80164E670E00E949916B1
:100E7000D4DF1F910F9108951F93182F82958F70C3
:100E80008A3010F0895A01C0805D5BDF812F8F703E
:100E90008A3010F0895A01C0805D53DF1F91089598
:100EA0001F93182F892FE8DF812FE6DF1F91089508
:100EB000CF93DF93EC01FC01849104C042DF2196C3
:100EC000FE0184918823D1F7DF91CF910895CF93CC
:100ED000DF9386E536DFE6E0F1E08491EF0104C0C0
:100EE00030DF2196FE0184918823D1F7DF91CF91E5
:100EF000089580E0ECCF1F93182F8BE591E0D8DFA9
:100F000080910E018053B8DF80E21BDF80910A01DF
:100F100084DF8EE216DF809109017FDF8EE211DF30
:100F2000809108017ADF80E20CDF80910B0175DF90
:100F30008AE307DF80910C0170DF8AE302DF809192
:100F40000D016BDF80E2FDDE80910401882311F446
:100F50008DE409C090912C0180912B01981711F01C
:100F60008DE201C081E4EDDE86E591E0A1DF17FDB1
:100F700002C0812F02C08091DF014FDF81E591E047
:100F800097DF8091EA019091EB0164DF8CE491E0BE
:100F90008FDF909103019E3320F087E491E088DF9A
:100FA00005C082E3989FC001112454DF82E491E0E0
:100FB0007FDF8091E8019091E9014CDF8CE391E0C3
:100FC00077DF80912F01909130016ADF80912E01AF
:100FD000882331F088E391E06BDF80912E014CDFB4
:100FE00017FF03C085E391E063DF80912D01882323
:100FF00019F082E391E05CDF8AE0A3DE1F9108959F
:101000000F931F93082F10E01BC0EADE982F282FA4
:1010100020532A3020F081568630C8F42752E12F21
:10102000E69510FF06C0F0E0E752FE4F8081280FE2
:1010300005C0F0E0E752FE4F2295207F20831F5F1E
:10104000101718F3CDDE982F8A3009F490E0892F1D
:101050001F910F9108951F93162F73DE8BE571DE9C
:10106000812F0ADF8DE56DDE8DE36BDE1F91089524
:101070001F93DFC0B5DE182F90E0FC01E154F04073
:10108000E931F10508F0D5C0E25DFF4F0C9434174B
:10109000A7DE8A3009F0CDC080E019DFCAC0A0DE2B
:1010A0008A3009F0C6C089C082E0AADF882309F02F
:1010B000BEC084E56091D901CEDF8091D90129DEDF
:1010C0005DC0173431F482E09BDF882309F0AFC0A4
:1010D00012C084E095DF882309F0A9C09091D9015E
:1010E000993248F4E92FF0E0E657FD4F8091DA019C
:1010F0008083892F54D7812F6091D901ACDFE09193
:10110000D901EF3F11F480E104C0F0E0E657FD4F54
:101110008081B2DE8CC0123531F482E071DF882329
:1011200009F085C01CC086E06BDF882309F07FC012
:101130006091D9012091DA01422F50E04F70507038
:10114000542F44278091DB01480F511D22952F70A9
:10115000862F82958F706F7079D310922C01812F1A
:101160006091D90178DF9091D901892F82958F7094
:10117000880F880F880F9F70890F6BD791DE57C03B
:1011800086E03EDF882309F052C08091D9010AD35E
:101190008091DA010AD38091DB010FD30EC086E083
:1011A0002FDF882309F043C08091D901C7D08091F7
:1011B000DA01CBD08091DB01CFD08FEF9CDE39C03C
:1011C00084E01EDF882399F58091D901833179F578
:1011D0008091DA01843259F5F89428E088E190E0B2
:1011E0000FB6F894A895809360000FBE209360001E
:1011F000FFCF82E005DF8823D1F490E08091D90110
:10120000813009F491E0892F59DB0FC082E0F8DECC
:10121000882369F49091D901993048F09E3338F4CD
:101220008AE08093050190932B018FEF64DE8AE0C2
:1012300088DD8091D801882309F01CCF1F91089583
:101240002F923F924F925F926F927F928F929F92D6
:10125000EF92FF920F931F93CF93DB01FA012D9032
:101260003D904D905D906D907D908D909D90DC01B6
:1012700060E2062E22273327A901E8947301840136
:10128000C4E0EE0CFF1C001F111FCA95D1F7B3017B
:10129000C401C5E09695879577956795CA95D1F76E
:1012A000E626F72608271927E60CF71C081D191D46
:1012B0002EF4C32FC695CC70E89405C0C22FC3701E
:1012C000CC0FCC0F6894EC0FF11D6081718182818D
:1012D0009381EC1BF040620F731F841F951FE6265D
:1012E000F72608271927E20CF31C041D151D13010E
:1012F0002401370148014EF4C9EB2C0FC9E73C1F0C
:10130000C7E34C1FCEE95C1FB9CF0A9409F0B6CFF2
:101310002D923D924D925D926D927D928D929D9215
:10132000CF911F910F91FF90EF909F908F907F90A2
:101330006F905F904F903F902F900895885E68E186
:101340000E94801690930B010895845C6CE30E94C8
:10135000801690930C010895845C6CE30E948016C3
:1013600090930D010895F894E82FF0E081E090E06B
:101370000E2E02C0880F991F0A94E2F72091DC011B
:10138000282B2093DC01E352FE4F60838091B20052
:1013900021FF02C09091DE018091B300891731F0E6
:1013A0008091B60081FDFCCF9093B300789480913A
:1013B000700082608093700008950F930FB70F93B1
:1013C000F19A0091DD0101680093DD010F910FBFDB
:1013D0000F9118951F920F920FB60F9211242F9311
:1013E0008F939F939091B2009150F19A2091DC01DC
:1013F00021FF0AC08091DE01981731F481E08093CB
:101400000F012D7F2093DC012091DC0121FF02C020
:101410009091DE018091B300891711F09093B30091
:10142000222329F4809170008D7F809370009F911A
:101430008F912F910F900FBE0F901F901895A0E0E5
:10144000B0E0E5E2FAE00C94FE16D82E3B018823CA
:1014500019F442E0342E02C038E0332EAA24AA94B4
:10146000CC248D2C9924740123E0EE0CFF1C2A95CA
:10147000E1F75E2C98E0492E4E0C00E010E0C0E051
:10148000D0E010C0E6D59F7025E0803A920748F47E
:101490008017910730F06816790618F0AB2CAE0C67
:1014A0008C012196BC2E8C2F850D841558F3A7FE38
:1014B00011C0DD2041F0C401059667E070E00E9494
:1014C000AD16D82ED394C39480EA682E85E0782E8A
:1014D000C31438F28A2DCDB7DEB7E1E10C941A17A8
:1014E000FF920F931F93CF93DF93F82E90910B01F0
:1014F0008CE3989FE001112480910C01C80FD11D4D
:101500008091AA02813011F000E002C000910E012A
:10151000802FBE0194DF182F9CD5FC0117FD15C04C
:10152000FF2049F09F708C179D0779F4159515954C
:101530001595101751F4EF2FFF27E295EF70E37028
:10154000F070E557FD4F808101C080E0CDB7DEB778
:10155000E5E00C942617A0E0B0E0E1EBFAE00C9493
:101560000717C82EC0EAD5E077E1D72EEE24FF2476
:1015700087018C2DBE0163DF87FF03C080E090E010
:1015800001C067D59C01207030739F708C179D0738
:1015900018F0CFEFDFEF02C0EC0121974D2D5CE397
:1015A0004502C001112414C060E22030360740F02B
:1015B00041E050E060E070E0E42AF52A062B172BAA
:1015C0001D1424F4EE0CFF1C001F111FDA94CC979D
:1015D000C817D9074CF31C161D065CF2B701C801E9
:1015E000CDB7DEB7E8E00C94231780910D018F5F33
:1015F00080930D018C3308F482C010920D0180910C
:101600000C018F5F80930C018C3308F478C010922A
:101610000C0180910B018F5F80930B01883108F4DE
:1016200043C010920B0120910901E22FF0E0E25A31
:10163000FE4F3491223041F48091080190E0837094
:101640009070892B09F43DE180910A018F5F8093AE
:101650000A01381790F491E090930A01822F8F5F6E
:10166000809309018D3038F0909309018091080131
:101670008F5F809308011092450280910E0167E010
:101680000E9480169F5F90930E018091AA02813084
:1016900009F090E0892F5FDF6093B3027093B4028A
:1016A0008093B5029093B60290910901933079F43A
:1016B00080910B01823019F580910E018730F9F489
:1016C00080910A018931D8F090930B0108959A30E6
:1016D000B1F480910B01833091F48091450288230D
:1016E00071F480910E01873051F480910A018831A4
:1016F00030F082E080930B0181E0809345020895F1
:101700000F931F93CF93DF9390910901E92FF0E09E
:10171000EE0FFF1FE759FE4FC591D49180910A014A
:10172000C80FD11D933040F08091080190E0837084
:101730009070892B09F42196E0910801F0E08F0167
:1017400001501040C80164E070E00E94AD169B019A
:10175000C8016CE97FEF0E94AD16260F371F2E0FD0
:101760003F1F2B5F3F4FC9018C0F9D1F67E070E04B
:101770000E949916982F9F5F90930E018091AA0264
:10178000813009F090E0892FE6DE6093B302709318
:10179000B4028093B5029093B602DF91CF911F916E
:1017A0000F91089580930801ABCF855F6CE00E9494
:1017B00080169F5F90930901A3CF282F8091090184
:1017C000E82FF0E0E25AFE4F6491823041F48091BC
:1017D000080190E083709070892B09F46DE121502D
:1017E000822F860F0E9480169F5F90930A0188CFF8
:1017F000809170008E7F8093700088E08093B600A7
:101800001092B2008091B00085608093B00080910A
:10181000B6008570E1F78FEF87BB80917000816023
:10182000809370006DCF0F931F938A01880F880FEC
:10183000880F860F0ED49C01832F82958F70F8013C
:1018400080833F70C9011F910F910895962F8830B2
:10185000B8F46830A8F4243098F435E04C3D5307D0
:1018600010F04FEF5FE0880F880F880F722F72958E
:10187000707F60E0642B752B890F11D481E008958F
:1018800080E0089590E89093610081E0809361008A
:1018900090BF8FEF80937E008DE08093640088E19D
:1018A00083BB87E085B96B9A739A84E080BB85EF30
:1018B00081BB82E080936B0087E180936C0080ECB9
:1018C0008DBB96DF83B120E090E087709070892B0C
:1018D00009F421E0822F93D381E00E94FB03F9D722
:1018E00083B180958073809346021EBA789483E01A
:1018F00090E02AD3803139F083E163E00E94C8157B
:101900000E941516FFCF26E0D22E97E0F92E83E035
:10191000E82E01E0F8948EB3882331F58091B6006B
:1019200090E087709070892BF9F484B590E087700F
:101930009070892B11F003BF07C08091E7018823C5
:1019400011F0E3BE01C0F3BE8091E701882339F0B6
:101950001092E70180917A00806480937A007894F5
:1019600088950000D3BE01C07894F39B04C0F3981F
:101970000E941516CFCFF29B03C0F2981BD2CACF9C
:10198000F69B03C0F69874DBC5CFF59B04C0F598B1
:101990000E946703BFCFF09B02C0F09800D1F19B7B
:1019A00069C0F1988091DD0187FF01C01EDE909132
:1019B000DD01892F817809F45DC0F8949E779093BA
:1019C000DD01789410E080910D01882309F411E085
:1019D000812F6091DF010E948D048093DF0111232C
:1019E00009F180912E01807C91F480910E01863066
:1019F00071F480910B018A3051F480910C0188239D
:101A000031F41092300110922F010E94FB0380915B
:101A10002D01882339F0815080932D01882311F402
:101A2000109205018091E8019091E90118161906BC
:101A30003CF4A0D00E94FB038091DF010E94D401FE
:101A40003DD080914202882321F08091AD0288230D
:101A500009F09FD18091120187FD03C081508093CE
:101A6000120180E055D38091E40088608093E40007
:101A700000933B028091E0019091E101892B21F4D8
:101A800080911201882389F480E0C4D4182F882320
:101A900011F081E0BFD4812F3BD38091E4008860B6
:101AA0008093E40000933B0235CFF49B33CFF4984E
:101AB00061D00E94FB030E9420022CCF9091E40190
:101AC0009923A1F48091E6018F5F8093E60188233A
:101AD00021F48FEF8093E6010895843109F049C025
:101AE0008091E0019091E101906235C08091E50123
:101AF0008F5F8093E501882321F48FEF8093E501C8
:101B000008958430B1F5943099F0953028F49130EF
:101B1000B1F0923071F505C09530C1F0973049F5BC
:101B20001FC08091E0019091E1018062916013C03B
:101B30008091E0019091E101806492600CC08091FD
:101B4000E0019091E1018068946005C08091E0011E
:101B50009091E10198609093E1018093E0010895F4
:101B60008091E0019091E10190619093E101809377
:101B7000E001089581E008951F920F920FB60F9231
:101B800011248F93F09A000083B18095877380931E
:101B9000E2018F910F900FBE0F901F9018951F9329
:101BA0002091E201207380914602822784FF17C0B2
:101BB000222311F0203331F48091E0019091E10172
:101BC000826005C08091E0019091E1018160909375
:101BD000E1018093E0011092E6012093460210910A
:101BE000E20117702091E401121709F464C0112377
:101BF00051F1222341F580910F01882321F1123008
:101C000031F48091E0019091E101846007C01430CB
:101C100069F48091E0019091E10188609093E10185
:101C20008093E00181E08093E3010DC0113059F40D
:101C30008091E0019091E10180619093E1018093B6
:101C4000E0011093E3018091E301882319F1223030
:101C500041F41123F9F08091E0019091E10180625B
:101C600013C0243041F41123A9F08091E001909138
:101C7000E101806409C0213069F4112359F0809199
:101C8000E0019091E10180689093E1018093E0018F
:101C90001092E30180910F01882339F010920F0117
:101CA0006091B2006E5C81E05EDB1093E401109203
:101CB000E5011092E6011F910895A0E0B0E0E3E68F
:101CC000FEE00C9403176B01E82EFF249B014427D0
:101CD00037FD4095542FE701CC0FDD1FCC0FDD1FE2
:101CE000C251DE4F88819981AA81BB81280F391F9B
:101CF0004A1F5B1F288339834A835B8380911001CD
:101D00008F3080F18091F601F70174E0EE0FFF1F34
:101D10007A95E1F7EE19FF09E80FF11DEE0FFF1FAD
:101D2000E850FE4F80819181AA2797FDA095BA2F98
:101D300049015A01881A990AAA0ABB0AC501B401C5
:101D400088829982AA82BB828701000F111F0851E5
:101D50001E4F2FE030E040E050E00E94E216F80114
:101D6000318320838091F601F70194E0EE0FFF1F8D
:101D70009A95E1F7EE19FF09E80FF11DEE0FFF1F2D
:101D8000E850FE4FD182C082CDB7DEB7ECE00C94B4
:101D90001F1791E09093F7018CE0809364008CE82A
:101DA00080937A0010927B008EE580937C00909364
:101DB000E7010895EF92FF920F931F938091F7012F
:101DC0008F5F8093F701833081F0843020F482307C
:101DD00009F0ABC006C08430F1F0853009F0A5C031
:101DE00023C08DE880937A0012C020917800309152
:101DF000790040E050E060E070E381E190E0C0D71E
:101E000080E0B9015ADF8A9A80E480937C0081E007
:101E10008093E70190C08091780090917900909331
:101E2000ED018093EC01F3CF40917800509179005F
:101E30002091EC013091ED01C901019684179507BD
:101E40002CF0215030404217530744F45093ED01D9
:101E50004093EC0184E08093F7016DC08091A30270
:101E6000282F30E024583E4FE4EAF2E001E0808180
:101E7000B901680F711D4617570734F00F5F31968F
:101E8000063019F09B01F3CFB90110E081E090E03A
:101E9000801B910B24EF31E0829F7001839FF00C37
:101EA000929FF00C11248CEA9DE0E80EF91E461B6F
:101EB000570BBA01882777FD8095982F2CE03EEFCD
:101EC0004FEF5FEFFED60D551D4FF801208130E03A
:101ED00040E050E077D7E20EF31E81E0B701EDDE7F
:101EE0008091F60190E001966FE070E036D7809324
:101EF000F601882399F48091470290E0FC01EE0FEF
:101F0000FF1FE85BFD4F2091EA013091EB01318327
:101F1000208301968F719070809347028091100109
:101F20008F3018F48F5F809310018A988DE0809332
:101F30007A00809364008091E7011F910F91FF90D8
:101F4000EF900895F29A1895F999FECF92BD81BD50
:101F5000F89A80B50895F999FECF90E0880F991FFF
:101F6000880F991F860F911D80549F4F92BD81BD90
:101F7000F89A80B508959C0180E0203C380728F04D
:101F8000C90183709070892B49F4F999FECF32BD55
:101F900021BD60BDF894FA9AF99A78940895EF9269
:101FA000FF920F931F93CF93DF93082F893218F579
:101FB000E82EFF24E701C657DD4F188160E0CBDF34
:101FC0001817C9F01881802F62E0C5DF181730F0AC
:101FD0001881802F63E0BFDF811720F4802F61E03C
:101FE000BADF8883EE0CFF1CEE0CFF1CC701805487
:101FF0009F4F6881C0DFCDB7DEB7E6E026C7FF920E
:102000000F931F93CF93DF93F82ECAE8D2E000E03E
:10201000FF2081F4802F60E09EDF182F8883802FBF
:1020200062E099DF181730F01881802F63E093DFAA
:10203000811720F4802F61E08EDF8883802FAFDF4F
:102040000F5F093211F02196E3CFCDB7DEB7E5E09F
:10205000FDC6982F809111019817D9F0292F30E0F3
:10206000220F331F2C5F3F4FF999FECFC901019614
:1020700092BD81BDF89A40B5F999FECF32BD21BD20
:10208000F89A20B5942F80E0AC01420F511D9A01BF
:1020900004C02091880230918902C9010895FF92FD
:1020A0000F931F93F72E803460F4082F10E0000F79
:1020B000111F0C5F1F4FC8015EDFC80101966F2D15
:1020C0005ADF1F910F91FF9008951F93182F80E002
:1020D000E6D3812F63E02FD41F9108950F931F93B0
:1020E000082F162F811160E08BE225D4802F8150BC
:1020F000823010F060E001C0612F84E41CD4023013
:1021000008F410E08CE2612F16D41F910F9108950E
:102110001F93182F8091B702E82FF0E0E731F10507
:1021200008F076C1E95BFF4F9FC683E0B8D370C16A
:1021300080E3CBDF80E091E063E01BD569C180E004
:10214000AED38091080190E08053984F61E08AD42B
:102150005FC180E3BADF909109018091B7028031BD
:1021600011F043E001C041E0892F60E061D490911B
:102170000A018091B702813111F043E001C041E0D2
:10218000892F62E021C0112341F080E088D380E3F1
:1021900063E0D1D388E163E0CED390910B018091CD
:1021A000B702823111F043E001C041E0892F62E0C3
:1021B0003FD490910C018091B702833111F043E03C
:1021C00001C041E0892F60E033D422C18091000139
:1021D0001816D4F480E079DF8AE063E043E0FAD3B4
:1021E0008091A1029091A2028F5F9F4F21F48DE018
:1021F00062E043E0EFD3809100016AE08DD5892F42
:1022000060E043E0E7D32DC0112311F080E05DDFF3
:1022100080912E018823B9F087FF03C08FE061E031
:1022200010C082FF02C080E10BC083FF02C081E1C9
:1022300007C086FF02C08FE003C084FF12C082E1A6
:1022400063E0A6D40EC080912D01882311F08EE0AA
:10225000F7CF112311F080E038DF80912B0163E08C
:10226000B6D480910401882341F090912C01809193
:102270002B01981711F463E001C060E089E15BD3A2
:1022800080910401882311F463E001C060E082E3DF
:1022900052D36091B3027091B4028091B5029091D3
:1022A000B6022ED3B5C0112311F080E30EDF80916A
:1022B000EA019091EB0163E018D4AAC0112311F058
:1022C00080E0EDD20E942D01853638F40E942D0168
:1022D00090E060E043E0E4D39BC08AE060C08AE124
:1022E000F4DE8091360261E053D492C080E0D7D210
:1022F00080E363E020D388E163E01DD38AE163E0FB
:102300001AD380913602982F990F990F990F209127
:102310003A02920F9093110190913902392F329520
:10232000307F20E04091370250913802240F351F52
:1023300030938902209388020ED9E2D28FEF8093E6
:10234000110180913702909138026CE370E0F1D472
:10235000862F61E038D3809137029091380225E0D2
:10236000803A920790F46CE370E0E3D4862F62E049
:1023700041E05ED380913702909138026CE370E0C7
:10238000D8D460E041E054D303C089E061E000D4D8
:102390008091390261E03BC080E081D288E063E057
:1023A000A3CF83E07CD2909113018091B7028C304F
:1023B00011F043E001C041E0892F62E0C5D3E09114
:1023C0001301F0E0E657FD4FE0818091B7028D30B8
:1023D00011F043E001C041E08E2F60E0B5D318C09A
:1023E00083E05DD2809134020E94890663E0C1D30C
:1023F0008091340261E0E7D20BC080E366DE809119
:10240000360261E0E4D38091B702825063E066DE79
:102410001F910895EF92FF921F93CF93DF93409106
:10242000E0015091E10140FF02C011E005C041FD13
:1024300002C010E001C01FEF9091B702E92FF0E059
:10244000E731F10508F073C1E25AFF4F0DC588234B
:1024500019F082E08093120180911201882309F023
:10246000D2C181E08093B702D1C1882319F082E004
:102470008093120180911201882309F0C4C18FE07A
:10248000AEC1112321F080910801810F8BD9809179
:10249000E00182FFB8C180E142C1112321F08091A7
:1024A0000901810F82D98091E00182FFACC181E1F5
:1024B00036C1112321F080910A01810F7ED98091CC
:1024C000E00182FFA0C182E12AC1112329F080919D
:1024D0000B01810F0E949E098091E00182FF93C150
:1024E00083E11DC1112341F080910C01810F0E94F5
:1024F000A50980E00E94AC098091E00182FF83C1C0
:1025000087E00DC143FF08C0892F8F5F8093B7021A
:102510008B3009F07AC15EC180913502882351F079
:10252000477F5770452B09F46EC185E080931201F7
:102530008BE055C1112359F09650923040F4812F11
:102540000E944A0486E08093B70281E001C080E0E7
:102550009091E00194FF02C08FEF03C097FF56C136
:102560008EEF0E945E0486E03AC1882351F080918C
:10257000AA02813011F080E002C080910E018093A8
:10258000360285E18093B702112361F02091360273
:10259000812F992787FD9095820F911D87709070EC
:1025A0008093360242FFC0C086E18093B70210924A
:1025B0003A021092AA0280913602882319F081E033
:1025C0008093AA0280E2EBDC68C08823A1F08091AE
:1025D000360260913A0249E352E025D990933802DD
:1025E00080933702815A954030F080EA95E09093CD
:1025F000380280933702112309F1809137029091BC
:1026000038026AE070E095D3CB018F569F4F212F9F
:10261000332727FD3095820F931F61E970E089D33E
:102620009C0153E0880F991F5A95E1F7220F331F41
:10263000820F931F90933802809337028091E001BC
:1026400083FF09C08091390290E0059683709070F5
:1026500080933902D8C082FF33C040913702509135
:1026600038028091360260913A0220913902EED808
:1026700080913A028F5F80933A02883060F08091B7
:102680003602882329F067E03BD39F5F90933602A0
:1026900085E18093B70210922C018091AA028130CB
:1026A00011F080E002C080910E010E94AB0A60939D
:1026B000B3027093B4028093B5029093B602A5C0A2
:1026C00084FFA1C087C0882339F0E92FF0E0E757E5
:1026D000FD4F808180933602112389F0809136026C
:1026E000810F809336028E3318F08DE3809336028B
:1026F00080913602893018F489E08093360242FFD7
:1027000013C0E92FF0E0E757FD4F80913602808338
:102710008091B702815043DC8091B7028F5F809334
:10272000B70210922C0171C044FF6DC053C080915C
:102730001201882309F067C04DC044FD4BC043FF20
:1027400002C08EE04CC042FF0BC09D3029F4809146
:10275000130125DC8CE001C08DE08093B70253C0EB
:10276000C12FDD27C7FDD0959C3061F48091130106
:10277000C80FD11DCE01899669E270E0DAD280934C
:10278000130141C08091130162E0E5DB182FE82EB0
:10279000FF248091130163E0DEDB682F70E06F5F40
:1027A0007F4F6E197F0920911301E22FF0E0E65769
:1027B000FD4F8081C80FD11DCE19DF09CE01860FD4
:1027C000971FCBD2180F10832223E9F482D01BC0AD
:1027D00044FF02C087E003C043FF04C08CE0809345
:1027E000B70213C08091340290E00E96212F332758
:1027F00027FD3095820F931F6EE070E0AED280937C
:102800003402112311F480E001C081E02091E00145
:102810003091E1019091350233FF0DC085E0809346
:10282000120180E0992309F481E080933502882326
:1028300091F08BE015C0992379F534FF02C08CE04C
:102840000FC032FF02C08FE00BC030FF02C084E136
:1028500007C035FF02C087E003C031FF1DC082E022
:102860008093B70210911301193258F4812F60E060
:1028700072DBE12FF0E0E657FD4F808389E2809321
:10288000130181E01092E1011092E001DF91CF91FC
:102890001F91FF90EF9008958823A1F3E3CF833039
:1028A00011F020E001C02FEF80E090E0FC01E8543F
:1028B000FD4F2083019682319105C1F791E09093FD
:1028C00014018091E40088608093E40090933B02BF
:1028D000089580E0E4DF80918A028093E70085EA32
:1028E0008093E50086E08093E600E4EEF0E080EC83
:1028F000808380818860808381E0809314010895C3
:10290000EF92FF920F93CF93DF937B01082FC6E0E6
:10291000D2E0FE01849166270695F794E79408F4C7
:1029200063E009D02196CE31A1F7DF91CF910F91CD
:10293000FF90EF900895482F4695469546958770ED
:1029400021E030E001C0220F8A95EAF7362FE42F0C
:10295000F0E060FF05C0E854FD4F8081822B06C087
:10296000E854FD4F9081822F809589238083E42F46
:10297000F0E031FF05C0E854FD4F8185282B05C0EC
:10298000E854FD4F818520952823218761506230CE
:1029900068F0809114018130A9F020E030E0F90165
:1029A000E854FD4F90818185981721F082E0809353
:1029B000140108952F5F3F4F2930310581F781E0E1
:1029C000809314010895E6E0F2E0E80FF11DE49130
:1029D0008E2FB1CFEF92FF920F931F93CF93DF9380
:1029E000E42E643008F58832F8F4E62FF0E0E55084
:1029F000FE4FF490E82FF0E0ED57FE4F0491CFEF3B
:102A0000D1E011E0FE019491812F802311F460E068
:102A100001C06E2D892F8F0D8EDF2196F2E0C6301A
:102A2000DF0711F0110FEECFCDB7DEB7E6E00DC234
:102A3000FF920F931F93082F162FF42E633070F41C
:102A4000843660F46AE05CD1892F612FC3DF802F68
:102A50006AE056D11F5F612F4F2DBCDF1F910F9190
:102A6000FF9008951F93CF93DF93162FEC0187E219
:102A7000C031D80710F0CFE0D7E2CE0164E670E0B5
:102A800058D1862F62E0412FD3DFCE0164E670E09B
:102A900050D160E0412FCCDFDF91CF911F9108959D
:102AA0000F931F93CF93DF939C01162F042F623057
:102AB000B8F4EC0183E0283E380710F0C7EED3E00D
:102AC000CE0164E670E035D1862F612F6E5F402F16
:102AD00081DFCE0164E670E02CD1612F402FA8DFAA
:102AE000DF91CF911F910F9108950F931F93CF9373
:102AF000DF93162FEC018CEFC931D80714F4C9E12C
:102B0000DCEF00E0D7FF04C001E0D095C195DF4FB6
:102B1000CE016AE070E021D1CB0161E0412FC0DF3E
:102B2000002311F086E104C0C85ED34024F480E2A3
:102B300063E0412F4FDF8CE060E0412F4BDFDF91FE
:102B4000CF911F910F910895FF920F931F93082F1C
:102B5000162FF42E633048F48F703CDF1F5F802FF8
:102B600082958F70612F4F2D35DF1F910F91FF9050
:102B700008950F931F93082F162F892F62E0412F7E
:102B8000E3DF802F60E0412FDFDF1F910F91089579
:102B90000F931F93CF93DF93062FC82FD0E0CC0F56
:102BA000DD1FCC0FDD1FC555DE4F13E0FE01849104
:102BB000612F402F0FDF115021961F3FB9F780E39F
:102BC00060E0B9DEDF91CF911F910F9108950F93CF
:102BD0001F93082F162F893011F48CE007C08D3316
:102BE00011F48DE003C08E3320F08BE0612FD0DF35
:102BF00019C0869562E0412F1BDF00FD02C080E016
:102C000001C085E061E0412FE5DE043120F480E27F
:102C100063E0412FDFDE8CE060E0412FDBDE80E30C
:102C2000612F89DE1F910F91089580913C028F5F83
:102C300080933C028D3058F080913D028F5F81700F
:102C400080933D0210923C0281E080933B02809190
:102C50003B02882351F110923B0280913D0290E0AB
:102C6000FC0123E0EE0FFF1F2A95E1F7E80FF91FA3
:102C7000E854FD4F80818093EC0081818093ED00CA
:102C800082818093EE0083818093F1008481809320
:102C9000F20085818093F30086818093F60087811E
:102CA0008093F70080858093F80080911401813033
:102CB00029F48091E400877F8093E4000895F39ADB
:102CC0001895629FD001739FF001829FE00DF11D66
:102CD000649FE00DF11D929FF00D839FF00D749F96
:102CE000F00D659FF00D9927729FB00DE11DF91F42
:102CF000639FB00DE11DF91FBD01CF01112408959F
:102D0000991B79E004C0991F961708F0961B881F3D
:102D10007A95C9F78095089587FB082E062687FDCA
:102D2000819567FD6195ECDF0EF4919507FC819527
:102D30000895AA1BBB1B51E107C0AA1FBB1FA61702
:102D4000B70710F0A61BB70B881F991F5A95A9F754
:102D500080959095BC01CD01089597FB092E07261B
:102D60000AD077FD04D0E5DF06D000201AF4709574
:102D700061957F4F0895F6F7909581959F4F08953F
:102D8000A1E21A2EAA1BBB1BFD010DC0AA1FBB1F6F
:102D9000EE1FFF1FA217B307E407F50720F0A21BE1
:102DA000B30BE40BF50B661F771F881F991F1A944E
:102DB00069F760957095809590959B01AC01BD0178
:102DC000CF01089597FB092E05260ED057FD04D09C
:102DD000D7DF0AD0001C38F45095409530952195E6
:102DE0003F4F4F4F5F4F0895F6F790958095709540
:102DF00061957F4F8F4F9F4F08952F923F924F9233
:102E00005F926F927F928F929F92AF92BF92CF927A
:102E1000DF92EF92FF920F931F93CF93DF93CDB783
:102E2000DEB7CA1BDB0B0FB6F894DEBF0FBECDBFFB
:102E300009942A88398848885F846E847D848C84CC
:102E40009B84AA84B984C884DF80EE80FD800C81D5
:102E50001B81AA81B981CE0FD11D0FB6F894DEBFB8
:102E60000FBECDBFED010895EE0FFF1F0590F49149
:082E7000E02D0994F894FFCF56
:102E7800FE0205FF011010000A01010C000000010C
:062E880001FF0229010018
:00000001FF
