:100000000C9434000C94BF050C9451000C945100D6
:100010000C9451000C943B020C9451000C94510030
:100020000C9451000C9451000C9451000C947000ED
:100030000C9451000C9451000C9451000C945100FC
:100040000C9451000C9451000C9414020C94510027
:100050000C9451000C9451000C9451000C945100DC
:100060000C9451000C94510011241FBECFEFD8E026
:10007000DEBFCDBF11E0A0E0B1E0E0E1F7E102C0FA
:1000800005900D92A835B107D9F722E0A8E5B1E0B7
:1000900001C01D92A039B207E1F70E94CA000C947A
:1000A000860B0C940000E1E8F0E080818A60808398
:1000B00083E08093890088EE809388007894EFE64F
:1000C000F0E08081826080830895F89460915E0101
:1000D00070915F0180916001909161017894089521
:1000E0001F920F920FB60F9211248F939F93AF938D
:1000F000BF9380915E0190915F01A0916001B091EA
:1001000061010196A11DB11D80935E0190935F0175
:10011000A0936001B0936101BF91AF919F918F91C6
:100120000F900FBE0F901F901895CF93DF93FC0197
:10013000D081DD2369F0C62F01960E94950021E051
:1001400030E0DC1711F020E030E0820F931F02C096
:1001500080E090E0DF91CF91089590915A0199232A
:10016000B9F0E0915B01E91738F0F0E0E91BF10923
:10017000ED5FFD4F808108C0F0E0E058FF4FE91BC4
:10018000F109ED5FFD4F8081915090935A010895E0
:1001900080E00895CF93DF93CDB7DEB7AF970FB66A
:1001A000F894DEBF0FBECDBFECE7F0E0808187643E
:1001B0008083EAE7F0E080818768808388E180932C
:1001C0006D00E8E6F0E08081846080838AB1877EFC
:1001D0008AB90EE428E040E051EE60E070E080EC87
:1001E00090E00E94760641E264E081EB91E00E949B
:1001F000150480E00E9456038EE10E94D10280E047
:1002000090E00E94E30378941A821982FE013396EB
:1002100082E1DF011D928A95E9F700E010E06E01AE
:10022000B5E1CB0ED11C5E01E5E2AE0EB11CCE01F4
:1002300001964C010F2EF3E06F2EF2E07F2EF02D91
:100240000F2EFAE74F2E512CF02D0F2EFAE02F2E05
:10025000312CF02D0E94C903882381F0F601DF01C3
:10026000AC19BD09AE59BE4F8C918193EA15FB05BF
:10027000B1F7B60180EC90E00E94D00680915A015F
:10028000882371F07401E00EF11E0E94AD00D701C9
:100290008D937D010F5F1F4F80915A018111F5CF22
:1002A000F401E00FF11F1082C8010197439708F095
:1002B000A2C0FE01E00FF11F8081813259F66BE38D
:1002C000C4010E949500029739F063E071E080EC70
:1002D00090E00E94D00680C0BFE7E8E3F1E0B150B3
:1002E000E040F040E1F700C000008BE390E09FA702
:1002F0008EA7BE01625D7F4FC4010E945608009721
:1003000091F08E010B5E1F4FBC01C8010E94660870
:10031000BE01625D7F4F80E090E00E9456080D5F55
:100320001F4F009789F7C6010E9438088430910555
:1003300009F04BC0D2018C9180648C93F2018081D2
:1003400086FDFCCFA8E7B0E06D917C9180E090E065
:100350000E941B0723E333E343E550E40E94A9070F
:1003600020E030E040E85AE30E94A90720E030E0B6
:100370004AE754E40E94A9070E94E5067F936F9321
:10038000E2E3F1E0FF93EF93BF92AF920E949C08EB
:100390003BA62AA6BE01665D7F4F8FE991E00E94D1
:1003A0005B086FE971E080EC90E00E94D00684E683
:1003B000EFE9F1E0DF011D928A95E9F70F900F90C8
:1003C0000F900F900F900F9007C020E043E0BE0108
:1003D000685E7F4F0E94770584E1F40111928A954F
:1003E000E9F780E8D3011D928A95E9F710925A0146
:1003F00000E010E02FCF053111050CF42BCF66E3A0
:1004000071E080EC90E00E94D00680E8F301119248
:100410008A95E9F784E1D4011D928A95E9F7109253
:100420005A0100E010E016CF1F920F920FB60F9204
:1004300011248F939F93EF93FF9380915B01909191
:10044000C600E82FF0E0ED5FFD4F90838F5F1AF05C
:1004500080935B0102C010925B0180915A018F5F13
:1004600080935A01FF91EF919F918F910F900FBE52
:100470000F901F9018951F920F920FB60F92112494
:100480002F933F934F935F936F937F938F939F939C
:10049000AF93BF93EF93FF93CF93DF93CDB7DEB7C7
:1004A0002597DEBFCDBF8FE99FE00197F1F700C030
:1004B00000004B9B11C085E0EEE4F1E0DE011196F7
:1004C00001900D928A95E1F7BE016F5F7F4F8FE932
:1004D00091E00E945B0812C04C9B10C085E0E3E5F0
:1004E000F1E0DE01119601900D928A95E1F7BE01CF
:1004F0006F5F7F4F8FE991E00E945B08DA9A0F905F
:100500000F900F900F900F90DF91CF91FF91EF918F
:10051000BF91AF919F918F917F916F915F914F911B
:100520003F912F910F900FBE0F901F9018958091C3
:100530005D01811101C0789408952A98F894089576
:100540002A9A0E9497020895CF93C82F0E949D0275
:100550008C2F8F770E94700680E00E947006C82F53
:100560000E94A0028C2FCF910895CF93DF93D82FB4
:10057000C62F0E949D028D2F80680E9470068C2FCE
:100580000E9470060E94A002DF91CF910895682F0B
:1005900089E30E94B5020895682F80E30E94B502A6
:1005A0000895CF93C82F80910101813009F4C69539
:1005B00081E10E94A402807E682F6C2B81E10E9461
:1005C000B502CF910895813049F46DE58AE50E9426
:1005D000B5026CE78CE50E94B502089565E58AE5F1
:1005E0000E94B50260E78CE50E94B5020895CF93A2
:1005F00090910201981709F457C0C82F823069F111
:1006000028F48823F1F1813091F14EC08330A1F0BC
:10061000843009F049C081E00E94A402837E682FE3
:100620006C6081E00E94B50280910101882389F10C
:1006300081E00E94E3022DC081E00E94A402837E3B
:10064000682F606181E00E94B502809101018823DA
:1006500001F180E00E94E3021CC081E00E94A4023C
:10066000837E682F686081E00E94B50212C081E03D
:100670000E94A402837E682F646081E00E94B5021C
:1006800008C081E00E94A402682F637E81E00E947E
:10069000B50290910201911105C087E20E94A40267
:1006A0008823BCF7C0930201CF9108958093010184
:1006B000811102C06AE101C06FE083E10E94B502CE
:1006C00080910101813051F481E10E94A4028F7177
:1006D000682F606681E10E94B50208956091000173
:1006E000606881E10E94B5020895813049F461E0BB
:1006F00083E20E94B50283E20E94A40281FFFBCF45
:1007000084E20E94A40290E09195819591099595CB
:1007100087950895CF9380910201833079F4C09139
:100720008D02C1110DC080E00E947503863A9F4F73
:1007300044F481E00E94F702C1E003C0C0E001C0C0
:10074000C0E08C2FCF91089510928C0210928B02F2
:1007500010928F0210928D0210928E0210928802D7
:1007600010928A021092890288E20E94A40282FFFB
:1007700008C08DE30E94A402682F64608DE30E948C
:10078000B50260E485E20E94B50283E00E94F702B0
:100790000895F89480910201833049F480918D028C
:1007A000882329F081E00E94F70281E0089580917A
:1007B0000201833019F4789480E008950E94A40324
:1007C000789480E00895EF92FF920F931F93CF9358
:1007D000DF937C0181E00E94F702E114F10489F0CB
:1007E0000E949D028EEB0E947006E7018701005F68
:1007F0001F4F89910E947006C017D107D1F70E9440
:10080000A0028DE30E94A4028E7F91E0EF2809F4FC
:1008100090E0682F692B8DE30E94B502DF91CF91A4
:100820001F910F91FF90EF900895FF920F931F93E8
:10083000CF93DF93CDB7DEB7AE970FB6F894DEBF98
:100840000FBECDBF062FF42E21E0298334E03A837A
:1008500022E02B831C8223E02D834DE04E833F83D7
:1008600035E0388739872A8726E02B8723E32C87D2
:1008700027E02D878B3321E0920709F4A5C0813B47
:1008800021E0920709F49AC08436934009F0A2C08F
:10089000A7C0888B89E0898B1A8A89E18B8B92E4C7
:1008A0009C8B85E28D8B80E48E8B86E28F8B87E03C
:1008B000888F88E2898F80E18A8F89E28B8F8CED27
:1008C0008C8F8EE28D8F88E88E8F8FE28F8F8DE2F6
:1008D00088A380E389A3FAA227E32BA320E92CA312
:1008E00028E32DA39EA39CE39FA39FE898A79DE3E5
:1008F00099A792E19AA79FE69BA78CA78FEF8DA758
:100900001EA60E946506229A2A9A52985A9804C0F6
:100910006AEA8FE20E94B5028FE20E94A4028A3A3C
:10092000B9F704C065E58FE20E94B5028FE20E942C
:10093000A4028535B9F789818F3FE9F020E030E0E6
:1009400010E0220F331FE1E0F0E0EC0FFD1FE20F9B
:10095000F31F61810E94B5021F5F212F30E0F90172
:10096000EE0FFF1F81E090E08C0F9D1FE80FF91F35
:1009700080818F3F31F780E090E00E94E303809117
:1009800001010E94560381E00E94F70287E20E9463
:10099000A4028823DCF7E9E6F0E0808183608083AD
:1009A000E89A10925D010E94530000938702802F05
:1009B0000E94C7028F2D0E94CC0218C08CE68E8741
:1009C00088E08F8780E465CF8EE48E8788E08F870C
:1009D00080EC5FCF84EE8E8788E08F8780EC59CFE4
:1009E00089ED8E8788E08F8780E053CFAE960FB673
:1009F000F894DEBF0FBECDBFDF91CF911F910F9155
:100A0000FF900895EF92FF920F931F93CF93DF9380
:100A1000C82F7B01142FD22F81E00E94F70287E2BA
:100A20000E94A4028823DCF760E085E20E94B50200
:100A30001E3308F01DE3013021F0D13021F4D0E461
:100A400003C0D0E801C0D0E00E949D0280E80E946F
:100A5000700683E0810F0E9470068C2F0E94700642
:100A6000809187020E9470068D2F0E9470061123CC
:100A700071F0E7011150012F10E00F5F1F4F0E0DB5
:100A80001F1D89910E947006C017D107D1F70E94DF
:100A9000A00284E00E94F7020E9465006093830236
:100AA0007093840280938502909386024A9915C0C0
:100AB0000E946500009183021091840220918502BA
:100AC00030918602DC01CB01801B910BA20BB30B92
:100AD000883E9340A105B10548F381E00E94F702EA
:100AE000DF91CF911F910F91FF90EF900895DF92CA
:100AF000EF92FF920F931F93CF93DF93F82EEB01AA
:100B0000E42ED22E8DE30E94A402682F64608DE350
:100B10000E94B5020E946500609383027093840274
:100B2000809385029093860202C00E94C9030E94AE
:100B30008A03811115C00E94650000918302109103
:100B400084022091850230918602DC01CB01801B5A
:100B5000910BA20BB30B883E9340A105B10528F37E
:100B600000E02D2D4E2DBE018F2D0E940205DF913C
:100B7000CF911F910F91FF90EF90DF9008951F92FA
:100B80000F920FB60F9211240F931F932F933F9341
:100B90004F935F936F937F938F939F93AF93BF9385
:100BA000CF93EF93FF9381E080935D0180910201E9
:100BB000833009F06DC088E20E94A40282FF68C001
:100BC00081E00E94F7020E949D0280E00E94700670
:100BD00080E00E94700680938D0280918D028334A4
:100BE00018F082E480938D0280E00E94700680936A
:100BF0008F0280915C0181110AC090918F028091D7
:100C00008702981721F080918F028F3F21F4809105
:100C10008D02833038F410928D020E94A0020E944F
:100C2000A4033FC080918D02835080938C0280E0AA
:100C30000E94700680938B0280E00E947006982FBD
:100C4000907890938802807480938E0280918C02B9
:100C5000882379F0C0E00C2F10E080E00E9470063D
:100C6000F801EE59FE4F8083CF5F80918C02C81748
:100C700090F380918C028D3330F4E0918C02F0E09F
:100C8000EE59FE4F10820E94A00283E00E94F702FC
:100C900080E00E94750390938A02809389021092EB
:100CA0005D01FF91EF91CF91BF91AF919F918F9196
:100CB0007F916F915F914F913F912F911F910F9174
:100CC0000F900FBE0F901F90189584B1837C84B94C
:100CD00084B18C6284B980E58CBD81E08DBD0895BE
:100CE0008EBD0DB407FEFDCF8EB508950F93CF9343
:100CF000DF93EC01DB01CA018C529140A109B109DB
:100D0000853D904CA140B10508F040C025502430ED
:100D1000E8F580E2888388E98983220F2A830534F5
:100D200021F48A8180628A8305C00F3419F48A8194
:100D300080638A83DB01CA0180589B47A14EBF4F65
:100D4000880F991FAA1FBB1F880F991FAA1FBB1FBF
:100D5000880F991FAA1FBB1F440F551F661F771FBF
:100D6000440F551F661F771F9A01AB01220F331FD7
:100D7000441F551F220F331F441F551FBC01CD01B7
:100D80000E941608215031093D832C83DF91CF91B9
:100D90000F910895FC01908195FFFDCF6683089522
:100DA0000F931F93CF93DF93EB016881662341F08C
:100DB0008C012196C8010E94CA0669916111FACF7F
:100DC000DF91CF911F910F9108950E94EC066894D6
:100DD000B1110C94A30708950E94880788F09F57CB
:100DE00098F0B92F9927B751B0F0E1F0660F771F4F
:100DF000881F991F1AF0BA95C9F714C0B13091F045
:100E00000E94A207B1E008950C94A207672F782FE3
:100E10008827B85F39F0B93FCCF386957795679509
:100E2000B395D9F73EF490958095709561957F4F75
:100E30008F4F9F4F0895E89409C097FB3EF490951B
:100E40008095709561957F4F8F4F9F4F9923A9F0A3
:100E5000F92F96E9BB279395F69587957795679532
:100E6000B795F111F8CFFAF4BB0F11F460FF1BC076
:100E70006F5F7F4F8F4F9F4F16C0882311F096E909
:100E800011C0772321F09EE8872F762F05C06623B7
:100E900071F096E8862F70E060E02AF09A95660F70
:100EA000771F881FDAF7880F9695879597F9089529
:100EB00097F99F6780E870E060E008959FEF80EC0D
:100EC000089500240A9416161706180609060895B0
:100ED00000240A9412161306140605060895092E16
:100EE0000394000C11F4882352F0BB0F40F4BF2B85
:100EF00011F460FF04C06F5F7F4F8F4F9F4F0895C5
:100F000057FD9058440F551F59F05F3F71F04795BA
:100F1000880F97FB991F61F09F3F79F0879508959F
:100F2000121613061406551FF2CF4695F1DF08C0BE
:100F3000161617061806991FF1CF869571056105DB
:100F400008940895E894BB2766277727CB0197F983
:100F500008950E94BC070C946F070E94610738F047
:100F60000E94680720F0952311F00C9458070C9408
:100F70005E0711240C94A3070E94800770F3959FCD
:100F8000C1F3950F50E0551F629FF001729FBB2780
:100F9000F00DB11D639FAA27F00DB11DAA1F649F1C
:100FA0006627B00DA11D661F829F2227B00DA11DCF
:100FB000621F739FB00DA11D621F839FA00D611D55
:100FC000221F749F3327A00D611D231F849F600D76
:100FD000211D822F762F6A2F11249F5750409AF09F
:100FE000F1F088234AF0EE0FFF1FBB1F661F771F2B
:100FF000881F91505040A9F79E3F510580F00C94F6
:1010000058070C94A3075F3FE4F3983ED4F386950A
:1010100077956795B795F795E7959F5FC1F7FE2B95
:10102000880F911D9695879597F90895A1E21A2E3C
:10103000AA1BBB1BFD010DC0AA1FBB1FEE1FFF1F7C
:10104000A217B307E407F50720F0A21BB30BE40BCC
:10105000F50B661F771F881F991F1A9469F7609513
:101060007095809590959B01AC01BD01CF010895CD
:10107000FC0188279927E89421912032E9F329304F
:1010800010F02E30C8F32B3241F02D3239F4689431
:1010900004C00E949408820F911D219120532A3090
:1010A000C0F31EF4909581959F4F089548E551E057
:1010B0000E946D080895FB01DC010D900020E9F706
:1010C000119701900D920020E1F70895FB01DC01DA
:1010D00001900D920020E1F70895FA01A191B081ED
:1010E000009719F41097E1F0CD01DC01CD010D90CE
:1010F000002011F4C00113C0FB012191222319F03B
:101100002015D9F7F3CFFB012191201519F41E9278
:10111000119606C02223C1F70D900020A1F7D0013F
:10112000FA01A193B08308957AE0979F902D879F4D
:10113000802D910D11240895AEE0B0E0E2EAF8E0D0
:101140000C945D0B0D891E8986E08C831A830983BC
:101150008FEF9FE79E838D83AE01475E5F4F6F8960
:10116000788DCE0101960E94BE08EF81F885E00FD0
:10117000F11F10822E96E4E00C94790BABE0B0E006
:10118000E4ECF8E00C944F0B6C017B018A01FC014C
:1011900017821682838181FFCCC1CE0101963C016A
:1011A000F6019381F70193FD859193FF81917F0172
:1011B000882309F4BAC1853239F493FD859193FFF0
:1011C00081917F01853229F4B60190E00E94B50A31
:1011D000E7CF912C212C312CFFE1F315D8F08B3285
:1011E00079F038F4803279F08332A1F4232D206134
:1011F0001DC08D3261F0803369F4232D216016C04B
:10120000832D8260382EE32DE4603E2E2AC0F32D1C
:10121000F8601DC037FC2DC020ED280F2A3040F0AB
:101220008E32B9F436FC81C1232D2064322E19C0D0
:1012300036FE06C08AE0989E200D1124922E11C021
:10124000EAE02E9E200D1124222EF32DF0623F2E77
:1012500008C08C3621F4832D8068382E02C0883671
:1012600041F4F70193FD859193FF81917F018111F5
:10127000B3CF982F9F7D9554933028F40C5F1F4F68
:101280009FE399830DC0833631F0833771F0833546
:1012900009F059C021C0F801808189830E5F1F4F7A
:1012A00088248394912C530113C02801F2E04F0E3F
:1012B000511CF801A080B18036FE03C0692D70E09A
:1012C00002C06FEF7FEFC5010E94AA0A4C018201A4
:1012D000F32DFF773F2E16C0280122E0420E511C4D
:1012E000F801A080B18036FE03C0692D70E002C015
:1012F0006FEF7FEFC5010E949F0A4C01F32DF0684C
:101300003F2E820133FC1BC0822D90E08816990687
:10131000B0F4B60180E290E00E94B50A2A94F4CFBE
:10132000F50137FC859137FE81915F01B60190E0B0
:101330000E94B50A21102A9421E0821A9108811492
:10134000910471F7E8C0843611F0893641F5F8014F
:1013500037FE07C060817181828193810C5F1F4FCE
:1013600008C060817181072E000C880B990B0E5FFD
:101370001F4FF32DFF763F2E97FF09C09095809564
:10138000709561957F4F8F4F9F4FF0683F2E2AE0F9
:1013900030E0A3010E94F10A882E861845C08537E7
:1013A00031F4232D2F7EB22E2AE030E025C0932D7C
:1013B000997FB92E8F36C1F018F4883579F0B5C011
:1013C000803719F0883721F0B0C0E92FE061BE2ED8
:1013D000B4FE0DC0FB2DF460BF2E09C034FE0AC060
:1013E000292F2660B22E06C028E030E005C020E19B
:1013F00030E002C020E132E0F801B7FE07C06081B2
:101400007181828193810C5F1F4F06C06081718161
:1014100080E090E00E5F1F4FA3010E94F10A882E2A
:101420008618FB2DFF773F2E36FE0DC0232D2E7F15
:10143000A22E891458F434FE0BC032FC09C0832D4F
:101440008E7EA82E05C0B82CA32C03C0B82C01C0DA
:10145000B92CA4FE0FC0FE01E80DF11D8081803380
:1014600021F49A2D997EA92E09C0A2FE06C0B3943C
:10147000B39404C08A2D867809F0B394A3FC11C0FC
:10148000A0FE06C0B21488F4280C922C9B180EC043
:10149000B21460F4B60180E290E00E94B50AB39401
:1014A000F7CFB21418F42B1802C0982C212CA4FEEC
:1014B00010C0B60180E390E00E94B50AA2FE17C0FA
:1014C000A1FC03C088E790E002C088E590E0B60187
:1014D0000CC08A2D867859F0A1FE02C08BE201C0B3
:1014E00080E2A7FC8DE2B60190E00E94B50A891463
:1014F00038F4B60180E390E00E94B50A9A94F7CFE1
:101500008A94F301E80DF11D8081B60190E00E94FC
:10151000B50A8110F5CF222009F442CEB60180E24F
:1015200090E00E94B50A2A94F6CFF6018681978151
:1015300002C08FEF9FEF2B96E2E10C946B0BFC0146
:101540000590615070400110D8F7809590958E0FEE
:101550009F1F0895FC016150704001900110D8F761
:10156000809590958E0F9F1F08950F931F93CF9393
:10157000DF93FB01238121FD03C08FEF9FEF2CC080
:1015800022FF16C0468157812481358142175307B7
:1015900044F4A081B1819D012F5F3F4F31832083AF
:1015A0008C93268137812F5F3F4F3783268314C06A
:1015B0008B01EC01FB010084F185E02D0995892B5D
:1015C000E1F6D80116968D919C9117970196179682
:1015D0009C938E931697CE01DF91CF911F910F911F
:1015E0000895FA01AA27283051F1203181F1E894B9
:1015F0006F936E7F6E5F7F4F8F4F9F4FAF4FB1E006
:101600003ED0B4E03CD0670F781F891F9A1FA11D00
:10161000680F791F8A1F911DA11D6A0F711D811D01
:10162000911DA11D20D009F468943F912AE0269FC6
:1016300011243019305D3193DEF6CF010895462F25
:101640004770405D4193B3E00FD0C9F7F6CF462F06
:101650004F70405D4A3318F0495D31FD405241936F
:1016600002D0A9F7EACFB4E0A6959795879577952C
:101670006795BA95C9F700976105710508959B01B3
:10168000AC010A2E06945795479537952795BA953C
:10169000C9F7620F731F841F951FA01D08952F9215
:1016A0003F924F925F926F927F928F929F92AF92F2
:1016B000BF92CF92DF92EF92FF920F931F93CF933F
:1016C000DF93CDB7DEB7CA1BDB0B0FB6F894DEBFD6
:1016D0000FBECDBF09942A88398848885F846E84FC
:1016E0007D848C849B84AA84B984C884DF80EE8046
:1016F000FD800C811B81AA81B981CE0FD11D0FB64F
:10170000F894DEBF0FBECDBFED010895F894FFCF72
:101710001F01014572726F723A2057726F6E672017
:10172000666F726D6174203C536C61766549643BF1
:101730004E6574776F726B3B52572C446174613EF7
:101740000A0025640A004572726F723A207374723F
:10175000696E6720746F6F206C6F6E670A002433A8
:081760003B2D0024333B2B005C
:00000001FF
