:100000000C9434000C94EE030C9451000C945100A9
:100010000C9451000C9451000C9451000C9451001C
:100020000C9451000C9451000C9451000C947000ED
:100030000C9451000C9451000C9451000C945100FC
:100040000C9451000C9451000C9451000C945100EC
:100050000C9451000C9451000C9451000C945100DC
:100060000C9451000C94510011241FBECFEFD8E026
:10007000DEBFCDBF11E0A0E0B1E0E0E7FAE002C0F2
:1000800005900D92A631B107D9F721E0A6E1B1E0C4
:1000900001C01D92A636B207E1F70E9495000C94AC
:1000A00036050C940000E1E8F0E080818A608083EE
:1000B00083E08093890088EE809388007894EFE64F
:1000C000F0E08081826080830895F8946091180147
:1000D0007091190180911A0190911B0178940895F3
:1000E0001F920F920FB60F9211248F939F93AF938D
:1000F000BF938091180190911901A0911A01B091BC
:100100001B010196A11DB11D809318019093190147
:10011000A0931A01B0931B01BF91AF919F918F9152
:100120000F900FBE0F901F90189541E263E081EB96
:1001300091E00E94440280E00E9485018EE10E94CD
:10014000000180E090E00E9412020EE428E040E806
:1001500055E260E070E080EC90E00E94A50463E06E
:1001600071E080EC90E00E94FF0420E048E06DE048
:1001700071E084E00E94A6032FEF83ED90E321500D
:1001800080409040E1F700C00000E9CF8091170166
:10019000811101C0789408952A98F89408952A9AB4
:1001A0000E94C6000895CF93C82F0E94CC008C2FC8
:1001B0008F770E949F0480E00E949F04C82F0E94B6
:1001C000CF008C2FCF910895CF93DF93D82FC62FD8
:1001D0000E94CC008D2F80680E949F048C2F0E946B
:1001E0009F040E94CF00DF91CF910895682F89E38B
:1001F0000E94E4000895682F80E30E94E4000895BF
:10020000CF93C82F80910101813009F4C69581E117
:100210000E94D300807E682F6C2B81E10E94E40055
:10022000CF910895813049F46DE58AE50E94E4009C
:100230006CE78CE50E94E400089565E58AE50E947C
:10024000E40060E78CE50E94E4000895CF9390916C
:100250000201981709F457C0C82F823069F128F4B9
:100260008823F1F1813091F14EC08330A1F08430C8
:1002700009F049C081E00E94D300837E682F6C6042
:1002800081E00E94E40080910101882389F181E0EE
:100290000E9412012DC081E00E94D300837E682F4E
:1002A000606181E00E94E40080910101882301F1F6
:1002B00080E00E9412011CC081E00E94D300837E76
:1002C000682F686081E00E94E40012C081E00E9413
:1002D000D300837E682F646081E00E94E40008C040
:1002E00081E00E94D300682F637E81E00E94E400D9
:1002F00090910201911105C087E20E94D3008823EA
:10030000BCF7C0930201CF91089580930101811140
:1003100002C06AE101C06FE083E10E94E4008091C5
:100320000101813051F481E10E94D3008F71682F67
:10033000606681E10E94E4000895609100016068B8
:1003400081E10E94E4000895813049F461E083E294
:100350000E94E40083E20E94D30081FFFBCF84E28D
:100360000E94D30090E0919581959109959587958C
:100370000895CF9380910201833079F4C091630195
:10038000C1110DC080E00E94A401863A9F4F44F441
:1003900081E00E942601C1E003C0C0E001C0C0E0CE
:1003A0008C2FCF91089510926201109261011092EA
:1003B0006501109263011092640110925E01109227
:1003C000600110925F0188E20E94D30082FF08C0A2
:1003D0008DE30E94D300682F64608DE30E94E400E7
:1003E00060E485E20E94E40083E00E942601089513
:1003F000F89480910201833049F48091630188234D
:1004000029F081E00E94260181E008958091020197
:10041000833019F4789480E008950E94D301789491
:1004200080E00895EF92FF920F931F93CF93DF9395
:100430007C0181E00E942601E114F10489F00E9410
:10044000CC008EEB0E949F04E7018701005F1F4FE5
:1004500089910E949F04C017D107D1F70E94CF0055
:100460008DE30E94D3008E7F91E0EF2809F490E0A5
:10047000682F692B8DE30E94E400DF91CF911F91DB
:100480000F91FF90EF900895FF920F931F93CF93DA
:10049000DF93CDB7DEB7AE970FB6F894DEBF0FBED1
:1004A000CDBF062FF42E21E0298334E03A8322E0E9
:1004B0002B831C8223E02D834DE04E833F8335E068
:1004C000388739872A8726E02B8723E32C8727E084
:1004D0002D878B3321E0920709F4A5C0813B21E0F1
:1004E000920709F49AC08436934009F0A2C0A7C0CD
:1004F000888B89E0898B1A8A89E18B8B92E49C8BAB
:1005000085E28D8B80E48E8B86E28F8B87E0888FEF
:1005100088E2898F80E18A8F89E28B8F8CED8C8FC6
:100520008EE28D8F88E88E8F8FE28F8F8DE288A389
:1005300080E389A3FAA227E32BA320E92CA328E3D5
:100540002DA39EA39CE39FA39FE898A79DE399A753
:1005500092E19AA79FE69BA78CA78FEF8DA71EA677
:100560000E949404229A2A9A52985A9804C06AEADD
:100570008FE20E94E4008FE20E94D3008A3AB9F72A
:1005800004C065E58FE20E94E4008FE20E94D30080
:100590008535B9F789818F3FE9F020E030E010E040
:1005A000220F331FE1E0F0E0EC0FFD1FE20FF31F1D
:1005B00061810E94E4001F5F212F30E0F901EE0FFE
:1005C000FF1F81E090E08C0F9D1FE80FF91F8081D5
:1005D0008F3F31F780E090E00E941202809101018C
:1005E0000E94850181E00E94260187E20E94D300DB
:1005F0008823DCF7E9E6F0E0808183608083E89A75
:10060000109217010E94530000935D01802F0E94F9
:10061000F6008F2D0E94FB0018C08CE68E8788E0C4
:100620008F8780E465CF8EE48E8788E08F8780ECAB
:100630005FCF84EE8E8788E08F8780EC59CF89ED7D
:100640008E8788E08F8780E053CFAE960FB6F89400
:10065000DEBF0FBECDBFDF91CF911F910F91FF90F5
:100660000895EF92FF920F931F93CF93DF93C82FBC
:100670007B01142FD22F81E00E94260187E20E9485
:10068000D3008823DCF760E085E20E94E4001E339B
:1006900008F01DE3013021F0D13021F4D0E403C093
:1006A000D0E801C0D0E00E94CC0080E80E949F0406
:1006B00083E0810F0E949F048C2F0E949F048091F1
:1006C0005D010E949F048D2F0E949F04112371F0F1
:1006D000E7011150012F10E00F5F1F4F0E0D1F1D7E
:1006E00089910E949F04C017D107D1F70E94CF00C3
:1006F00084E00E9426010E94650060935901709376
:100700005A0180935B0190935C014A9915C00E9445
:1007100065000091590110915A0120915B013091BF
:100720005C01DC01CB01801B910BA20BB30B883E5B
:100730009340A105B10548F381E00E942601DF91B5
:10074000CF911F910F91FF90EF900895DF92EF925C
:10075000FF920F931F93CF93DF93F82EEB01E42EBC
:10076000D22E8DE30E94D300682F64608DE30E9437
:10077000E4000E9465006093590170935A018093D0
:100780005B0190935C0102C00E94F8010E94B901D4
:10079000811115C00E9465000091590110915A0104
:1007A00020915B0130915C01DC01CB01801B910B3E
:1007B000A20BB30B883E9340A105B10528F300E0DE
:1007C0002D2D4E2DBE018F2D0E943103DF91CF9133
:1007D0001F910F91FF90EF90DF9008951F920F925D
:1007E0000FB60F9211240F931F932F933F934F93A4
:1007F0005F936F937F938F939F93AF93BF93CF93A9
:10080000EF93FF9381E08093170180910201833081
:1008100009F06DC088E20E94D30082FF68C081E0C9
:100820000E9426010E94CC0080E00E949F0480E08C
:100830000E949F048093630180916301833418F0C8
:1008400082E48093630180E00E949F0480936501AD
:100850008091160181110AC09091650180915D011E
:10086000981721F0809165018F3F21F480916301F9
:10087000833038F4109263010E94CF000E94D301AC
:100880003FC08091630183508093620180E00E94A9
:100890009F048093610180E00E949F04982F9078CC
:1008A00090935E018074809364018091620188233B
:1008B00079F0C0E00C2F10E080E00E949F04F80166
:1008C000E45EFE4F8083CF5F80916201C81790F392
:1008D000809162018D3330F4E0916201F0E0E45EDA
:1008E000FE4F10820E94CF0083E00E94260180E02C
:1008F0000E94A4019093600180935F011092170100
:10090000FF91EF91CF91BF91AF919F918F917F9187
:100910006F915F914F913F912F911F910F910F9088
:100920000FBE0F901F90189584B1837C84B984B159
:100930008C6284B980E58CBD81E08DBD08958EBD4B
:100940000DB407FEFDCF8EB508950F93CF93DF93BF
:10095000EC01DB01CA018C529140A109B109853D2E
:10096000904CA140B10508F040C025502430E8F576
:1009700080E2888388E18983220F2A83053421F469
:100980008A8180628A8305C00F3419F48A8180636A
:100990008A83DB01CA0180589B47A14EBF4F880F55
:1009A000991FAA1FBB1F880F991FAA1FBB1F880F63
:1009B000991FAA1FBB1F440F551F661F771F440FA7
:1009C000551F661F771F9A01AB01220F331F441F6B
:1009D000551F220F331F441F551FBC01CD010E941C
:1009E0001405215031093D832C83DF91CF910F9164
:1009F0000895FC01908195FFFDCF668308950F93C4
:100A00001F93CF93DF93EB016881662341F08C0144
:100A10002196C8010E94F90469916111FACFDF9112
:100A2000CF911F910F910895A1E21A2EAA1BBB1B13
:100A3000FD010DC0AA1FBB1FEE1FFF1FA217B307AA
:100A4000E407F50720F0A21BB30BE40BF50B661FC0
:100A5000771F881F991F1A9469F760957095809584
:100A600090959B01AC01BD01CF010895F894FFCF93
:100A70001F010153656E74206461746100417765E4
:060A8000736F6D6521009B
:00000001FF
