:100000000C9434000C94B6010C9451000C945100E3
:100010000C9451000C9451000C9451000C9451001C
:100020000C9451000C9451000C9451000C9453000A
:100030000C9451000C9451000C9451000C945100FC
:100040000C9451000C9451000C9451000C945100EC
:100050000C9451000C9451000C9451000C945100DC
:100060000C9451000C94510011241FBECFEFD8E026
:10007000DEBFCDBF11E0A0E0B1E0E2EDFBE002C0E9
:1000800005900D92AA32B107D9F721E0AAE2B1E0BA
:1000900001C01D92AA37B207E1F70E9478000C94C4
:1000A000E7050C9400001F920F920FB60F921124D7
:1000B0008F939F93AF93BF9380912C0190912D01CB
:1000C000A0912E01B0912F010196A11DB11D809329
:1000D0002C0190932D01A0932E01B0932F01BF917D
:1000E000AF919F918F910F900FBE0F901F90189519
:1000F000CF93DF93CDB7DEB72A970FB6F894DEBF64
:100100000FBECDBF0EE428E040E855E260E070E0AD
:1001100080EC90E00E94620262E071E080EC90E08E
:100120000E94C6020F2EFAE0DF2EF02D8E010F5F27
:100130001F4F0F2EF7E2EF2EF1E0FF2EF02D80EC97
:1001400090E00E94B6028823D1F380EC90E00E94F8
:10015000BA028B3239F463E171E080EC90E00E94E6
:10016000C602EDCF8D3239F46DE171E080EC90E0A4
:100170000E94C602E4CF282F30E022513140F9F22C
:10018000F8019D2D11929A95E9F71F928F93FF9296
:10019000EF921F930F930E94FD02B80180EC90E054
:1001A0000E94C6020F900F900F900F900F900F902B
:1001B000C6CF80912B01811101C0789408952A98AF
:1001C000F89408952A9A0E94D9000895CF93C82FD1
:1001D0000E94DF008C2F8F770E945C0280E00E94DB
:1001E0005C02C82F0E94E2008C2FCF910895CF931C
:1001F000DF93D82FC62F0E94DF008D2F80680E94CA
:100200005C028C2F0E945C020E94E200DF91CF9181
:100210000895813049F46DE58AE50E94F7006CE7A6
:100220008CE50E94F700089565E58AE50E94F700D5
:1002300060E78CE50E94F7000895CF93909101014B
:10024000981709F457C0C82F823069F128F4882321
:10025000F1F1813091F14EC08330A1F0843009F08A
:1002600049C081E00E94E600837E682F6C6081E0D7
:100270000E94F70080910001882389F181E00E94AB
:1002800009012DC081E00E94E600837E682F606135
:1002900081E00E94F70080910001882301F180E055
:1002A0000E9409011CC081E00E94E600837E682F45
:1002B000686081E00E94F70012C081E00E94E600C1
:1002C000837E682F646081E00E94F70008C081E0AF
:1002D0000E94E600682F637E81E00E94F700909103
:1002E0000101911105C087E20E94E6008823BCF756
:1002F000C0930101CF910895813049F461E083E218
:100300000E94F70083E20E94E60081FFFBCF84E2B7
:100310000E94E60090E091958195910995958795C9
:100320000895109276011092750110927901109241
:10033000770110927801109272011092740110925C
:10034000730188E20E94E60082FF08C08DE30E94EC
:10035000E600682F64608DE30E94F70060E485E2A8
:100360000E94F70083E00E941D0108951F920F92E2
:100370000FB60F9211240F931F932F933F934F9318
:100380005F936F937F938F939F93AF93BF93CF931D
:10039000EF93FF9381E080932B01809101018330E3
:1003A00009F06DC088E20E94E60082FF68C081E02B
:1003B0000E941D010E94DF0080E00E945C0280E03C
:1003C0000E945C028093770180917701833418F05A
:1003D00082E48093770180E00E945C02809379013F
:1003E00080912A0181110AC0909179018091710157
:1003F000981721F0809179018F3F21F48091770146
:10040000833038F4109277010E94E2000E9491013B
:100410003FC08091770183508093760180E00E94F5
:100420005C028093750180E00E945C02982F9078B6
:100430009093720180748093780180917601882373
:1004400079F0C0E00C2F10E080E00E945C02F8011F
:10045000E05DFE4F8083CF5F80917601C81790F3F7
:10046000809176018D3330F4E0917601F0E0E05D2B
:10047000FE4F10820E94E20083E00E941D0180E096
:100480000E947C01909374018093730110922B0160
:10049000FF91EF91CF91BF91AF919F918F917F91FC
:1004A0006F915F914F913F912F911F910F910F90FD
:1004B0000FBE0F901F9018958EBD0DB407FEFDCF97
:1004C0008EB508950F93CF93DF93EC01DB01CA0142
:1004D0008C529140A109B109853D904CA140B105D4
:1004E00008F040C025502430E8F580E2888388E198
:1004F0008983220F2A83053421F48A8180628A83CA
:1005000005C00F3419F48A8180638A83DB01CA0134
:1005100080589B47A14EBF4F880F991FAA1FBB1F32
:10052000880F991FAA1FBB1F880F991FAA1FBB1FE7
:10053000440F551F661F771F440F551F661F771FF7
:100540009A01AB01220F331F441F551F220F331F87
:10055000441F551FBC01CD010E94DB02215031090F
:100560003D832C83DF91CF910F910895FC01808111
:1005700080780895FC0190819923ECF78681089595
:10058000FC01908195FFFDCF668308950F931F9323
:10059000CF93DF93EB016881662341F08C012196B4
:1005A000C8010E94C00269916111FACFDF91CF9119
:1005B0001F910F910895A1E21A2EAA1BBB1BFD01EA
:1005C0000DC0AA1FBB1FEE1FFF1FA217B307E40732
:1005D000F50720F0A21BB30BE40BF50B661F771F8A
:1005E000881F991F1A9469F760957095809590956A
:1005F0009B01AC01BD01CF010895AEE0B0E0E3E0A6
:10060000F3E00C94BE050D891E8986E08C831A8365
:1006100009838FEF9FE79E838D83AE01475E5F4F17
:100620006F89788DCE0101960E941F03EF81F885B6
:10063000E00FF11F10822E96E4E00C94DA05ABE097
:10064000B0E0E5E2F3E00C94B0056C017B018A01B7
:10065000FC0117821682838181FFCCC1CE010196F5
:100660003C01F6019381F70193FD859193FF819100
:100670007F01882309F4BAC1853239F493FD85914D
:1006800093FF81917F01853229F4B60190E00E94A9
:100690001605E7CF912C212C312CFFE1F315D8F072
:1006A0008B3279F038F4803279F08332A1F4232D43
:1006B00020611DC08D3261F0803369F4232D2160EB
:1006C00016C0832D8260382EE32DE4603E2E2AC0B2
:1006D000F32DF8601DC037FC2DC020ED280F2A3007
:1006E00040F08E32B9F436FC81C1232D2064322EC5
:1006F00019C036FE06C08AE0989E200D1124922E65
:1007000011C0EAE02E9E200D1124222EF32DF0625E
:100710003F2E08C08C3621F4832D8068382E02C00D
:10072000883641F4F70193FD859193FF81917F0114
:100730008111B3CF982F9F7D9554933028F40C5F8F
:100740001F4F9FE399830DC0833631F0833771F0DB
:10075000833509F059C021C0F801808189830E5F7B
:100760001F4F88248394912C530113C02801F2E079
:100770004F0E511CF801A080B18036FE03C0692DD8
:1007800070E002C06FEF7FEFC5010E940B054C01C6
:100790008201F32DFF773F2E16C0280122E0420E82
:1007A000511CF801A080B18036FE03C0692D70E0B5
:1007B00002C06FEF7FEFC5010E9400054C01F32DD1
:1007C000F0683F2E820133FC1BC0822D90E088161A
:1007D0009906B0F4B60180E290E00E9416052A94D2
:1007E000F4CFF50137FC859137FE81915F01B601A9
:1007F00090E00E94160521102A9421E0821A9108A7
:100800008114910471F7E8C0843611F0893641F5FE
:10081000F80137FE07C060817181828193810C5F8E
:100820001F4F08C060817181072E000C880B990B47
:100830000E5F1F4FF32DFF763F2E97FF09C0909557
:100840008095709561957F4F8F4F9F4FF0683F2E39
:100850002AE030E0A3010E945205882E861845C088
:10086000853731F4232D2F7EB22E2AE030E025C0CB
:10087000932D997FB92E8F36C1F018F4883579F011
:10088000B5C0803719F0883721F0B0C0E92FE0619A
:10089000BE2EB4FE0DC0FB2DF460BF2E09C034FE89
:1008A0000AC0292F2660B22E06C028E030E005C01D
:1008B00020E130E002C020E132E0F801B7FE07C0DD
:1008C00060817181828193810C5F1F4F06C06081BE
:1008D000718180E090E00E5F1F4FA3010E945205DE
:1008E000882E8618FB2DFF773F2E36FE0DC0232D58
:1008F0002E7FA22E891458F434FE0BC032FC09C09E
:10090000832D8E7EA82E05C0B82CA32C03C0B82C36
:1009100001C0B92CA4FE0FC0FE01E80DF11D8081BD
:10092000803321F49A2D997EA92E09C0A2FE06C01B
:10093000B394B39404C08A2D867809F0B394A3FCD1
:1009400011C0A0FE06C0B21488F4280C922C9B188B
:100950000EC0B21460F4B60180E290E00E94160569
:10096000B394F7CFB21418F42B1802C0982C212C92
:10097000A4FE10C0B60180E390E00E941605A2FE1E
:1009800017C0A1FC03C088E790E002C088E590E0B2
:10099000B6010CC08A2D867859F0A1FE02C08BE208
:1009A00001C080E2A7FC8DE2B60190E00E9416052E
:1009B000891438F4B60180E390E00E9416059A94F9
:1009C000F7CF8A94F301E80DF11D8081B60190E024
:1009D0000E9416058110F5CF222009F442CEB601FF
:1009E00080E290E00E9416052A94F6CFF6018681F7
:1009F000978102C08FEF9FEF2B96E2E10C94CC051C
:100A0000FC010590615070400110D8F780959095D9
:100A10008E0F9F1F0895FC016150704001900110DE
:100A2000D8F7809590958E0F9F1F08950F931F9371
:100A3000CF93DF93FB01238121FD03C08FEF9FEF55
:100A40002CC022FF16C04681578124813581421770
:100A5000530744F4A081B1819D012F5F3F4F318343
:100A600020838C93268137812F5F3F4F37832683E6
:100A700014C08B01EC01FB010084F185E02D099588
:100A8000892BE1F6D80116968D919C9117970196C6
:100A900017969C938E931697CE01DF91CF911F915D
:100AA0000F910895FA01AA27283051F1203181F1E0
:100AB000E8946F936E7F6E5F7F4F8F4F9F4FAF4F66
:100AC000B1E03ED0B4E03CD0670F781F891F9A1F79
:100AD000A11D680F791F8A1F911DA11D6A0F711D2D
:100AE000811D911DA11D20D009F468943F912AE039
:100AF000269F11243019305D3193DEF6CF01089521
:100B0000462F4770405D4193B3E00FD0C9F7F6CF51
:100B1000462F4F70405D4A3318F0495D31FD405219
:100B2000419302D0A9F7EACFB4E0A69597958795AF
:100B300077956795BA95C9F700976105710508958E
:100B40009B01AC010A2E069457954795379527953A
:100B5000BA95C9F7620F731F841F951FA01D0895D2
:100B60002F923F924F925F926F927F928F929F92BD
:100B7000AF92BF92CF92DF92EF92FF920F931F93AB
:100B8000CF93DF93CDB7DEB7CA1BDB0B0FB6F8945C
:100B9000DEBF0FBECDBF09942A88398848885F849C
:100BA0006E847D848C849B84AA84B984C884DF800D
:100BB000EE80FD800C811B81AA81B981CE0FD11DF1
:100BC0000FB6F894DEBF0FBECDBFED010895F894C7
:020BD000FFCF55
:100BD2000101526561647920666F7220696E7075D9
:100BE200740A00496E6372656D656E7400446563D4
:0A0BF20072656D656E7400256300E6
:00000001FF
