:100000000C9464000C9481000C9429130C94EB0F55
:100010000C9481000C945C170C9481000C9481006A
:100020000C9481000C9481000C9481000C9481004C
:100030000C9481000C9481000C9481000C9481003C
:100040000C9481000C9481000C9481000C9481002C
:100050000C9481000C9481000C941A0C3F065B4FA9
:10006000666D7D077F6F777C395E79716354737637
:1000700030084001484111495054105C0033273882
:1000800028241F1B02031B1918000100020304058A
:10009000060708090A3935423E0C0D0E0F101112E1
:1000A0001314151F1C1F1E1F1E1F1F1E1F1E1F00A7
:1000B000001F003B005A0078009700B500D400F301
:1000C00000110130014E010011241FBECFEFD4E01A
:1000D000DEBFCDBF11E0A0E0B1E0E6EEF2E302C08A
:1000E00005900D92A432B107D9F721E0A4E2B1E066
:1000F00001C01D92AD3FB207E1F70E941D0D0C94A7
:1001000071190C940000CF93DF93CDB7DEB78EE169
:100110000E94FE0190936301809362010000DF91D1
:10012000CF910895CF93DF93CDB7DEB781E390E011
:1001300021E330E0F90120812860FC01208382E086
:100140000E94FE0190933F0180933E0181E390E085
:1001500021E330E0F9012081277FFC0120830000AA
:10016000DF91CF910895CF93DF9300D000D0CDB72A
:10017000DEB780913E0190913F010E942801DC0191
:10018000CB0189839A83AB83BC8389819A81AB81BC
:10019000BC8181159048AF4FBF4F1CF480E090E8C0
:1001A0000EC089819A81AB81BC8181159048A105DF
:1001B000B1051CF08FEF9FE702C089819A810F90F3
:1001C0000F900F900F90DF91CF910895CF93DF9311
:1001D000CDB7DEB780913E0190913F01DF91CF9185
:1001E0000895CF93DF9300D000D0CDB7DEB780E085
:1001F00090E3A1E1B0E089839A83AB83BC838091D3
:100200006201909163019C0140E050E089819A81F4
:10021000AB81BC81BC01CD010E94AE18DA01C901DD
:1002200089839A83AB83BC8389819A810F900F90D5
:100230000F900F90DF91CF910895CF93DF93CDB7BB
:10024000DEB78091620190916301DF91CF910895B3
:10025000EF92FF920F931F93CF93DF93CDB7DEB74B
:1002600027970FB6F894DEBF0FBECDBF9F838E8356
:1002700081E0898312C08981882F90E0880F991FBF
:100280008F5F9E4FFC01208131818E819F8182177B
:10029000930748F089818F5F89838091000199815C
:1002A000981748F301C000008981882F90E0880FDB
:1002B000991F815F9E4FFC01808191819C0140E0EC
:1002C00050E08981882F90E00197880F991F815F06
:1002D0009E4FFC0180819181CC01A0E0B0E07901CA
:1002E0008A01E81AF90A0A0B1B0BD801C7018A8395
:1002F0009B83AC83BD838E819F819C0140E050E055
:100300008981882F90E00197880F991F8F5F9E4FFA
:10031000FC0180819181CC01A0E0B0E079018A01EB
:10032000E81AF90A0A0B1B0BD801C7012A813B8185
:100330004C815D81BC01CD010E947618DC01CB01AE
:100340008A839B83AC83BD838981882F90E0880F4B
:10035000991F8F5F9E4FFC01808191819C0140E03D
:1003600050E08981882F90E00197880F991F8F5F57
:100370009E4FFC0180819181CC01A0E0B0E0281B60
:10038000390B4A0B5B0B8A819B81AC81BD81BC011F
:10039000CD010E94D018DA01C9018A839B83AC8306
:1003A000BD838981882F90E00197880F991F815F15
:1003B0009E4FFC0180819181CC01A0E0B0E02A81B8
:1003C0003B814C815D81820F931FA41FB51F8A83DF
:1003D0009B83AC83BD838A819B81AC81BD81BC0141
:1003E000CD0127960FB6F894DEBF0FBECDBFDF91CB
:1003F000CF911F910F91FF90EF900895CF93DF93CE
:1004000000D000D0CDB7DEB78C838AE790E02AE732
:1004100030E0F90120812068FC0120838CE790E026
:100420002C81FC0120838CE790E02CE730E0F9017F
:1004300020812064FC01208319822DC08AE790E08E
:100440002AE730E0F90120812064FC0120830000CC
:100450008AE790E0FC018081882F90E080749927E2
:10046000892BB1F788E790E0FC018081882F90E02C
:100470009B838A8389E790E0FC018081882F90E04C
:10048000982F88272A813B81820F931F9B838A8321
:1004900089818F5F89838981823080F28AE790E049
:1004A0002AE730E0F90120812F77FC0120838A813F
:1004B0009B810F900F900F900F90DF91CF91089537
:1004C0002F923F924F925F926F927F928F929F9264
:1004D000AF92BF92CF92DF92EF92FF920F931F9352
:1004E000CF93DF93CDB7DEB762970FB6F894DEBF38
:1004F0000FBECDBF00912401109125010E94B300D1
:100500009C01C801880F991F8E5B9E4FFC013183AF
:1005100020838091240190912501019690932501DB
:100520008093240180912401909125018F7090780F
:10053000992324F40197806F9F6F01969093250172
:1005400080932401809126019091270140974CF4DB
:100550008091260190912701019690932701809325
:10056000260119821A821B821C821D821E821F8212
:1005700018861A8619863BC089859A85880F991F27
:100580008E5B9E4FFC01808191819C878B87892F98
:10059000880F880B8D878E878F87888B898B8A8BB6
:1005A0002B853C854D855E856F85788989899A89FB
:1005B000A980BA80CB80DC80ED80FE800F81188519
:1005C0000E946819A22EB32EC42ED52EE62EF72E29
:1005D000082F192FA982BA82CB82DC82ED82FE829B
:1005E0000F83188789859A8501969A8789878091D4
:1005F00026019091270129853A85281739070CF49F
:10060000BBCF80912601909127011C01892F880F73
:10061000880B482E582E682E782E882E982EA22CC5
:10062000B32CC42CD52CE62CF72C082D192D2981A0
:100630003A814B815C816D817E818F8198850E949A
:100640000B19A22EB32EC42ED52EE62EF72E082F70
:10065000192F2A2D3B2D4C2D5D2D6E2D7F2D802F9A
:10066000912FC90162960FB6F894DEBF0FBECDBFC1
:10067000DF91CF911F910F91FF90EF90DF90CF907E
:10068000BF90AF909F908F907F906F905F904F90B2
:100690003F902F9008951F93CF93DF9300D000D009
:1006A00000D0CDB7DEB78E838E81882321F4809170
:1006B0002901882319F59091290181E0992309F4F2
:1006C00080E00E940F188C838C818823B9F08C8184
:1006D0008093290180911E01882381F08091290156
:1006E0008093280180912101882344F4909128016E
:1006F00080911D01981711F01092210180911F0126
:1007000090912001892B49F080911F019091200147
:1007100001979093200180931F0180912101181669
:1007200034F48091210181508093210186C0809111
:100730001F0190912001892B29F0809121018823AC
:1007400009F07BC0809128018A3020F080912A0135
:10075000882319F08AE0898303C080912801898366
:1007600090911D0181E02981291709F480E08D8392
:100770008D81882339F480911F0190912001892B6C
:1007800009F058C080EF90E09093200180931F0102
:1007900089818D3318F080E58A8319C010916F012B
:1007A0000E94600299230CF4019695958795BC01EF
:1007B0008981882F90E042E3489F9001499F300D46
:1007C0001124C9012D81412F0E9487048A838981C8
:1007D00080931D011B8228C08D81882331F48A817A
:1007E000813518F08A818E3150F08B81082E000CF3
:1007F000990B81599E4F2A81FC01208312C08B8165
:10080000082E000C990B2B81022E000C330B21506B
:10081000310921593E4FF901208181599E4FFC0138
:1008200020838B8181508B838B811816ACF28A8157
:1008300080936F018FEF80932101000026960FB601
:10084000F894DEBF0FBECDBFDF91CF911F91089509
:10085000CF93DF931F92CDB7DEB7898390912801A4
:100860008981890F8093280180912801893020F4A3
:1008700089E08093280107C0809128018E3318F009
:100880008DE38093280110922A0189E08093210151
:1008900000000F90DF91CF910895CF93DF9300D0A8
:1008A000CDB7DEB79A838983209136013091370125
:1008B000C901880F991F820F931F9C0136952795B8
:1008C0003695279589819A8182179307A0F08981AF
:1008D0009A814F9780F08091380190913901A091D1
:1008E0003A01B0913B0180932B0190932C01A0938E
:1008F0002D01B0932E018FEF9FEF909337018093DE
:10090000360100000F900F90DF91CF910895EF9284
:10091000FF920F931F93CF93DF93CDB7DEB7659709
:100920000FB6F894DEBF0FBECDBF998B888B7B8B43
:100930006A8B4C8B2D8B288939898A899B89A901DF
:10094000481B590BCA019A83898389819A81813B0B
:1009500094402CF080EB94E09A83898309C08981CC
:100960009A8180359B4F24F480E59BEF9A8389839D
:1009700089819A8199231CF49195819591099E838F
:100980008D838D89882331F188E2809364018EE123
:100990008093650186E08093700180913001909191
:1009A00031010E944D048D819E8190933701809387
:1009B000360180912B0190912C01A0912D01B091D5
:1009C0002E018093380190933901A0933A01B0939E
:1009D0003B01A5C080917001882309F086C08091F9
:1009E0006501882331F08091650181508093650114
:1009F00002C01092640189819A81992334F081E0C8
:100A00009C89903538F080E005C081E09C899F3159
:100A100008F480E0882309F45FC080912F01282F1B
:100A200030E089819A81892F992780789927281722
:100A3000390769F42D813E81809132019091330113
:100A40002817390759F48D819E8140973CF488E23C
:100A5000809364018EE1809365011EC080916401E2
:100A60001816D4F52D813E81809132019091330189
:100A70002817390788F180916401482F8D819E8164
:100A800029E130E0B9010E949A18CB01542F581B7C
:100A9000852F81508093640189819A81880F991FE5
:100AA000880F991F880F991F9C01990F440B550BB4
:100AB00080912B0190912C01A0912D01B0912E01DC
:100AC000820F931FA41FB51F80932B0190932C01BD
:100AD000A0932D01B0932E0180916401181654F05B
:100AE0008D819E810E944D0405C0809170018150CE
:100AF0008093700180913001909131019093330186
:100B0000809332018D819E819093310180933001D9
:100B100089819A81892F9927807880932F018A89EA
:100B20009B89909335018093340180E090E9A1E0A6
:100B3000B0E08F839887A987BA8720912B013091E5
:100B40002C0140912D0150912E018F819885A9850E
:100B5000BA8582179307A407B5076CF48F8198852F
:100B6000A985BA8580932B0190932C01A0932D0128
:100B7000B0932E012BC08F819885A985BA85222735
:100B80003327A901281B390B4A0B5B0B80912B01E2
:100B900090912C01A0912D01B0912E018217930705
:100BA000A407B5079CF48F819885A985BA85B0956F
:100BB000A095909581959F4FAF4FBF4F80932B018C
:100BC00090932C01A0932D01B0932E0189819A81DD
:100BD000092E000CAA0BBB0B8B879C87AD87BE87A9
:100BE0002B853C854D855E85DA01C901880F991FEB
:100BF000AA1FBB1F820F931FA41FB51F9C01AD012D
:100C0000220F331F441F551F220F331F441F551F30
:100C1000820F931FA41FB51F880F991FAA1FBB1F08
:100C20007C018D018B859C85AD85BE859C01AD01C8
:100C3000C801B7010E947618DC01CB018B879C8725
:100C4000AD87BE878B859C85AD85BE85892F9A2F04
:100C5000AB2FBB27A7FDBA958B879C87AD87BE8737
:100C60008B859C85AD85BE85985FAF4FBF4F8B87C9
:100C70009C87AD87BE8789819A81092E000CAA0BBB
:100C8000BB0B2B853C854D855E85BC01CD010E944B
:100C90007618DC01CB018B879C87AD87BE8780915E
:100CA0002B0190912C01A0912D01B0912E01880F64
:100CB000991FAA1FBB1F880F991FAA1FBB1F880F50
:100CC000991FAA1FBB1F880F991FAA1FBB1F880F40
:100CD000991FAA1FBB1F9C01AD018B859C85AD850B
:100CE000BE85820F931FA41FB51F8B879C87AD877E
:100CF000BE878B859C85AD85BE859D968B879C87A1
:100D0000AD87BE878B859C85AD85BE85892F9A2F43
:100D1000AB2FBB27A7FDBA958B879C87AD87BE8776
:100D20008B859C85AD85BE8581309045A105B1053B
:100D300014F080E53DC08B859C85AD85BE85BB23C9
:100D400014F48EE135C08B859C859C838B838B81CD
:100D50009C81892F99279C018C89882F90E041E004
:100D6000281739070CF440E04F878B819C8180580D
:100D70009F4F9C838B838F85882339F08B819C8147
:100D8000805491099C838B8306C08B819C81805CFD
:100D90009F4F9C838B838B819C81892F99279C8378
:100DA0008B838B819C814E9710F48EE101C08B81E7
:100DB00065960FB6F894DEBF0FBECDBFDF91CF9121
:100DC0001F910F91FF90EF900895CF93DF9300D084
:100DD000CDB7DEB79A83898300008FE390E0FC01F2
:100DE0008081882F90E082709927892BB1F781E468
:100DF00090E029813A81FC01318320838FE390E0E8
:100E00002FE330E0F90120812160FC01208380E4A0
:100E100090E0FC0180810F900F90DF91CF910895B9
:100E20000F931F93CF93DF9300D01F92CDB7DEB700
:100E30008B83809122019B819817F1F08B81882F01
:100E400090E09C01220F331F80E090E0820F931FFF
:100E50009A83898389819A8101960E94E506882F69
:100E600090E0182F002789819A810E94E506882F3B
:100E700090E0800F911F04C08091710190917201E8
:100E80000F900F900F90DF91CF911F910F910895C8
:100E90000F931F93CF93DF9300D0CDB7DEB71091A0
:100EA000FA01169580913C01811709F454C0109302
:100EB0003C0180913D018F5F80933D0180913D0118
:100EC000882F90E08130910519F0029741F13DC0E3
:100ED0000E9483000E94B3008C018091A201909136
:100EE000A3018017910721F01093A3010093A201A1
:100EF0008091A4019091A5018017910720F410938F
:100F0000A5010093A4018091A0019091A10108176F
:100F10001907F0F41093A1010093A00119C00E94D9
:100F200092000E94F1009A83898320919E01309162
:100F30009F0189819A812817390761F089819A81F7
:100F400090939F0180939E0105C010923D0103C0C4
:100F5000000001C0000000000F900F90DF91CF91C2
:100F60001F910F910895CF93DF93CDB7DEB70E9405
:100F7000BD070000DF91CF9108950F931F93CF938A
:100F8000DF93CDB7DEB70E94B3008C011093A301AD
:100F90000093A2011093A5010093A4011093A10155
:100FA0000093A0010000DF91CF911F910F91089550
:100FB000CF93DF93CDB7DEB780E00E94320880E0A8
:100FC0000E94FE0785EE90E025EAFC01208386EE74
:100FD00090E026E0FC01208384EE90E020ECFC0110
:100FE000208384EE90E024EE30E0F9012081286037
:100FF000FC0120830000DF91CF910895CF93DF9310
:1010000000D0CDB7DEB78A8387EE90E0FC01808107
:101010008F7089838A81882311F48EE089838A8185
:10102000813049F489818F3020F489818F5F8983F1
:1010300002C080E012C08A818F3F49F489818823F1
:1010400021F089818150898302C080E006C087EE4B
:1010500090E02981FC01208381E00F900F90DF91C7
:10106000CF910895CF93DF9300D000D0CDB7DEB7F6
:101070008C83198234C08C81882F90E02981222FA3
:1010800030E002C0959587952A95E2F781709927FF
:10109000892B19F08FEF8B8301C01B821A8219C034
:1010A0008981282F30E08A81482F50E0C901880FBC
:1010B000991F880F991F880F991F820F931F840F04
:1010C000951F87559E4F2B81FC0120838A818F5F5E
:1010D0008A838A81893020F389818F5F898389811E
:1010E000823048F281E08093A80100000F900F90B9
:1010F0000F900F90DF91CF910895CF93DF93CDB7ED
:10110000DEB761970FB6F894DEBF0FBECDBF8F87F5
:10111000688B498B8889843008F04BC08F85853275
:1011200008F047C08889882F90E080589F4F9C83A3
:101130008B838B819C81FC0184918D838D818E8337
:101140008F85882F90E0845A9F4F98878F838F8157
:101150009885FC018491898789858A8781E08A83C3
:10116000198224C08981882F90E08C579F4F9C87DB
:101170008B878B859C85FC0184918D879D858E81D5
:10118000890F8E879A858A818923882329F0698926
:101190008E850E946D0B04C060E08E850E946D0BF1
:1011A0008A81880F8A8389818F5F898389818730CB
:1011B000C8F2000061960FB6F894DEBF0FBECDBF37
:1011C000DF91CF910895CF93DF9300D000D0CDB7BA
:1011D000DEB78A836B834C838B818230B8F48B813A
:1011E000880F8B838A818F7089834C816B81898181
:1011F0000E947D088B818F5F8B838A8182958F709F
:1012000089834C816B8189810E947D0800000F9049
:101210000F900F900F90DF91CF910895CF93DF93B0
:1012200000D000D0CDB7DEB78A836B834C838B812F
:10123000823068F58A81843650F58B81880F8B83E4
:101240009A818DEC989F812D11248695869586959F
:10125000880F282F220F220F820F292F281B822F61
:1012600089834C816B8189810E947D088B818F5F8E
:101270008B839A818DEC989F812D1124869586957C
:10128000869589834C816B8189810E947D0800004D
:101290000F900F900F900F90DF91CF910895CF9303
:1012A000DF9300D000D0CDB7DEB79B838A836C83F9
:1012B0008A819B818031974220F08FE097E29B8367
:1012C0008A838A819B8196958795969587959C01BF
:1012D000ABE7B4E10E94EF1896958795898343E0C8
:1012E00061E089810E940E094A815B81CA0196955D
:1012F0008795969587959C01ABE7B4E10E94EF181E
:101300009695879564E6689F9001699F300D11243A
:10131000CA01821B930B898343E060E089810E94AC
:101320000E0900000F900F900F900F90DF91CF915A
:101330000895CF93DF9300D000D0CDB7DEB79B8365
:101340008A836C838A819B81892F9927898343E0D3
:1013500061E089810E94E3088A81898343E060E03B
:1013600089810E94E30800000F900F900F900F906A
:10137000DF91CF910895CF93DF9300D01F92CDB727
:10138000DEB78A836B8360E083E20E946D0B8A8103
:101390008823C9F44B8163E080E00E947D084B8183
:1013A00062E08FE00E947D084B8161E08FE00E9447
:1013B0007D084B8160E080E20E947D0860E08BE365
:1013C0000E946D0B6FC08A818433C9F44B8163E046
:1013D00080E00E947D084B8162E081E10E947D08EF
:1013E0004B8161E080E20E947D084B8160E080E2F9
:1013F0000E947D0860E08BE30E946D0B53C08A81E0
:101400008533C8F04B8163E080E20E947D084B8108
:1014100062E08EE00E947D084B8161E08CE10E94D9
:101420007D084B8160E08CE10E947D0860E08BE3E9
:101430000E946D0B37C08A81882F90E00197992315
:101440000CF40196959587958B5F898389818A3005
:1014500058F44B8163E080E20E947D084B8162E09A
:1014600089810E947D0805C04B8161E089810E94CD
:101470000E098A81882F90E081709927892B11F4B9
:1014800085E001C080E089834B8161E089810E9411
:101490007D084B8160E08CE00E947D086B818BE3CE
:1014A0000E946D0B00000F900F900F90DF91CF9175
:1014B0000895CF93DF93CDB7DEB727970FB6F89493
:1014C000DEBF0FBECDBF9E838D836F8360E083E25E
:1014D0000E946D0B8D819E8189319C4F2CF489E196
:1014E0009CEF9E838D8309C08D819E8180319742C0
:1014F00024F08FE097E29E838D838E81881F88275A
:10150000881F89838981882339F08D819E819195F7
:10151000819591099E838D838D819E812AE030E0A3
:10152000B9010E949A18CB019B838A838A819B818F
:101530002AE030E0B9010E949A188C834F8161E063
:101540008C810E947D088A819B812AE030E0B9016C
:101550000E949A18CB019B838A838A819B812AE00F
:1015600030E0B9010E949A188C834F8162E08C812F
:101570000E947D088981882331F04F8163E086E1F4
:101580000E947D0822C08D819E81883E934034F464
:101590004F8163E080E20E947D0817C08A819B81B1
:1015A0002AE030E0B9010E949A18CB019B838A831C
:1015B0008A819B812AE030E0B9010E949A188C83CD
:1015C0004F8163E08C810E947D084F8160E08CE058
:1015D0000E947D086F818BE30E946D0B00002796AF
:1015E0000FB6F894DEBF0FBECDBFDF91CF91089547
:1015F000CF93DF9300D000D000D0CDB7DEB78D837E
:101600006E838D81882F90E085579F4F9A838983C1
:1016100089819A81FC0184918B838B818C836E817B
:101620008C810E946D0B000026960FB6F894DEBFE9
:101630000FBECDBFDF91CF910895CF93DF9300D040
:101640001F92CDB7DEB78A836B838A81883110F011
:1016500087E18A83198210C099818A81981729F4B9
:101660006B8189810E94F80A04C060E089810E9430
:10167000F80A89818F5F89838981883168F3000046
:101680000F900F900F90DF91CF910895CF93DF933C
:10169000CDB7DEB740E063E080E20E947D0840E025
:1016A00062E080E20E947D0840E061E080E20E940A
:1016B0007D0840E060E080E20E947D0860E08BE30E
:1016C0000E946D0B60E083E20E946D0B81E08093CD
:1016D000A8010000DF91CF910895CF93DF9300D050
:1016E00000D01F92CDB7DEB78C836D838C81869539
:1016F000869586958A838C8187708B83198282C0B8
:101700008D81882F90E02981222F30E002C09595AD
:1017100087952A95E2F781709927892BC1F18981F4
:10172000282F30E08A81682F70E08981482F50E0AF
:101730008A81E82FF0E0CA01880F991F880F991F4E
:10174000880F991F840F951F8E0F9F1F87559E4FDF
:10175000FC018081E82F8B81482F50E081E090E0F0
:1017600002C0880F991F4A95E2F78E2B482FC901B6
:10177000880F991F880F991F880F991F820F931F39
:10178000860F971F87559E4FFC01408338C0898183
:10179000282F30E08A81682F70E08981482F50E03F
:1017A0008A81E82FF0E0CA01880F991F880F991FDE
:1017B000880F991F840F951F8E0F9F1F87559E4F6F
:1017C000FC018081E82F8B81482F50E081E090E080
:1017D00002C0880F991F4A95E2F780958E23482F03
:1017E000C901880F991F880F991F880F991F820FB1
:1017F000931F860F971F87559E4FFC014083898159
:101800008F5F89838981823008F47ACF00000F903E
:101810000F900F900F900F90DF91CF910895CF937D
:10182000DF93CDB7DEB781E08093A8010000DF91A0
:10183000CF9108951F920F9200905F000F92112494
:101840002F933F934F935F938F939F93EF93FF93C8
:10185000CF93DF93CDB7DEB78091A601882329F41B
:101860001092A70181E08093A8018091A6018831A0
:1018700031F481E08093A70181E08093A8018091F9
:10188000A801882309F4BDC04CEE50E08091A70167
:10189000282F30E0C901880F991F880F991F880FE2
:1018A000991F820F931F87559E4FFC018081FA017B
:1018B00080834DEE50E08091A701282F30E0C901D0
:1018C000880F991F880F991F880F991F820F931FE8
:1018D00086559E4FFC018081FA0180834EEE50E0D8
:1018E0008091A701282F30E0C901880F991F880F28
:1018F000991F880F991F820F931F85559E4FFC01DA
:101900008081FA01808341EF50E08091A701282F68
:1019100030E0C901880F991F880F991F880F991F00
:10192000820F931F84559E4FFC018081FA018083B2
:1019300042EF50E08091A701282F30E0C901880FC5
:10194000991F880F991F880F991F820F931F835526
:101950009E4FFC018081FA01808343EF50E080912B
:10196000A701282F30E0C901880F991F880F991F00
:10197000880F991F820F931F82559E4FFC01808113
:10198000FA01808346EF50E08091A701282F30E0D4
:10199000C901880F991F880F991F880F991F820FFF
:1019A000931F81559E4FFC018081FA01808347EF90
:1019B00050E08091A701282F30E0C901880F991FBE
:1019C000880F991F880F991F820F931F80559E4F74
:1019D000FC018081FA01808348EF50E08091A701EB
:1019E000282F30E0C901880F991F880F991F880F91
:1019F000991F820F931F8F549E4FFC018081FA0123
:101A000080838091A6018F5F8093A6018091A601BB
:101A1000813310F01092A6010000DF91CF91FF9169
:101A2000EF919F918F915F914F913F912F910F90E7
:101A300000925F000F901F901895CF93DF93CDB762
:101A4000DEB762970FB6F894DEBF0FBECDBF0E941F
:101A5000C90E0E94170F789483E00E94320888EE26
:101A600093E00E94541080E00E94320843E061E05D
:101A700080E00E940E0943E060E08DE30E940E09C1
:101A80000E940F0C88EE93E00E94541080E00E94A8
:101A900032081A8281E08D8383E68B831E821F8247
:101AA000198281E08093BC018AE0888783E08C837F
:101AB0000E9483000E94920088E20E9428041A86F5
:101AC000198680E00E94BD0F0E9492000E94B30020
:101AD0009C878B879091FA0181E0913009F080E03A
:101AE000882F90E09E878D878D850E944B03809183
:101AF0006F0160E00E94D8108091BC01882309F436
:101B00005EC01092BC018091C301882F90E081706B
:101B1000992721E0892B09F020E02A838091C301D5
:101B2000882F90E088709927892B89F085E00E94A2
:101B300028048C8181508C8363E08C810E941D0B72
:101B400081E08D8363E088E10E946D0B04C060E05A
:101B500088E10E946D0B8091C301882F90E0827014
:101B60009927892B69F08BEF0E9428048C8189309A
:101B700059F48091BB010E94650F8093BB0104C0A2
:101B800060E082E30E946D0B8091C301882F90E09A
:101B900084709927892B79F08C818F5F8C838C815D
:101BA0008F5F63E00E941D0B81E08D8363E08AE11B
:101BB0000E946D0B04C060E08AE10E946D0B998168
:101BC0008A819817F9F08A810E94B8108A81882347
:101BD000C9F00E94460B43E063E08CE00E947D0860
:101BE00043E062E08AE00E947D0843E061E083E236
:101BF0000E947D080E940F0C6E8188850E9448110A
:101C00000E94460B0E94CB10882351F08091FA016C
:101C10009B81981729F00E9409138091FA018B8308
:101C20008091C3018F838A8189830E9448078C81B8
:101C3000813061F40E9483000E941D01988B8F8780
:101C40008F85988963E00E9499098FC08C818230CA
:101C500061F40E9483000E941D01988B8F878F85FD
:101C6000988963E00E944F0980C08C81833061F4C1
:101C70000E9483000E94F100988B8F878F8598893E
:101C800063E00E944F0971C08C81843061F40E942E
:101C900092000E94E600988B8F878F85988963E079
:101CA0000E94990962C08C81853061F40E94920083
:101CB0000E94E600988B8F878F85988963E00E9449
:101CC0004F0953C08C81863061F40E9492000E94BB
:101CD000B3009A8B898B89899A8963E00E94590A9B
:101CE00044C08C81873051F485E29CEF9A8B898BBC
:101CF00089899A8963E00E94590A37C08C818830AB
:101D000051F484E996E29A8B898B89899A8963E0F8
:101D10000E94590A2AC08C818C3069F48BEF809321
:101D2000BB0188EB9BE09A8B898B89899A8963E058
:101D30000E94590A1AC08C818D3069F48DEE80930F
:101D4000BB018CE291E09A8B898B89899A8963E047
:101D50000E94590A0AC08C81882F90E0988B8F8747
:101D60008F85988963E00E944F09809128018695AC
:101D700043E060E00E940E0980916F0143E061E062
:101D80000E940E090E940F0C84E690E00E945410FD
:101D900098CECF93DF93CDB7DEB781E690E020E811
:101DA000FC01208381E690E021E0FC01208380E5B6
:101DB00090E020E8FC0120838EE790E02FEFFC010B
:101DC000208384E290E020E9FC01208383E390E01B
:101DD00028E1FC0120838DE290E028E0FC012083D3
:101DE00080E390E028E0FC01208380E390E020E4A1
:101DF000FC01208385E290E02FE6FC0120838CE645
:101E000090E02FE2FC0120838DE390E020ECFC01C8
:101E100020830E94D8078FE99FE00E9493130E94BD
:101E200088100E94B3070000DF91CF910895CF93EF
:101E3000DF931F92CDB7DEB787E00E94FE1382E0EA
:101E40000E94141488E00E942A1486E10E943A1429
:101E50008DE10E944B1480E00E945C148BEA809319
:101E6000C4018FE68093C501198217C044EA60E07F
:101E700089810E946D144CE161E089810E946D149A
:101E800040EC62E089810E946D144CEE63E0898130
:101E90000E946D1489818F5F89838981873030F337
:101EA0001092BF011092BC011092C3011092BE01AA
:101EB0001092BD011092C1011092C7011092C6018B
:101EC00000000F90DF91CF910895CF93DF9300D062
:101ED000CDB7DEB78A8381E089838A818093C80188
:101EE00081E08093C2011092BC011FC08091C201A9
:101EF000882371F08091C801853318F084E38093C2
:101F0000C8018091C80163E00E94BB090E940F0CC8
:101F10008091BC01813049F48091C301882F90E009
:101F200084709927892B09F0198289818130F1F217
:101F30008091C8010F900F90DF91CF910895CF93BA
:101F4000DF931F92CDB7DEB7898363E08CE20E94F6
:101F50006D0B8091C001882359F08981882F90E012
:101F6000817099278C539E4FFC0180818093BB0127
:101F700000000F90DF91CF910895CF93DF931F92D0
:101F8000CDB7DEB7898389818823A9F00E948E149A
:101F9000882F90E0817099278C539E4FFC0180819F
:101FA0008093BB0163E088E10E946D0B60E082E3F7
:101FB0000E946D0B08C060E088E10E946D0B63E039
:101FC00082E30E946D0B89818093C00100000F9015
:101FD000DF91CF9108951F920F9200905F000F92B2
:101FE00011248F939F93EF93FF93CF93DF93CDB7FC
:101FF000DEB783E290E0FC01808180958F7680934C
:10200000C3019091BE018091C301981709F43FC0AC
:102010008091C3018093BE018091C301807680933B
:10202000BD019091BD018091C101981769F1809126
:10203000BD018093C1018091BD01803221F080916A
:10204000BD01803469F48091C8018F3FE9F080912F
:10205000C8018F5F8093C80181E08093C20114C0E2
:102060008091BD01882321F08091BD01803661F40B
:102070008091C801882341F08091C80181508093EC
:10208000C80181E08093C20181E08093BC0100001F
:10209000DF91CF91FF91EF919F918F910F900092DF
:1020A0005F000F901F901895CF93DF9300D01F9281
:1020B000CDB7DEB79B838A831BC0198204C00000A2
:1020C00089818F5F898389818F3FC9F7198204C015
:1020D000000089818F5F898389818F3FC9F71982C9
:1020E00004C0000089818F5F898389818F3FC9F790
:1020F0008A819B819C01215031093B832A83892B52
:10210000E1F600000F900F900F90DF91CF910895AE
:10211000CF93DF93CDB7DEB71092CD011092CC01F3
:102120001092CB011092CA011092D0011092CF01EF
:1021300060E080E00E9457120000DF91CF91089587
:10214000CF93DF93CDB7DEB71092CD011092CC01C3
:102150001092CB011092CA011092D0011092CF01BF
:1021600060E080E00E9457120000DF91CF91089557
:10217000CF93DF931F92CDB7DEB789838981809398
:10218000C9018981882311F40E94A01000000F90DA
:10219000DF91CF910895CF93DF93CDB7DEB79091C4
:1021A000CE0181E0992309F480E0DF91CF91089579
:1021B000CF93DF9300D0CDB7DEB789836A83809158
:1021C000CA019091CB01892B09F45CC089818436C6
:1021D00051F48091CA019091CB01C2969093D001A5
:1021E0008093CF012EC08981882371F41092D00191
:1021F0001092CF018091CC019091CD01C296909325
:10220000CD018093CC011DC08981482F50E02091E1
:10221000CA013091CB01429FC001439F900D529F54
:10222000900D112496958795969587959C01ABE71F
:10223000B4E10E94EF18969587959093D001809312
:10224000CF012091CC013091CD018091CF019091AF
:10225000D0018217930728F46A8182E00E94571206
:102260000FC02091CC013091CD018091CF01909190
:10227000D0012817390720F46A8181E00E945712A3
:1022800081E001C080E00F900F90DF91CF91089521
:10229000CF93DF9300D000D0CDB7DEB78B836C83B4
:1022A0008B81833308F477C088EE93E09093CD015F
:1022B0008093CC011092D0011092CF016C8182E00A
:1022C0000E9457128091CC019091CD019A8389830D
:1022D00088EC90E00E9454108091CE01882369F030
:1022E0008091CC019091CD0129813A81281739073D
:1022F00021F08091C901882329F78091CE0188239C
:1023000021F08091C901882311F480E0C9C06C815B
:1023100080E00E9457121092CD011092CC0188EEFD
:1023200093E09093D0018093CF016C8181E00E9473
:1023300057128091CC019091CD019A83898388ECCA
:1023400090E00E9454108091CE01882369F0809122
:10235000CC019091CD0129813A812817390721F0CC
:102360008091C901882329F78091CE01882321F02B
:102370008091C901882311F480E092C06C8180E0D3
:102380000E9457128091CC019091CD019093CB0186
:102390008093CA0180C01092CD011092CC0188EECA
:1023A00093E09093D0018093CF016C8181E00E94F3
:1023B00057128091CC019091CD019A83898388EC4A
:1023C00090E00E9454108091CE01882369F08091A2
:1023D000CC019091CD0129813A812817390721F04C
:1023E0008091C901882329F78091CE01882321F0AB
:1023F0008091C901882311F480E052C06C8180E093
:102400000E94571288EE93E09093CD018093CC0107
:102410001092D0011092CF016C8182E00E9457127D
:102420008091CC019091CD019A83898388EC90E0D2
:102430000E9454108091CE01882369F08091CC01D4
:102440009091CD0129813A812817390721F0809197
:10245000C901882329F78091CE01882321F080913A
:10246000C901882311F480E01BC06C8180E00E94C8
:1024700057128091CC019091CD0128EE33E0A90153
:10248000481B590BCA019093CB018093CA0110924B
:10249000CD011092CC016C818B810E94D81081E01B
:1024A0000F900F900F900F90DF91CF910895CF93E1
:1024B000DF9300D0CDB7DEB789836A838981882313
:1024C00099F58BE690E02BE630E0F90120812F7E34
:1024D000FC0120838EE290E02EE230E0F9012081C1
:1024E000277FFC01208384E390E024E330E0F901BE
:1024F0002081277FFC01208384E390E024E330E007
:10250000F90120812F7EFC01208385E290E025E205
:1025100030E0F90120812F77FC01208384E490E0F2
:1025200028E4FC0120836CC09091CE01898198172A
:1025300009F466C08EE290E02EE230E0F9012081DD
:102540002860FC0120838BE690E020E1FC012083E1
:102550008A81882331F487E490E022EFFC01208314
:1025600005C087E490E022EBFC0120838FEF9FEF12
:102570009093D2018093D1018981823009F584E35F
:1025800090E024E330E0F90120812860FC01208301
:1025900084E390E024E330E0F90120812F7EFC0108
:1025A000208385E290E025E230E0F90120812F7759
:1025B000FC01208384E490E029E6FC01208320C014
:1025C00084E390E024E330E0F9012081277FFC01DF
:1025D000208384E390E024E330E0F901208120614E
:1025E000FC01208385E290E025E230E0F9012081C2
:1025F0002068FC01208384E490E029E7FC0120832B
:1026000089818093CE0100000F900F90DF91CF91D0
:102610000895CF93DF93CDB7DEB72091CC013091F1
:10262000CD018091D1019091D2012817390729F469
:1026300060E080E00E94571208C08091CC01909128
:10264000CD019093D2018093D1010000DF91CF9111
:1026500008951F920F9200905F000F9211242F9304
:102660003F934F935F936F937F938F939F93AF931A
:10267000BF93EF93FF93CF93DF93CDB7DEB78CE299
:1026800090E0FC018081882F90E080719927892B50
:10269000A9F18091CE018130C9F48091CC01909153
:1026A000CD0101969093CD018093CC012091CC0176
:1026B0003091CD018091CF019091D0012817390739
:1026C000E8F060E080E00E94571218C08091CC01D1
:1026D0009091CD0101979093CD018093CC012091F1
:1026E000CC013091CD018091CF019091D001821722
:1026F000930720F060E080E00E9457120000DF9115
:10270000CF91FF91EF91BF91AF919F918F917F9169
:102710006F915F914F913F912F910F9000925F00C9
:102720000F901F901895CF93DF9300D0CDB7DEB7F1
:102730009A83898389819A819093F9018093F80122
:1027400080E790E020E730E0F90120812E7FFC0156
:10275000208386EB90E028E0FC01208382EB90E070
:10276000FC01108280EB90E020EB30E0F901208149
:102770002560FC012083000086EB90E0FC01808155
:10278000882F90E09C012170332786EB90E0FC01BC
:102790008081882F90E084709927822B932B892B3E
:1027A00059F787E390E02FEFFC01208380E790E06A
:1027B00020E730E0F90120812160FC0120831092A4
:1027C000D6011092D7011092D8011092D90110921F
:1027D000DA011092D3011092FA0181E08093DB01BB
:1027E00081E08093FB0188E08093FC010E94CF167A
:1027F00000000F900F90DF91CF910895CF93DF935A
:102800001F92CDB7DEB789838981882331F0898112
:10281000803218F489818093DB010E94CF1600007A
:102820000F90DF91CF910895CF93DF931F92CDB793
:10283000DEB789838981882331F089818D3018F44E
:1028400089818093FB010E94CF1600000F90DF91D9
:10285000CF910895CF93DF931F92CDB7DEB78983D1
:1028600089818093FC010E94CF1600000F90DF91B8
:10287000CF910895CF93DF931F92CDB7DEB78983B1
:102880008981883118F489818093DA0100000F90E2
:10289000DF91CF910895CF93DF931F92CDB7DEB72D
:1028A000898389818C3318F489818093D301000056
:1028B0000F90DF91CF910895CF93DF931F92CDB703
:1028C000DEB7898389818C3318F489818093FA017A
:1028D00000000F90DF91CF910895CF93DF9300D048
:1028E0001F92CDB7DEB789836A834B838981282FF6
:1028F00030E08A81882F90E0220F331F220F331F90
:10290000820F931F84529E4F2B81FC012083000075
:102910000F900F900F90DF91CF910895CF93DF9399
:1029200000D000D0CDB7DEB71B828091DA01880FCE
:10293000982F990F990F980F2091D3018DEC289F14
:10294000812D1124869586958695890F8C830E940A
:10295000F8148A8381E089833FC08091D501282FB4
:1029600030E08981882F90E0220F331F220F331F20
:10297000820F931F84529E4FFC0190818B81891797
:1029800040F58091D501282F30E08981882F90E093
:10299000220F331F220F331F820F931F84529E4F2B
:1029A000FC0190818C818917A0F08091D501282F9E
:1029B00030E08981882F90E0220F331F220F331FD0
:1029C000820F931F84529E4FFC0180818B838981EB
:1029D0008A8389818F5F89838981843008F4BDCFA0
:1029E0008A810F900F900F900F90DF91CF910895F3
:1029F000CF93DF9300D000D01F92CDB7DEB71C82FB
:102A00008FEF8B83198250C08091D501882F90E081
:102A1000069627E030E0B9010E949A188D8381E084
:102A20008A833CC08D81282F30E08A81882F90E0F6
:102A3000220F331F220F331F820F931F84529E4F8A
:102A4000FC0190818C81891730F58D81282F30E031
:102A50008A81882F90E0220F331F220F331F820FAD
:102A6000931F84529E4FFC018081803FA0F480918F
:102A7000D501282F30E08A81882F90E0220F331F64
:102A8000220F331F820F931F84529E4FFC018081BF
:102A90008C838A818B838A818F5F8A838A81843049
:102AA00008F289818F5F89838B818F3F21F489812F
:102AB000873008F4A9CF8B810F900F900F900F9063
:102AC0000F90DF91CF910895CF93DF931F92CDB7F1
:102AD000DEB78091FA018F5F8093FA018C3309F0A1
:102AE00092C01092FA018091D3018F5F8093D3013D
:102AF0008C33B1F51092D3018091DA018F5F80930E
:102B0000DA01883121F41092DA010E9408168091CE
:102B1000FB01833069F48091DA01823049F40E942C
:102B20009916882329F08091DA018F5F8093DA016A
:102B30008091FB018A30A1F48091DA01833081F425
:102B40008091D401882361F40E949916882341F072
:102B50008091DA0181508093DA0181E08093D40181
:102B60009091D3018DEC989F812D112486958695A7
:102B70008695880F282F220F220F820F292F281BBE
:102B8000822F882309F03FC019823AC08091D50175
:102B9000282F30E08981882F90E0220F331F220FE9
:102BA000331F820F931F84529E4FFC018081282F78
:102BB00030E08091DA01882F90E0880F991FAC01F6
:102BC000440F551F440F551F480F591F9091D301B3
:102BD0008DEC989F812D1124869586958695882F5A
:102BE00090E0840F951F2817390739F42091F801D8
:102BF0003091F9018981F901099589818F5F898374
:102C00008981843018F200000F90DF91CF910895F0
:102C1000CF93DF931F92CDB7DEB70E9456168983FC
:102C20008091DB018F5F8093DB01282F30E0898169
:102C3000882F90E001962817390799F581E0809355
:102C4000DB018091FB018F5F8093FB018D3041F4AC
:102C500081E08093FB018091FC018F5F8093FC01F8
:102C60008091FB018B3011F41092D4018091D50139
:102C70008F5F8093D5012091D50185E2289F812D1A
:102C80001124922F981B9695890F982F96959695BB
:102C9000892F880F880F880F891B922F981B90937C
:102CA000D50100000F90DF91CF910895CF93DF936E
:102CB00000D01F92CDB7DEB78091FB01823079F052
:102CC0008091FB01882F90E08D559F4F9A838983D7
:102CD00089819A81FC0184918B838B8107C00E943A
:102CE0007C16882311F08CE101C08DE10F900F90CC
:102CF0000F90DF91CF910895CF93DF93CDB7DEB7DB
:102D00009091FC0189E2989F812D112482958F700A
:102D100024E6829F802D1124292F281B822F8823AF
:102D200021F08091FC01837001C080E0DF91CF91A0
:102D30000895CF93DF9300D0CDB7DEB78091FB012C
:102D4000833029F48FE190E09A8389830BC08091CE
:102D5000FB018A3029F48EE190E09A83898302C0D6
:102D600080E018C08091DB01882F90E029813A81B2
:102D70002750310902C0880F991F2A95E2F7892B45
:102D800011F080E007C08091D501873011F481E017
:102D900001C080E00F900F90DF91CF910895CF9305
:102DA000DF93CDB7DEB728970FB6F894DEBF0FBE1E
:102DB000CDBF8091FB01882F90E00197880F991F6C
:102DC00081559F4F9C838B838B819C81FC01259136
:102DD0003491CF013E832D839C838B832D813E8153
:102DE0008091DB01882F90E0820F931F9A83898363
:102DF0008091FB01833048F00E947C16882329F4DF
:102E000089819A8101969A8389838091FC01282F78
:102E100030E08091FC01882F90E0019799230CF419
:102E200003969595879595958795280F391F8091DD
:102E3000FC01882F90E0019744E650E0BA010E941F
:102E40009A18CB01A901481B590BCA019C01898121
:102E50009A81820F931F98878F838F819885AC0109
:102E60004B5F5F4F9A01A3E9B4E20E94EF189A0109
:102E7000281B390B36952795820F931F9C01369599
:102E8000279536952795C901880F991F880F991F97
:102E9000880F991F821B930B9A01281B390B822FD5
:102EA0008093D501000028960FB6F894DEBF0FBEC0
:102EB000CDBFDF91CF9108951F920F9200905F00D8
:102EC0000F9211242F933F934F935F936F937F93B0
:102ED0008F939F93AF93BF93EF93FF93CF93DF9322
:102EE000CDB7DEB78091D6019091D701A091D801DE
:102EF000B091D9010196A11DB11D8093D601909387
:102F0000D701A093D801B093D9010E9464150000A5
:102F1000DF91CF91FF91EF91BF91AF919F918F91F1
:102F20007F916F915F914F913F912F910F90009200
:102F30005F000F901F901895CF93DF93CDB7DEB74A
:102F40002C970FB6F894DEBF0FBECDBF8A877C8763
:102F50006B878A85882311F088E001C082E08E8328
:102F60008FEF89831A824AC08A85880F880F8B83E6
:102F70008B818C5F8F831D821C8224C08B810E9479
:102F800010079F709987888788859985803A954032
:102F9000A8F4288539858C819D812817390778F018
:102FA000288539858B859C858217930740F0888515
:102FB00099859D838C838B81898301C000008B81DF
:102FC0008F5F8B839B818F819817C0F289818823C3
:102FD000DCF48A85882359F08A85882F90E005964D
:102FE00027E030E0B9010E949A188F5F8A8780EA53
:102FF00095E09C878B878A818F5F8A839A818E81F7
:10300000981708F4B1CF01C0000089812C960FB643
:10301000F894DEBF0FBECDBFDF91CF910895CF935F
:10302000DF93CDB7DEB727970FB6F894DEBF0FBE9C
:10303000CDBF8F8380916B01882F90E04CE3489F38
:103040009001499F300D112480916C01882F90E0F0
:10305000820F931F9A83898380919501813019F49F
:1030600080916E0101C080E08B832B8189819A81E0
:10307000BC01822F0E949C178C838C810E941007B8
:103080009E838D838C81882314F480E026C08F81F9
:103090008823B9F08D819E819C013F7089819A813E
:1030A0002817390711F080E018C08C8188230CF4B0
:1030B0008D5F85958595982F8B81981711F080E00D
:1030C0000CC08D819E81892F992782958F70837086
:1030D00099278C589E4FFC01808127960FB6F89453
:1030E000DEBF0FBECDBFDF91CF910895DB018F937F
:1030F0009F930E94FE18BF91AF91A29F800D911DDA
:10310000A39F900DB29F900D11240895AA1BBB1B85
:1031100051E107C0AA1FBB1FA617B70710F0A61BD7
:10312000B70B881F991F5A95A9F780959095BC01F8
:10313000CD01089597FB072E16F4009407D077FD74
:1031400009D00E94861807FC05D03EF49095819521
:103150009F4F0895709561957F4F0895A1E21A2EB3
:10316000AA1BBB1BFD010DC0AA1FBB1FEE1FFF1F2B
:10317000A217B307E407F50720F0A21BB30BE40B7B
:10318000F50B661F771F881F991F1A9469F76095C2
:103190007095809590959B01AC01BD01CF0108957C
:1031A000052E97FB1EF400940E94E71857FD07D0E8
:1031B0000E94AE1807FC03D04EF40C94E71850950B
:1031C0004095309521953F4F4F4F5F4F0895909513
:1031D0008095709561957F4F8F4F9F4F0895A29F67
:1031E000B001B39FC001A39F700D811D1124911DDB
:1031F000B29F700D811D1124911D08950E94EF183A
:10320000A59F900DB49F900DA49F800D911D11243A
:103210000895689401C0E8948F929F92CF93DF93B2
:103220000E941719DF91CF919F908F900895882465
:103230009924F401E401B0E49F93AA279A158B0422
:103240009C04ED05FE05CF05D007A10798F4AD2F2E
:10325000DC2FCF2FFE2FE92D982C892E982F872F2A
:10326000762F652F542F432F322F2227B85031F756
:10327000BF9127C01B2EBF91BB27220F331F441FB6
:10328000551F661F771F881F991F881C991CEE1FEA
:10329000FF1FCC1FDD1FAA1FBB1F8A149B04EC0558
:1032A000FD05CE05DF05A007B10748F08A189B0889
:1032B000EC09FD09CE09DF09A00BB10B21601A94BE
:1032C000E1F62EF49401AF01BE01CD01000C08958A
:1032D0002A0D3B1D4C1D5D1D6E1D7F1D801F911F06
:0632E0000895F894FFCFF1
:1032E60007300154018D01D80125026602A3024868
:1032F6000DB80BC409D007DC05E803F401FF011083
:043306000010FF00B4
:00000001FF
