:100000000C94B7000C94DB000C94DB000C94DD0026
:100010000C94DB000C94DB000C94DB000C942009A6
:100020000C94DB000C94DB000C94DB000C94DB00E4
:100030000C94DB000C94A7020C947C020C945902E3
:100040000C94DB000C94DB000C94DB000C94DB00C4
:100050000C94DB0041052B052B0541052B052B05D9
:10006000C9052B052B052B052B052B0541052B055C
:100070002B052B052B05AE05C905AE052B052E0559
:10008000AE0549074B074707470747074707490793
:1000900047074707470747074707490747074707EE
:1000A0004707470749074B074907470747074D07D2
:1000B0005254433F0A007D0A002058002057002078
:1000C00045002042002053002049002056002073A4
:1000D00000206D007B0A002E2E2E0020455252007B
:1000E00020504B54004F4B004F4B004F4B004F4B99
:1000F000004F4B00563A204F70656E485232302008
:100100006D61737465722053572076657273696FE1
:100110006E20312E30206275696C64204665622045
:10012000313620323031312030313A32383A3337BB
:100130002052656C5F312E300A00443A20001F1CAB
:100140001F1E1F1E1F1F1E1F1E1F00001F003B0023
:100150005A0078009700B500D400F3001101300177
:100160004E01AAAA2DD40123456789ABCDEF1124F6
:100170001FBECFE5D8E0DEBFCDBF14BE88E10FB60D
:10018000F89481BD11BC0FBE10E0A0E6B0E0EEE136
:10019000FCE102C005900D92AA36B107D9F714E030
:1001A000AAE6B0E001C01D92AE3EB107E1F70E94A1
:1001B00052010C940D0E0C9400001F920F920FB67A
:1001C0000F9211240F931F932F933F934F935F939D
:1001D0006F937F938F939F93AF93BF93EF93FF930F
:1001E00005E04BC08BB78F7D8BBF78948091B902AF
:1001F0008230E9F42091B802E22FF0E0E959FB4F98
:10020000808190E02F5F2093B802986B0E949F0737
:100210009091B80280916000981748F183E0809334
:10022000B9028091660480688093660428C0843097
:1002300099F41091B80280E090EB0E949F07E12FA3
:10024000F0E0E959FB4F80831F5F1093B80210352F
:1002500048F00093B90206C0853049F480E090EB85
:100260000E949F0780916604806880936604F894DA
:1002700000008BB780628BBF0000B699B3CFFF91AF
:10028000EF91BF91AF919F918F917F916F915F910E
:100290004F913F912F911F910F910F900FBE0F9093
:1002A0001F90189580E888B914E01ABB80EB87BBD3
:1002B00014BA82E881BB9FEF9BBB8BEF88BB95BBD9
:1002C00092BB0E94E4080E94B50788E092E80E9471
:1002D0009F0780E00E948B0A0E94620C83E89AECE0
:1002E0000E949F0780EE90EC0E949F0788ED92E8A5
:1002F0000E949F071093B90284B7806484BF0E9454
:10030000960778948BB780628BBF0E94DD001092B5
:100310006C042FE088E190E00FB6F894A89581BDB9
:100320000FBE21BDF89480916604882321F478944F
:100330008895000001C078948091660487FF12C000
:10034000809166048F77809366048091B902833030
:1003500019F40E94DB0AE6CF8450823018F70E941D
:100360002F0BE0CF8091660481FF78C080916604F6
:100370008D7F809366041092C1020E94F90710914C
:1003800066001E3110F4812F0EC0A8958091ED04F7
:10039000882359F08F3F19F4812F8E5104C010FD2E
:1003A00002C08091EC040E94E40C90916A009923B1
:1003B00009F452C0112329F0809166008E3109F0B2
:1003C0004BC0915090936A001092B9021092C002F3
:1003D000809161000E94CE0A10916300812F869562
:1003E00086958695909162009295907F890F0E94E4
:1003F000CE0A1295110F107E80916400810F0E9429
:10040000CE0A90E0809166008E3109F491E08091EF
:100410006500880F890F0E94CE0A8091ED048E3FFF
:10042000B9F08F3F79F48091C0040E94CE0A809188
:10043000C1040E94CE0A8091C2040E94CE0A80911B
:10044000C30404C00E94CE0A8091EC040E94CE0A2C
:100450000E941B0C0E946E040E941204809166048C
:1004600082FF1BC0809166048B7F8093660480911D
:10047000BB0281FF07C0F8948D7F8093BB02789404
:100480000E94CA0A8091BB0282FF07C0F8948B7F4A
:100490008093BB0278940E94CC0A8091660486FF08
:1004A00041CF809166048F7B809366040E9443064F
:1004B00039CF1F920F920FB60F9211248F938AB1EA
:1004C000877B8AB98F910F900FBE0F901F90189560
:1004D00082E08BB910BC8FE189B986E880BD80E9E4
:1004E0008AB90895F894559905C056985E9A8AB1CC
:1004F00088628AB9789408951F920F920FB60F926E
:1005000011242F933F934F935F936F937F938F9318
:100510009F93AF93BF93EF93FF930E9401038823B0
:1005200011F08CB903C055985E9A569AFF91EF91DD
:10053000BF91AF919F918F917F916F915F914F91FB
:100540003F912F910F900FBE0F901F9018951F9203
:100550000F920FB60F9211242F933F934F935F93F7
:100560006F937F938F939F93AF93BF93EF93FF937B
:100570008CB10E941B03FF91EF91BF91AF919F91AE
:100580008F917F916F915F914F913F912F910F903C
:100590000FBE0F901F901895482FF894E0916B00B4
:1005A000F0916C0031969F013170319780916D0010
:1005B00090916E002817390741F0ED58FF4F4083A6
:1005C00030936C0020936B001AC0309739F48AE2A4
:1005D000809371028AE08093720211C0E130F105CC
:1005E00039F48AE2809372028AE08093730007C034
:1005F000ED58FF4F32978AE281938AE080837894A6
:100600000895A89520916D0030916E0080916B0047
:1006100090916C008217930711F480E00895F9011E
:10062000ED58FF4F80812F5F3F4F317030936E0048
:1006300020936D000895282F882319F18D3009F437
:100640002AE080917100E82FF0E0ED58FD4F208303
:10065000982F9F5F9F7390937100809172009817FD
:1006600021F49F5F9F73909372002A3051F4809120
:1006700066048064809366048091B3028F5F8093E8
:10068000B3020895F89490917200809171008917D7
:1006900089F0E92FF0E0ED58FD4FE0819F5F9F73F7
:1006A00090937200EA3049F48091B30281508093B4
:1006B000B30203C01092B302E0E078948E2F089545
:1006C0001F93182F843658F064E60E948B0D805DCE
:1006D0000E94CC02812F64E60E948B0D192F812F7E
:1006E0006AE00E948B0D805D0E94CC02812F6AE03F
:1006F0000E948B0D892F805D0E94CC021F9108956E
:100700000F931F938C0164E670E00E94970D862F73
:100710000E946003C80164E670E00E94970D0E9489
:1007200060031F910F9108951F93182F82958F706A
:100730008A3010F0895A01C0805D0E94CC02812F5E
:100740008F708A3010F0895A01C0805D0E94CC02FF
:100750001F9108951F93182F892F0E949403812FB2
:100760000E9494031F910895CF93DF93EC01FC0145
:10077000849105C00E94CC022196FE0184918823B9
:10078000C9F7DF91CF910895FF920F931F93082F20
:10079000F62E10E01CC00E944203982F282F2053F1
:1007A0002A3020F081568630E0F42752E12FE6957A
:1007B00010FF06C0F0E0EC54FD4F8081280F05C00B
:1007C000F0E0EC54FD4F2295207F20831F5F10172F
:1007D00010F3FF2029F00E944203982F8A3009F479
:1007E00090E0892F1F910F91FF9008951F93182F6C
:1007F00081E20E94CC02812F81950E94940381E2C4
:100800000E94CC021F91089520916B0030916C00E2
:1008100080916D0090916E002817390711F00E94A9
:10082000720208950F931F9300916600002329F42C
:1008300080EB90E00E94B4033BC00D3111F00B330C
:10084000A9F48EE40E94CC020B3311F081E301C0C5
:1008500080E30E94CC028FE30E94CC028AE00E94D7
:10086000CC021092ED041092EC0433C00E3100F172
:100870001091ED04112379F11F3FA9F4102F1D51A0
:100880008091C0049091C104A091C204B091C304AE
:10089000012E04C0B695A795979587950A94D2F72F
:1008A00080FD08C018C000FF05C01091EC0402C014
:1008B000102F1F5F88E20E94CC02812F0E949403B8
:1008C00089E20E94CC028FE30E94CC028AE00E945F
:1008D000CC020E9404041F910F910895809167003B
:1008E00080530E94940380E20E94CC0280916300B6
:1008F0000E9460038EE20E94CC02809162000E94FE
:1009000060038EE20E94CC02809161000E9460032D
:1009100080E20E94CC02809164000E9460038AE31E
:100920000E94CC02809165000E9460038AE30E94CD
:10093000CC02809166000E9460038AE00E94CC0293
:100940000E9404040895A0E0B0E0E9EAF4E00C9409
:10095000C50DEC01062F142FF98080E40E94CC0213
:10096000809166000E9460038EE20E94CC0280911A
:10097000BC020E9460031123D1F00630C4F080EE67
:1009800090E00E94B40380916F00909170000196F6
:100990009093700080936F0001970E94AA03102F1C
:1009A00016508AE00E94CC02112369F525C18BED17
:1009B00090E00E94B40380916F00909170000196C6
:1009C0009093700080936F0001970E94AA030B30F0
:1009D00024F00AE0FF24F39401C0FF24102F07C085
:1009E00080E20E94CC0289910E949403115011165A
:1009F000BCF3FF2021F087ED90E00E94B4038AE071
:100A00000E94CC02F9C0229688E20E94CC028F2D6F
:100A10000E94940389E20E94CC0284ED90E00E943F
:100A2000B40392E3992EE1C0888187FF02C08AE275
:100A300001C08DE20E94CC0228812F772883822F6B
:100A400090E0FC01E154F040E731F10520F4E65D6F
:100A5000FF4F0C94F50D7E01012FBFC0115028F4FB
:100A60008FEF0E94F6030FEFBCC0FE0181918A3028
:100A700019F4EF01012FB5C0EF018F770E94CC026E
:100A8000EDCF822F0E94CC02012F0A5007FD88C0B3
:100A900081ED90E00E94B40389818F730E9460030E
:100AA0008EEC90E00E94B40382E0E82EF12CEC0E74
:100AB000FD1E8A818F730E94600380E20E94CC0237
:100AC000898187FD02C08DE405C086FD02C08DE2EC
:100AD00001C081E40E94CC028BEC90E00E94B40340
:100AE00089850E94600388EC90E00E94B403BC807A
:100AF000AA248D8190E08A299B290E94800385EC9D
:100B000090E00E94B4038885899DC00111240E9451
:100B1000800382EC90E00E94B403DE80CC248F81BD
:100B200090E08C299D290E9480038FEB90E00E9429
:100B3000B4038B810E949403F701808186FF04C077
:100B40008CEB90E00E94B403F701808187FF04C022
:100B500089EB90E00E94B4032A9643C0822F0E9442
:100B6000CC02012F045007FD1BC08BE50E94CC0274
:100B700089810E9494038DE50E94CC028DE30E943E
:100B8000CC028A810E9494038B810E949403249654
:100B900028C0822F0E94CC02012F035007FF04C0FF
:100BA000802F0E94F6031DC08BE50E94CC02898134
:100BB0000E9494038DE50E94CC028DE30E94CC023A
:100BC0008A810E94940323960CC080E20E94CC028A
:100BD000F70181917F010E9494030150B0F7C10F8A
:100BE000D11D8AE00E94CC02102F11160CF41CCFEC
:100BF00086EB90E00E94B4030E940404CDB7DEB7F8
:100C0000EBE00C94E10D8AE391E00E94B403809143
:100C1000670080530E94940380E20E94CC0280917E
:100C200063000E9460038EE20E94CC028091620009
:100C30000E9460038EE20E94CC02809161000E94BB
:100C4000600380E20E94CC02809164000E946003F5
:100C50008AE30E94CC02809165000E9460038AE3CF
:100C60000E94CC02809166000E9460038EE20E9486
:100C7000CC028091BC020E9460038AE00E94CC02F8
:100C80000E9404040895DF92EF92FF920F931F9346
:100C9000DD24DA9440C10E944203182F8F3409F4F6
:100CA0006AC0803590F4843449F1853438F4883250
:100CB00009F4C3C0823409F02CC10FC1873409F490
:100CC00080C0883409F025C138C0833509F479C063
:100CD000843520F4803509F01CC15FC0863521F0D1
:100CE000893509F016C113C00E9442038A3009F009
:100CF00010C184EF90E00E94B4030BC10E94420334
:100D00008A3009F006C18FEF0E94030602C186E017
:100D100061E00E94C403882309F0F8C08091B40206
:100D20000E94B8088091B5020E94BD088091B60269
:100D30000E94C70881EF90E0CDC088E061E00E948A
:100D4000C403882309F0E2C0F8948091B4020E94A1
:100D5000DA078091B5020E94E1078091B6020E94F5
:100D6000E8078091B7020E94EF07D0926A0078945A
:100D70008EEE90E0AFC084E061E00E94C40388235F
:100D800009F0C4C08091B4028093ED048091B50253
:100D90008093EC048BEE90E09DC088E061E00E94BF
:100DA000C403882309F0B2C080EC94E064EB72E0E5
:100DB00044E050E00E94040ED092ED0488EE90E0F2
:100DC00089C0173441F482E061E00E94C4038823A3
:100DD00009F09CC015C084E061E00E94C403882330
:100DE00009F094C09091B402983050F4E92FF0E0EB
:100DF000E854FB4F8091B5028083892F0E94450AF9
:100E0000812F0E94CC028BE50E94CC028091B4021B
:100E10000E9494038DE50E94CC028DE30E94CC02D7
:100E2000E091B402EF3F11F481EE04C0F0E0E85429
:100E3000FB4F80810E94940369C082E060E00E94C1
:100E4000C403882309F062C0E090B4020E94420308
:100E50008D3209F05BC081E060E00E94C40388230A
:100E600009F054C00091B4020E944203893209F093
:100E70004DC00E944203F82E90E0FC01E154F04086
:100E8000E731F10520F4EF5BFF4F0C94F50D10E016
:100E900005C011E003C012E001C013E0812F880FEC
:100EA00061E00E94C403882389F502950F70812FA9
:100EB0008F5F6E2D402F0E94B50C009739F1FC0119
:100EC000F192CF0164EB72E0412F50E00E94040EDA
:100ED00085EE90E00E94B40319C084E061E00E94B6
:100EE000C403882399F48091B402833179F480910A
:100EF000B502843259F4F89428E088E190E00FB606
:100F0000F894A89581BD0FBE21BDFFCF8AE00E9455
:100F1000CC020E9404048091B302882309F0BBCE66
:100F20001F910F91FF90EF90DF90089584EF90E074
:100F30000E94B4030E9468020E9404040895C498A9
:100F400040E197FF02C0C59A01C0C598C79A220F19
:100F5000331FB6992160C798415019F0880F991F27
:100F6000F0CFC49AC498C901089580E090E00E942F
:100F70009F0787EE90E80E949F0785E896EA0E9407
:100F80009F0780E196EC0E949F0783EA94E90E9404
:100F90009F078BEE92EC0E949F0781E89AEC0E94DB
:100FA0009F0787EA94EC0E949F0780E398E90E94DC
:100FB0009F070895885E68E10E948B0D90936400FE
:100FC0000895845C6CE30E948B0D909365000895F6
:100FD000845C6CE30E948B0D90936600089590E012
:100FE0008C599F4F64E670E00E94AB0D8093BC0269
:100FF000089510926800809166008F5F809366006C
:101000008C3308F472C010926600809165008F5F87
:10101000809365008C3308F468C01092650080915D
:1010200064008F5F809364008831A0F110926400A7
:1010300020916200E22FF0E0E35CFE4F3491223019
:1010400041F48091610090E083709070892B09F4E5
:101050003DE1809163008F5F80936300381790F4C7
:1010600091E090936300822F8F5F809362008D30B8
:1010700038F090936200809161008F5F80936100EF
:101080001092B7048091670067E00E948B0D9F5F0C
:101090009093670090916200933079F4809164009E
:1010A000823019F5809167008730F9F480916300F0
:1010B0008931D8F09093640008959A30B1F480910A
:1010C0006400833091F48091B704882371F4809197
:1010D0006700873051F480916300883130F082E0FE
:1010E0008093640081E08093B70408950F931F9369
:1010F000CF93DF9390916200E92FF0E0EE0FFF1F96
:10110000E85BFE4FC591D49180916300C80FD11D5B
:10111000933040F08091610090E083709070892B53
:1011200009F42196E0916100F0E08F010150104038
:10113000C80164E070E00E94AB0D9B01C8016CE93E
:101140007FEF0E94AB0D260F371F2E0F3F1F2B5F27
:101150003F4FC9018C0F9D1F67E070E00E94970D03
:101160008F5F80936700DF91CF911F910F9108955A
:10117000809361000E9476080895855F6CE00E946C
:101180008B0D9F5F909362000E9476080895282F30
:1011900080916200E82FF0E0E35CFE4F64918230C2
:1011A00041F48091610090E083709070892B09F484
:1011B0006DE12150822F860F0E948B0D9F5F9093CF
:1011C00063000E947608089583ED90E39BBD8ABD7D
:1011D0008AE08EBD80E188BF89B7806189BF0E94A7
:1011E00076080895F894E82FF0E081E090E00E2E64
:1011F00002C0880F991F0A94E2F72091BA02282BA7
:101200002093BA02E454FD4F608334B5822F21FD50
:1012100002C02FEF04C05091BD02252F231B82FF77
:101220000AC04091BE02842F90E0831B910930E0F8
:10123000281739070CF4452F4093BF02789408957E
:101240001F920F920FB60F9211242F933F934F933B
:101250005F938F939F938091BC028F5F8093BC02BA
:101260008091BC02843638F080916604826080935D
:1012700066041092BC022091BA02222309F455C0E0
:101280009091BC028091BF02891709F04EC0309145
:10129000BB0221FF0DC09091BC028091BD02981746
:1012A00039F432602D7F80916604846080936604F7
:1012B00022FF0DC09091BC028091BE02981739F4B4
:1012C00034602B7F80916604846080936604309341
:1012D000BB022093BA02322F21FF10C05091BD02F1
:1012E0002091BC02852F90E0821B91098F3F9105D0
:1012F00029F08091BC02952F981B02C050E09FEF0F
:1013000032FF10C04091BE028091BC02242F30E019
:10131000281B3109892F90E0281739071CF4809188
:10132000BC0201C0452F4093BF029F918F915F91F6
:101330004F913F912F910F900FBE0F901F901895D6
:10134000A8E0B0E0E6EAF9E00C94C20D6C01F62EDC
:10135000E22E8E010F5F1F4F4115510541F4F80138
:10136000CE0109961192E817F907E1F70CC0C80100
:10137000BA0148E050E00E94040EC801B80144ECF4
:1013800054E00E940D0D80E05E010894A11CB11C88
:1013900039E0632E712C6C0E7D1E37C0182F185F3C
:1013A0001F1558F01F1529F024EE822E24E0922EEE
:1013B00004C09CED892E94E0992EA5019401982FEC
:1013C0009F1528F4F601E90FF11DE08105C09F1576
:1013D00011F0E0E001C0E0E81F1518F0D9018C9190
:1013E000E827DA018C918E27FA018193AF012F5FF4
:1013F0003F4FE615F70511F09F5FE2CFC501B5013C
:1014000044EC54E00E940D0D812F8F1538F28E01AF
:101410000F5F1F4F6F2D70E0EE2099F0D601A60FE1
:10142000B71FF8019E012B5F3F4F9C918081981759
:1014300011F080E00FC011963196E217F307A9F77B
:1014400008C0C601860F971FB80144E050E00E9413
:10145000040E81E02896EEE00C94DE0DE199FECFBB
:101460009FBB8EBBE09A8DB30895E199FECF90E0CB
:10147000880F991F880F991F860F911D805C9F4FC1
:101480009FBB8EBBE09A8DB30895EF92FF920F93AE
:101490001F93CF93DF93082F8830C0F5E82EFF24E9
:1014A000E701C854DB4F188160E00E94350A181725
:1014B00069F11881802F62E00E94350A181738F010
:1014C0001881802F63E00E94350A811728F4802F4D
:1014D00061E00E94350A88839701220F331F220F93
:1014E000331F205C3F4F188180E02034380728F0FC
:1014F000C90183709070892B49F4E199FECF3FBBFD
:101500002EBB1DBBF894E29AE19A7894CDB7DEB772
:10151000E6E00C94E60DFF920F931F93CF93DF93B9
:10152000F82EC8EBD4E000E0FF2099F4802F60E0B3
:101530000E94350A182F8883802F62E00E94350AA6
:10154000181738F01881802F63E00E94350A811740
:1015500028F4802F61E00E94350A8883802F0E9442
:10156000450A0F5F083011F02196DECFCDB7DEB708
:10157000E5E00C94E70DAF81AA0FBFB7A7E00880A4
:10158000BFBF001CBFB7008221963196A150B8F7AB
:101590002897089597980895DA9808959091C00231
:1015A000963440F4E92FF0E0EE53FD4F80839F5FC7
:1015B0009093C00208958BB78F7D8BBF1092B902B4
:1015C0001092C0021092B80281E89AEC0E949F0724
:1015D00083E89AEC0E949F0788ED92E80E949F079B
:1015E00084E08093B9028BB780628BBF0E94DD00DC
:1015F0000895A8E0B0E0EFEFFAE00C94C80D7C018C
:10160000062F662341F110E06E010894C11CD11C25
:10161000C60161E670E04CEC54E00E940D0D809133
:1016200068008F5F80936800E12FF0E0D701AE0F74
:10163000BF1FE770F070EC0DFD1D8C919081892724
:101640008C931F5F101738F4812F90E08770907093
:10165000892B51F7DDCF2896E8E00C94E40D0F9329
:101660001F934091B802442309F4E2C060916704DB
:10167000262F30E02F773070C90106978A34910504
:1016800010F4403518F01092B802D2C050E0421762
:1016900053070CF4CDC08BB78F7D8BBF2417350754
:1016A0001CF46F776093B8026091B802862F90E0C7
:1016B000019623E0959587952A95E1F7209168009A
:1016C000280F20936800655088E694E041E650E0DA
:1016D00021E00E94A009182F2091B802822F90E0EB
:1016E000019668E070E00E94AB0D80916800861B57
:1016F00080936800265089E694E0622F0E94F90AE0
:10170000809168008F5F8093680087E694E0609125
:10171000B802412F0E94A30400916804112309F428
:1017200075C0979A6091BC02625E81E00E94F208E7
:1017300040E013C0FD01E20FF11D8381963430F4C7
:10174000E92FF0E0EE53FD4F80839F5F2F5F8C9178
:10175000281780F39093C002412F142F1F5F802F12
:101760006091C1020E94F00CDC01009721F0909181
:10177000C00220E0ECCF8091C1028F5F8093C10254
:101780008BB78F7D8BBF88E192E80E949F0787E629
:1017900094E062E671E044E050E00E94FB0D10929C
:1017A0006C044091C0024A5F4093600046508DE651
:1017B00094E062EC72E050E00E94040E60916000E0
:1017C00060936B0466508DE694E00E94F90A609184
:1017D000600065508CE694E041E650E020E00E9415
:1017E000A009809168008F5F8093680080916000FD
:1017F0008A5F809360001092B80282E08093B90201
:1018000088E392E80E949F07C4980DC01092B80226
:1018100084E08093B90281E89AEC0E949F0783E8F4
:101820009AEC0E949F078BB780628BBF0E94DD00FD
:101830001F910F9108950F931F93DA9A6091BC0244
:10184000625E82E00E94F2088BB78F7D8BBF88E1D9
:1018500092E80E949F0707E614E0C80162E671E083
:1018600044E050E00E94FB0D4091C002842F8B5F4A
:10187000806880936B040B5F1F4FC80162EC72E0BD
:1018800050E00E94040EC8016091C00240E050E0A8
:1018900020E00E94A0098091C002855F80936000D3
:1018A0001092B80282E08093B90288E392E80E9425
:1018B0009F07C4988BB780628BBF0E94DD001F9189
:1018C0000F9108950F931F93CF93DF938CED94E0C6
:1018D00068EB74E048E050E00E94040E84EE94E06F
:1018E00066E671E048E050E00E94FB0D20E030E049
:1018F000F901EC53FB4F822F805480832F5F3F4FC1
:1019000028313105A9F784EC94E0BC014CED54E09A
:101910000E940D0D8CEC94E0BC014CED54E00E9453
:101920000D0D84ED94E0BC014CED54E00E940D0DD2
:10193000ECEDF4E0119284E0E43EF807D9F78F0172
:1019400008501040B097C801B801AF010E940D0DBA
:10195000E801FE0110DEE4EEF4E00DDE9798DA987F
:10196000DF91CF911F910F910895582FE9E0F3E097
:1019700090E02FEF3081361729F48181841711F41C
:101980002FEF05C02F3F19F4332309F4292F9F5F50
:101990003796923379F72F3F19F420E030E012C0E8
:1019A00030E0C90173E0880F991F7A95E1F7821B37
:1019B000930BFC01E85FFC4F5083618342839C01E1
:1019C000255F3C4FC9010895982FE9E0F3E080813D
:1019D00089131082379684E0E736F807C1F7089537
:1019E000282FE9E0F3E090E08081821771F4818193
:1019F000861759F4442311F0415007C087E0989F9F
:101A000090011124285F3C4F06C09F5F37969233A8
:101A100059F720E030E0C90108952F923F924F928C
:101A20005F926F927F928F929F92EF92FF920F93AD
:101A30001F93CF93DB01FA012D903D904D905D9067
:101A40006D907D908D909D90DC0160E2062E2227A6
:101A50003327A901E89473018401C4E0EE0CFF1C54
:101A6000001F111FCA95D1F7B301C401C5E09695B7
:101A7000879577956795CA95D1F7E626F7260827C3
:101A80001927E60CF71C081D191D2EF4C32FC69547
:101A9000CC70E89405C0C22FC370CC0FCC0F6894F3
:101AA000EC0FF11D6081718182819381EC1BF0400C
:101AB000620F731F841F951FE626F7260827192734
:101AC000E20CF31C041D151D13012401370148010C
:101AD0004EF4C9EB2C0FC9E73C1FC7E34C1FCEE9FE
:101AE0005C1FB9CF0A9409F0B6CF2D923D924D926A
:101AF0005D926D927D928D929D92CF911F910F91EB
:101B0000FF90EF909F908F907F906F905F904F909D
:101B10003F902F900895991B79E004C0991F961764
:101B200008F0961B881F7A95C9F780950895AA1B1F
:101B3000BB1B51E107C0AA1FBB1FA617B70710F0B8
:101B4000A61BB70B881F991F5A95A9F780959095EA
:101B5000BC01CD01089597FB092E07260AD077FD19
:101B600004D0E5DF06D000201AF4709561957F4F10
:101B70000895F6F7909581959F4F08952F923F9283
:101B80004F925F926F927F928F929F92AF92BF928D
:101B9000CF92DF92EF92FF920F931F93CF93DF9339
:101BA000CDB7DEB7CA1BDB0B0FB6F894DEBF0FBE96
:101BB000CDBF09942A88398848885F846E847D84E3
:101BC0008C849B84AA84B984C884DF80EE80FD80E5
:101BD0000C811B81AA81B981CE0FD11D0FB6F8945B
:101BE000DEBF0FBECDBFED010895EE0FFF1F0590C4
:101BF000F491E02D0994FB01DC0102C005900D92E7
:101C000041505040D8F70895FB01DC0102C001901B
:0E1C10000D9241505040D8F70895F894FFCF40
:0A1C1E00060901010C00000000009F
:02000004008278
:02000000A091CD
:00000001FF
