S01700006F70656E485232305F637573746F6D2E7372656365
S11300000C9464000C94CF0F0C944F0C0C94EB08DC
S11300100C9481000C94EA120C9481000C946605F3
S11300200C9481000C9481000C9481000C94810048
S11300300C9481000C9481000C9481000C94810038
S11300400C9481000C9481000C9481000C94810028
S11300500C9481000C9481000C9443070002030467
S113006005060708090A3935423E0C0D0E0F10111A
S11300701213141502031B1918000128241F1B3F17
S1130080065B4F666D7D077F6F777C395E797163A0
S113009054737630084001484111495054105C00B3
S11300A033273800001F003B005A0078009700B542
S11300B000D400F300110130014E011F1C1F1E1F4C
S11300C01E1F1F1E1F1E1F0011241FBECFEFD4E0D2
S11300D0DEBFCDBF11E0A0E0B1E0E6EBFFE202C07D
S11300E005900D92A033B107D9F722E0A0E3B1E067
S11300F001C01D92A935B207E1F70E9456090C947C
S1130100D9170C940000209177013091780140E0D8
S113011050E060E070E381E190E00E942C14C9019A
S113012008958F929F92AF92BF92CF92DF92EF92F7
S1130130FF920F931F93CF93DF93EC01E0911C0187
S1130140E230A0F08091100190911101C817D907F5
S113015078F0A2E1B1E091E005C04D915D91C41742
S1130160D50740F09F5F9E13F8CF05C0E1E003C0C0
S1130170E1E001C0E92FF0E0AF0141505109440F23
S1130180551FDA01A050BF4FCD90DC90E12CF12C2B
S1130190EE0FFF1FDF01A050BF4F6D917C91CB018B
S11301A0A0E0B0E0BC01CD016C197D098E099F0966
S11301B0DA01A25FBE4F8D909C90A12CB12C8E01D0
S11301C020E030E0A9019801281939094A095B099E
S11301D00E94F413E25FFE4F20813181890120E007
S11301E030E0A9019801281939094A095B090E94DC
S11301F04E14C701B601620F731F841F951FDF9150
S1130200CF911F910F91FF90EF90DF90CF90BF900F
S1130210AF909F908F90089580914A0190914B01E7
S11302200E949100611520E872072FEF8207920760
S113023044F0611520E87207810591052CF4CB0187
S1130240089580E090E808958FEF9FE70895EAE726
S1130250F0E0908190689083ACE7B0E08C938C914F
S113026080648C93808180648083808186FDFDCF4F
S11302708091780080917900EAE7F0E080818064E1
S11302808083808186FDFDCF209178008091790064
S1130290EAE7F0E090819F77908390E0982F882799
S11302A0820F911D08958EE10E9427019093780199
S11302B08093770108958B9A82E00E94270190939E
S11302C04B0180934A018B9808952F923F924F924D
S11302D05F926F927F928F929F92AF92BF92CF92D2
S11302E0DF92EF92FF920F931F93CF93DF9380914E
S11302F0560290E020916E0130916F0182179307AE
S113030049F1C0913201D09133010E940C01CC0F0C
S1130310DD1FC25BDE4F9983888380913201909107
S1130320330101968F709078992324F40197806F9C
S11303309F6F019690933301809332018091300135
S113034090913101803191052CF401969093310103
S113035080933001609030017090310116141704BD
S11303609CF5EEE4F1E0C301880F991F9C01225B28
S11303703E4F4901412C512CD0E0C0E0B0E0A0E058
S1130380212C312C808131813296282F932F990F83
S1130390990B492F592F692F792F892FA42CB52C0C
S11303A0CD2EDC2EEB2EFA2E022D132D0E94E614F8
S11303B0422E532ED42FC52FB62FA72F282E392ED9
S11303C0E815F905F9F608C0412C512CD0E0C0E03D
S11303D0B0E0A0E0212C312C8091560290E0909363
S11303E06F0180936E01172D110F110BA62CB72CE2
S11303F0C12ED12EE12EF12E012F242D352D4D2F7E
S11304005C2F6B2F7A2F822D932D0E948914822FBB
S1130410932FDF91CF911F910F91FF90EF90DF9079
S1130420CF90BF90AF909F908F907F906F905F9090
S11304304F903F902F9008952091380130913901C9
S1130440A901440F551F240F351F3695279536955E
S113045027958217930790F04F9780F0809134018D
S113046090913501A0913601B091370180933F01FD
S113047090934001A0934101B09342018FEF9FEF0D
S113048090933901809338010895CF92DF92EF92CF
S1130490FF921F93CF93DF93811104C08091440195
S11304A0811123C081E090914401911101C080E049
S11304B00E9421138823C9F0809344019091200164
S11304C0992399F08093450190911D0199236CF42F
S11304D090912101891749F010921D0180911E010C
S11304E090911F01009741F4BAC180911E0190912F
S11304F01F01009709F4B6C19C01215031093093C2
S11305001F0120931E0180911D01181624F48150AF
S113051080931D01F9C12115310511F08111F4C138
S1130520C0914501CA3008F4D4C1809143018111BE
S1130530D0C1D1E0809121018C1301C0D0E0D11150
S113054003C0232B09F087C180EF90E090931F0133
S113055080931E01CD3308F075C110917D010E9476
S1130560650122E3C29F600111249C01992314F4C4
S11305702F5F3F4F35952795C601821B930B80351E
S11305804BEF940714F480E59BEF6C01813B94409E
S113059034F00F2EF0EBCF2EF4E0DF2EF02DC60159
S11305A0DD2024F4882799278C199D097C01DD23FB
S11305B021F188E2809379018EE180937A0186E0CB
S11305C080937E0180913C0190913D010E941C0228
S11305D0F0923901E092380180913F0190914001FD
S11305E0A0914101B091420180933401909335016F
S11305F0A0933601B093370184C080917E018111AC
S11306006DC080917A01882321F0815080937A0112
S113061002C010927901DD202CF081E0143630F014
S113062080E004C081E0111101C080E0882309F456
S11306304DC020913E0130E08D2D99278078992777
S11306402817390761F480913A0190913B01E8162B
S1130650F90661F480E1E816F1040CF043C188E284
S1130660809379018EE180937A0111C02091790100
S1130670121684F5E816F906A0F1C70169E170E0E5
S11306800E941814862F8095280F20937901C601A3
S1130690880F991F880F991F880F991F092E000C26
S11306A0AA0BBB0B40913F01509140016091410165
S11306B070914201840F951FA61FB71F80933F01BD
S11306C090934001A0934101B0934201809179013C
S11306D018163CF0C7010E941C0203C0815080938D
S11306E07E0180913C0190913D0190933B01809368
S11306F03A01F0923D01E0923C018D2D8078809387
S11307003E0180913F0190914001A0914101B0913F
S11307104201813020E9920721E0A207B1056CF083
S113072080E090E9A1E0B0E080933F019093400124
S1130730A0934101B093420111C081159047AE4F7F
S1130740BF4F64F480E090E7AEEFBFEF80933F01CA
S113075090934001A0934101B09342010D2C000CF1
S1130760EE08FF08D701C601880F991FAA1FBB1FF7
S1130770880F991FAA1FBB1F880F991FAA1FBB1F91
S1130780880F991FAA1FBB1F880F991FAA1FBB1F81
S1130790BC01CD016C0D7D1D8E1D9F1DA701960111
S11307A00E94F413BB2797FDBA95A92F982F872F82
S11307B0BC01CD01785F8F4F9F4F0E94F413C0900E
S11307C03F01D0904001E0904101F0904201CC0CF7
S11307D0DD1CEE1CFF1CCC0CDD1CEE1CFF1CCC0C29
S11307E0DD1CEE1CFF1CCC0CDD1CEE1CFF1CCC0C19
S11307F0DD1CEE1CFF1CDC01CB018C0D9D1DAE1D10
S1130800BF1D9D96892F9A2FAB2FBB27A7FDBA95A5
S1130810813054E69507A105B105B4F4BB23B4F0C7
S1130820292F3327612F70E041E0261737070CF496
S113083040E0442319F0805C9F4F02C080549F4FD6
S1130840892F05C084E603C084E601C080E0C0931C
S1130850210180937D018FEF80931D0155C020E01D
S113086030E05ECE80911D0118160CF450CEF7CF07
S113087080EF90E090931F0180931E0110917D0101
S11308800E94650199230CF401969595879524EFB0
S113089031E0A901481B590BCA0180355BEF95076C
S11308A014F480E59BEF6C0181EBC81684E0D80654
S11308B034F00F2EF0EBCF2EF4E0DF2EF02DC60136
S11308C0DD2024F4882799278C199D097C01CAE02E
S11308D070CED1E0809121018A3009F4D0E0DD238B
S11308E079F0C6CF2091790112160CF4C6CEF2CE5F
S11308F080EF90E090931F0180931E01CAE02DCEFB
S1130900232B09F0A8CFF4CFDF91CF911F91FF9053
S1130910EF90DF90CF90089590914501890F893031
S113092020F489E08093450108C08E3318F4809345
S1130930450103C08DE3809345011092430189E092
S113094080931D010895F999FECF92BD81BDF89A57
S113095080B508951F93CF93DF9390912201981748
S1130960B9F0C82FD0E0CC0FDD1FC451DF4FCE014A
S113097001960E94A304182FCE010E94A304212FE4
S113098030E0322F2227A901480F511DCA0104C0AB
S113099080917F0190918001DF91CF911F91089503
S11309A080915602869590914701891709F444C0B5
S11309B080934701809146018F5F80934601813087
S11309C019F0823039F136C00E9453010E940C01A3
S11309D02091B0013091B1018217930721F09093D7
S11309E0B1018093B0012091B2013091B301281775
S11309F0390720F49093B3018093B2012091AE01A2
S1130A003091AF0182179307B8F49093AF018093AC
S1130A10AE0108950E945B010E9483002091AC0105
S1130A203091AD018217930739F09093AD01809313
S1130A30AC0108951092460108950E940C01ECEA5D
S1130A40F1E09583848397838683938382830895D7
S1130A500E941D050895FC019081933769F48181FA
S1130A60909145018917A1F025EF280F213380F4D7
S1130A70891B0E948C040895973651F48181823633
S1130A8029F0843729F40E940C0108950E94830000
S1130A900895E1E8F0E080818A60808383E08093B8
S1130AA0890088EE809388007894EFE6F0E08081F6
S1130AB0826080830895F8946091B4017091B501C7
S1130AC08091B6019091B701789408951F920F9286
S1130AD00FB60F9211248F939F93AF93BF9380917E
S1130AE0B4019091B501A091B601B091B7010196FE
S1130AF0A11DB11D8093B4019093B501A093B601DB
S1130B00B093B701BF91AF919F918F910F900FBE9A
S1130B100F901F9018959091E700882369F09F70BB
S1130B20813021F49F3068F49F5F07C08F3F29F420
S1130B30992349F0915001C09EE09093E70081E031
S1130B40089580E0089580E00895482F50E0817072
S1130B50819520E030E0F901E554FE4F80832F5F5A
S1130B603F4F29303105B9F7CA01959587958170B2
S1130B70282F219580E090E0FC01E554FE4F218769
S1130B80019689309105C1F781E08093BA010895F7
S1130B9080E00E94A50580E00E948B0583EA809393
S1130BA0E50086E08093E600E4EEF0E080EC8083EC
S1130BB08081886080830895E82FE695E695E69520
S1130BC0877021E030E0A90102C0440F551F8A95C7
S1130BD0E2F7CA01242F2095462F60FD08C0AE2FEE
S1130BE0B0E0A554BE4F3C9132233C9307C0AE2FD6
S1130BF0B0E0A554BE4F3C91382B3C9341FF07C055
S1130C00F0E0E554FE4F9185892B81870895F0E04B
S1130C10E554FE4F8185282321870895CF92DF92E2
S1130C20EF92FF920F931F93CF93DF93643040F5BD
S1130C30853230F5E42EE62FF0E0E558FF4F0491BD
S1130C40E82FF0E0E158FF4FF490C4E7D0E00F2E16
S1130C50FBE7CF2EF0E0DF2EF02D11E0FE018491B2
S1130C60800F9F2D912321F06E2D0E94DC0503C07F
S1130C7060E00E94DC05110F2196CC15DD0571F7AB
S1130C80DF91CF911F910F91FF90EF90DF90CF9064
S1130C9008951F93CF93DF936230E0F48436D0F449
S1130CA0D42FC62FCC0F1DEC819F112D1124169526
S1130CB016951695212F220F922F990F990F920FA7
S1130CC06C2F891B0E940E0661E06C0F4D2F812F43
S1130CD00E940E06DF91CF911F9108951F93CF9329
S1130CE0DF93182FC62F60E083E20E94DC05111108
S1130CF019C04C2F63E080E00E940E064C2F62E086
S1130D008FE00E940E064C2F61E08FE00E940E06D9
S1130D104C2F60E080E20E940E0660E08BE30E94AC
S1130D20DC0566C01433C9F44C2F63E080E00E94F4
S1130D300E064C2F62E081E10E940E064C2F61E00A
S1130D4080E20E940E064C2F60E080E20E940E06B4
S1130D5060E08BE30E94DC054BC01533C8F04C2FD8
S1130D6063E080E20E940E064C2F62E08EE00E9457
S1130D700E064C2F61E08CE10E940E064C2F60E0C1
S1130D808CE10E940E0660E08BE30E94DC0530C01B
S1130D90212F30E021503109C90199230CF4019627
S1130DA095958795D5E0D80FDA3058F44C2F63E049
S1130DB080E20E940E064C2F62E08D2F0E940E06E8
S1130DC005C04C2F61E08D2F0E94490610FF02C020
S1130DD080E001C085E04C2F61E00E940E064C2F9C
S1130DE060E08CE00E940E066C2F8BE30E94DC0511
S1130DF0DF91CF911F910895E82FF0E0E45AFF4F5F
S1130E0084910E94DC0508951F93CF93DF93162FDE
S1130E10D82F883108F0D7E1C0E0DC1305C0612F7A
S1130E208C2F0E94FC0604C060E08C2F0E94FC06FC
S1130E30CF5FC83191F7DF91CF911F91089540E0C2
S1130E4063E080E20E940E0640E062E080E20E94DD
S1130E500E0640E061E080E20E940E0640E060E0A1
S1130E6080E20E940E0660E08BE30E94DC0560E0F5
S1130E7083E20E94DC0581E08093BA01089581E059
S1130E808093BA0108951F920F920FB60F92112406
S1130E908F939F93EF93FF938091B801811105C0C5
S1130EA01092B90181E08093BA018091B801883130
S1130EB029F481E08093B9018093BA018091BA0149
S1130EC0882309F4A2C08091B90190E0FC01EE0FDF
S1130ED0FF1FEE0FFF1FEE0FFF1F8E0F9F1FFC0162
S1130EE0E554FE4F80818093EC008091B90190E03D
S1130EF0FC01EE0FFF1FEE0FFF1FEE0FFF1F8E0F03
S1130F009F1FFC01E554FE4F81818093ED00809189
S1130F10B90190E0FC01EE0FFF1FEE0FFF1FEE0F73
S1130F20FF1F8E0F9F1FFC01E554FE4F82818093AB
S1130F30EE008091B90190E0FC01EE0FFF1FEE0F6F
S1130F40FF1FEE0FFF1F8E0F9F1FFC01E554FE4F86
S1130F5083818093F1008091B90190E0FC01EE0F50
S1130F60FF1FEE0FFF1FEE0FFF1F8E0F9F1FFC01D1
S1130F70E554FE4F84818093F2008091B90190E0A2
S1130F80FC01EE0FFF1FEE0FFF1FEE0FFF1F8E0F72
S1130F909F1FFC01E554FE4F85818093F3008091EF
S1130FA0B90190E0FC01EE0FFF1FEE0FFF1FEE0FE3
S1130FB0FF1F8E0F9F1FFC01E554FE4F8681809317
S1130FC0F6008091B90190E0FC01EE0FFF1FEE0FD7
S1130FD0FF1FEE0FFF1F8E0F9F1FFC01E554FE4FF6
S1130FE087818093F7008091B90190E0FC01EE0FB6
S1130FF0FF1FEE0FFF1FEE0FFF1F8E0F9F1FFC0141
S1131000E554FE4F80858093F8008091B8018F5F8E
S11310108093B8018091B801813310F01092B80127
S1131020FF91EF919F918F910F900FBE0F901F90A2
S113103018951F93CF93DF93182F63E08CE20E94DF
S1131040DC0580910F02882349F01170C12F80E0E4
S1131050D82FCD5EDD4F88818093CD01DF91CF9174
S11310601F910895E1E6F0E080E8808391E09083A9
S113107080BF8FEF80937E0080E984B988E183BBD1
S113108088E08DB980BB80E480BB84B18E6084B974
S113109081E685B981E280936C0080EC8DBB0E946F
S11310A0C80589E198E00E9498120E94B10A0E9442
S11310B028050895CF9387E00E94D31282E00E940E
S11310C0DC1288E00E94E51286E10E9475108DE131
S11310D00E947A1080E00E947F10E3E1F2E08BEA44
S11310E080838FE68183C0E044EA60E08C2F0E9415
S11310F084104CE161E08C2F0E94841040EC62E08B
S11311008C2F0E9484104CEE63E08C2F0E9484107C
S1131110CF5FC73049F710920E021092CE011092A1
S113112012021092D0011092CF011092100210926C
S1131130160210921502CF910895CF93809317024F
S113114081E0809311021092CE01C4E380911102D8
S1131150882369F080911702853310F0C093170239
S11311608091170263E00E946E060E943F078091FF
S1131170CE01813059F78091120282FFE7CF80912E
S11311801702CF9108950F931F93CF93C82F8823ED
S1131190A1F00E94D210082F017010E0F801ED5E5A
S11311A0FD4F80818093CD0163E088E10E94DC05DE
S11311B060E082E30E94DC0508C060E088E10E94F0
S11311C0DC0563E082E30E94DC05C0930F02CF914B
S11311D01F910F9108951F920F920FB60F92112431
S11311E08F939F9383B180958F7680931202909111
S11311F0D00180911202981709F43FC08091120225
S11312008093D0018091120280768093CF019091D7
S1131210CF0180911002981769F18091CF018093DA
S113122010028091CF01803221F08091CF0180346F
S113123069F4809117028F3FE9F0809117028F5F64
S11312408093170281E08093110214C08091CF0132
S1131250882321F08091CF01803661F480911702B8
S1131260882341F08091170281508093170281E016
S11312708093110281E08093CE019F918F910F9012
S11312800FBE0F901F9018959C010CC09FEF00009B
S11312909150E9F79FEF00009150E9F79FEF0000AC
S11312A09150E9F72150310988F70895CF93DF93DE
S11312B0CDB7DEB76A970FB6F894DEBF0FBECDBFC9
S11312C00E9432080E945A08789481E08093CE01EB
S11312D00E9453010E945B0141E264E081EB91E0D2
S11312E00E94260E80E00E94670D8EE10E94E20CAF
S11312F080E090E00E94F40D80E50E948C040F2EA3
S1131300F3E08F2EF02D0F2EF3E66F2EF02D712CBF
S1131310CE0101967C018E010F5E1F4F0F2EF6E267
S1131320AF2EF1E0BF2EF02D992493940E94DA0D94
S1131330882329F1F701DF01AE19BF09AF52BE4F6F
S11313408C918193E017F107B1F7C7010E942B0537
S11313508091450186951F928F93BF92AF921F9300
S11313600F930E94EF1420E04AE0B80183E00E944A
S1131370870F0F900F900F900F900F900F9080E0B9
S11313800E94C3080E9465010E945B010E940C0137
S113139090915602892D913009F080E00E94450217
S11313A080917D01282F30E0C216D30639F060E029
S11313B00E94DA0AC0907D01D12C01C0690180919C
S11313C0CE01882309F46DC01092CE015090120210
S11313D0852D89258170582E8091120283FF0DC0BE
S11313E085E00E948C048A9463E0882D0E9404079F
S11313F063E088E10E94DC0504C060E088E10E94AB
S1131400DC058091120281FF0DC08BEF0E948C04D9
S113141099E089120BC08091CD010E949D088093B0
S1131420CD0104C060E082E30E94DC0580911202D9
S113143082FF0EC044244394480C63E082E0880D8C
S11314400E94040763E08AE10E94DC05842C04C046
S113145060E08AE10E94DC05751401F1852D0E948B
S1131460D30A5520E9F00E941F0743E063E08CE0B3
S11314700E940E0643E062E08AE00E940E0643E00A
S1131480692D83E20E940E060E943F0760E08AE015
S11314900E943A0B0E941F07752C03C0752C01C0D3
S11314A0752C0E94770A882351F0809156026816A1
S11314B029F00E94360C6090560201C0682E80917B
S11314C012020E94D0048091450143E060E08695B9
S11314D00E94490643E0692D80917D010E944906DE
S11314E00E943F0784E690E00E9444091FCF909138
S11314F01D0281E0911101C080E0089581110CC0AA
S1131500EBE6F0E090819F7E90837398A398A49873
S11315102F9898E494BD22C090911D028917F1F090
S1131520739A90E190936B00611103C092EF97BDA1
S113153002C092EB97BD2FEF3FEF3093210220932F
S11315402002823031F4A39AA4982F9899E694BD8E
S113155005C0A398A49A2F9A99E794BD80931D027D
S1131560089510921C0210921B0210921A021092FB
S1131570190210921F0210921E0260E080E00E9485
S11315807E0A089510921C0210921B0210921A02F5
S11315901092190210921F0210921E0260E080E065
S11315A00E947E0A089580931802811102C00E944D
S11315B0C20A0895462F2091190230911A02232B52
S11315C009F454C0843651F48091190290911A029E
S11315D0C29690931F0280931E0227C081110EC0F1
S11315E010921F0210921E0280911B0290911C0205
S11315F0C29690931C0280931B0217C0609119023B
S113160070911A02869F9001879F300D11243695A0
S1131610279536952795ABE7B4E10E946D1496950E
S1131620879590931F0280931E02642F20911B02C2
S113163030911C0280911E0290911F028217930721
S113164028F482E00E947E0A81E0089520911B0222
S113165030911C0280911E0290911F0228173907B5
S113166038F481E00E947E0A81E0089580E00895C4
S113167081E008950F931F93CF93DF93082F162FC4
S1131680833308F46EC088EE93E090931C02809339
S11316901B0210921F0210921E0282E00E947E0A18
S11316A0C0911B02D0911C0288EC90E00E94440976
S11316B080911D02882359F080911B0290911C0295
S11316C0C817D90721F0809118028111E9CF8091C0
S11316D01D02882309F4BEC080911802882309F4EE
S11316E0C0C0612F80E00E947E0A10921C021092FA
S11316F01B0288EE93E090931F0280931E02612FD9
S113170081E00E947E0AC0911B02D0911C0288ECE9
S113171090E00E94440980911D02882359F0809131
S11317201B0290911C02C817D90721F0809118025E
S11317308111E9CF80911D02882309F48DC0809125
S11317401802882309F48DC0612F80E00E947E0A6C
S113175080911B0290911C0290931A0280931902AB
S113176073C010921C0210921B0288EE93E09093B7
S11317701F0280931E0281E00E947E0AC0911B0218
S1131780D0911C0288EC90E00E94440980911D02D3
S1131790882359F080911B0290911C02C817D90725
S11317A021F0809118028111E9CF80911D028823D4
S11317B009F454C080911802882309F452C0612F9F
S11317C080E00E947E0A88EE93E090931C0280934E
S11317D01B0210921F0210921E02612F82E00E94CF
S11317E07E0AC0911B02D0911C0288EC90E00E94FA
S11317F0440980911D02882359F080911B02909125
S11318001C02C817D90721F0809118028111E9CF71
S113181080911D02882321F180911802882309F107
S1131820612F80E00E947E0A20911B0230911C02ED
S113183088EE93E0821B930B90931A028093190213
S113184010921C0210921B02612F802F0E94DA0A50
S113185081E007C080E005C080E003C080E001C0F3
S113186080E0DF91CF911F910F91089520911B0289
S113187030911C028091200290912102281739078F
S113188029F460E080E00E947E0A089580911B02A2
S113189090911C02909321028093200208951F923C
S11318A00F920FB60F9211242F933F934F935F9390
S11318B06F937F938F939F93AF93BF93EF93FF9314
S11318C0649B35C080911D028130C9F480911B0254
S11318D090911C02019690931C0280931B0220910C
S11318E01B0230911C0280911E0290911F02281746
S11318F03907E8F060E080E00E947E0A18C0809119
S11319001B0290911C02019790931C0280931B026E
S113191020911B0230911C0280911E0290911F02A3
S11319208217930720F060E080E00E947E0AFF9116
S1131930EF91BF91AF919F918F917F916F915F9143
S11319404F913F912F910F900FBE0F901F901895BC
S113195080914901811101C0789408955A98F894AE
S113196008955A9A0E94A80C0895CF93C82F0E94F4
S1131970AE0C8C2F8F770E94EE1380E00E94EE1342
S1131980C82F0E94B10C8C2FCF910895CF93DF9371
S1131990D82FC62F0E94AE0C8D2F80680E94EE13A4
S11319A08C2F0E94EE130E94B10CDF91CF91089509
S11319B0682F89E30E94C60C0895682F80E30E9473
S11319C0C60C0895CF93C82F80912401813009F467
S11319D0C69581E10E94B50C807E682F6C2B81E155
S11319E00E94C60CCF910895813049F46DE58AE5D3
S11319F00E94C60C6CE78CE50E94C60C089565E550
S1131A008AE50E94C60C60E78CE50E94C60C089526
S1131A10CF9390912501981709F457C0C82F8230AD
S1131A2069F128F48823F1F1813091F14EC08330BB
S1131A30A1F0843009F049C081E00E94B50C837E96
S1131A40682F6C6081E00E94C60C80912401882379
S1131A5089F181E00E94F40C2DC081E00E94B50C54
S1131A60837E682F606181E00E94C60C809124010E
S1131A70882301F180E00E94F40C1CC081E00E94E4
S1131A80B50C837E682F686081E00E94C60C12C08A
S1131A9081E00E94B50C837E682F646081E00E941F
S1131AA0C60C08C081E00E94B50C682F637E81E0FB
S1131AB00E94C60C90912501911105C087E20E94F5
S1131AC0B50C8823BCF7C0932501CF91089580936A
S1131AD02401811102C06AE101C06FE083E10E9428
S1131AE0C60C80912401813051F481E10E94B50C2F
S1131AF08F71682F606681E10E94C60C0895609121
S1131B002301606881E10E94C60C0895813049F484
S1131B1061E083E20E94C60C83E20E94B50C81FF5F
S1131B20FBCF84E20E94B50C90E0919581959109D8
S1131B30959587950895CF9380912501833079F405
S1131B40C0912C02C1110DC080E00E94860D863A1E
S1131B509F4F44F481E00E94080DC1E003C0C0E03F
S1131B6001C0C0E08C2FCF91089510922B021092E7
S1131B702A0210922E0210922C0210922D02109220
S1131B802702109229021092280288E20E94B50CC2
S1131B9082FF08C08DE30E94B50C682F64608DE35A
S1131BA00E94C60C60E485E20E94C60C83E00E9499
S1131BB0080D0895F89480912501833049F48091AB
S1131BC02C02882329F081E00E94080D81E0089509
S1131BD080912501833019F4789480E008950E945F
S1131BE0B50D789480E00895EF92FF920F931F93C0
S1131BF0CF93DF937C0181E00E94080DE114F1048E
S1131C0089F00E94AE0C8EEB0E94EE13E70187016F
S1131C10005F1F4F89910E94EE13C017D107D1F7BF
S1131C200E94B10C8DE30E94B50C8E7F91E0EF28E9
S1131C3009F490E0682F692B8DE30E94C60CDF91B4
S1131C40CF911F910F91FF90EF900895FF920F9302
S1131C501F93CF93DF93CDB7DEB7AE970FB6F8944B
S1131C60DEBF0FBECDBF062FF42E21E0298334E062
S1131C703A8322E02B831C8223E02D834DE04E83A4
S1131C803F8335E0388739872A8726E02B8723E38B
S1131C902C8727E02D878B3321E0920709F4A4C019
S1131CA0813B21E0920709F499C08436934009F0FE
S1131CB0A1C0A6C0888B89E0898B1A8A89E18B8BA5
S1131CC092E49C8B85E28D8B80E48E8B86E28F8BF5
S1131CD087E0888F88E2898F80E18A8F89E28B8F01
S1131CE08CED8C8F8EE28D8F88E88E8F8FE28F8FB4
S1131CF08DE288A380E389A3FAA227E32BA320E93A
S1131D002CA328E32DA39EA39CE39FA39FE898A75D
S1131D109DE399A792E19AA79FE69BA78CA78FEFD3
S1131D208DA71EA60E94E013529A5A9A519804C095
S1131D306AEA8FE20E94C60C8FE20E94B50C8A3ACE
S1131D40B9F704C065E58FE20E94C60C8FE20E94D9
S1131D50B50C8535B9F789818F3FE9F020E030E093
S1131D6010E0220F331FE1E0F0E0EC0FFD1FE20F63
S1131D70F31F61810E94C60C1F5F212F30E0F9011F
S1131D80EE0FFF1F81E090E08C0F9D1FE80FF91FFD
S1131D9080818F3F31F780E090E00E94F40D8091C4
S1131DA024010E94670D81E00E94080D87E20E94D1
S1131DB0B50C8823DCF7E9E6F0E08081836080835A
S1131DC0E89A109249010E94490500932602802F47
S1131DD00E94D80C8F2D0E94DD0C18C08CE68E87D3
S1131DE088E08F8780E466CF8EE48E8788E08F87D3
S1131DF080EC60CF84EE8E8788E08F8780EC5ACFAA
S1131E0089ED8E8788E08F8780E054CFAE960FB639
S1131E10F894DEBF0FBECDBFDF91CF911F910F911C
S1131E20FF900895EF92FF920F931F93CF93DF9348
S1131E30C82F7B01142FD22F81E00E94080D87E266
S1131E400E94B50C8823DCF760E085E20E94C60C92
S1131E501E3308F01DE3013021F0D13021F4D0E429
S1131E6003C0D0E801C0D0E00E94AE0C80E80E941C
S1131E70EE1383E0810F0E94EE138C2F0E94EE1369
S1131E80809126020E94EE138D2F0E94EE131123DF
S1131E9071F0E7011150012F10E00F5F1F4F0E0D7D
S1131EA01F1D89910E94EE13C017D107D1F70E941C
S1131EB0B10C84E00E94080D0E945B05609322022D
S1131EC0709323028093240290932502499915C0AC
S1131ED00E945B05009122021091230220912402AA
S1131EE030912502DC01CB01801B910BA20BB30BBB
S1131EF0883E9340A105B10548F381E00E94080D96
S1131F00DF91CF911F910F91FF90EF900895DF9291
S1131F10EF92FF920F931F93CF93DF93F82EEB0171
S1131F20E42ED22E8DE30E94B50C682F64608DE3FD
S1131F300E94C60C0E945B056093220270932302E8
S1131F40809324029093250202C00E94DA0D0E941D
S1131F509B0D811115C00E945B0500912202109116
S1131F6023022091240230912502DC01CB01801B45
S1131F70910BA20BB30B883E9340A105B10528F346
S1131F8000E02D2D4E2DBE018F2D0E94120FDF91EA
S1131F90CF911F910F91FF90EF90DF9008951F92C2
S1131FA00F920FB60F9211240F931F932F933F9309
S1131FB04F935F936F937F938F939F93AF93BF934D
S1131FC0CF93EF93FF9381E08093490180912501A2
S1131FD0833009F06DC088E20E94B50C82FF68C0AE
S1131FE081E00E94080D0E94AE0C80E00E94EE1376
S1131FF080E00E94EE1380932C0280912C028334A3
S113200018F082E480932C0280E00E94EE13809307
S11320102E028091480181110AC090912E02809174
S11320202602981721F080912E028F3F21F480918F
S11320302C02833038F410922C020E94B10C0E94BE
S1132040B50D3FC080912C02835080932B0280E019
S11320500E94EE1380932A0280E00E94EE13982FD0
S1132060907890932702807480932D0280912B02A4
S1132070882379F0C0E00C2F10E080E00E94EE137A
S1132080F801EF52FE4F8083CF5F80912B02C81777
S113209090F380912B028D3330F4E0912B02F0E029
S11320A0EF52FE4F10820E94B10C83E00E94080D93
S11320B080E00E94860D909329028093280210925A
S11320C04901FF91EF91CF91BF91AF919F918F9172
S11320D07F916F915F914F913F912F911F910F913C
S11320E00F900FBE0F901F901895883110F48093B5
S11320F0360208958C3310F480932F0208958C33A4
S113210010F480935602089524E0829FC0011124A4
S1132110FC01E85CFD4FE60FF11D408308950F9329
S11321201F93CF93DF93C7E0D0E01FEFE7E0F0E029
S11321308091310290E00696BF010E94181421E0BC
S113214030E09927880F991F880F991F885C9D4F4D
S1132150B901DC01A20FB31F4C91D417A0F4DC0128
S1132160A20FB31F4C91403F70F44091310250E0F4
S1132170440F551F440F551F485C5D4FDA01A60FED
S1132180B71FDC91122F2F5F3F4F2430310501F729
S11321901F3F11F4C15061F6812FDF91CF911F9140
S11321A00F910895CF93C091360280912F02CC0FE6
S11321B09C2F990F990FC90F9DEC899F812D112494
S11321C0869586958695C80F0E948F1021E030E091
S11321D070E0E0913102F0E0A901EE0FFF1FEE0F75
S11321E0FF1FE85CFD4FE20FF31F90817917E0F4C5
S11321F0E0913102F0E0EE0FFF1FEE0FFF1FE85CED
S1132200FD4FE20FF31F9081C91770F080913102E6
S113221090E0880F991F880F991F885C9D4FFC01DF
S1132220E40FF51F7081822F2F5F3F4F243031055B
S113223081F6CF9108959091580289E2989F812D5B
S1132240112482958F7024E6829F9019112499237A
S113225021F0809158028370089580E00895809160
S11322605702823039F0E0915702F0E0E554FF4F15
S1132270849108950E941B11811102C08DE108957B
S11322808CE108950E942F11209137022F5F209333
S1132290370230E090E001962817390789F581E08C
S11322A080933702809157028F5F809357028D305D
S11322B041F481E080935702809158028F5F8093AC
S11322C05802809157028B3011F4109230028091A1
S11322D031028F5F809331022091310285E2289F81
S11322E0912D1124822F891B8695890F86958695B9
S11322F0982F990F990F990F981B291B209331023E
S1132300089580915702833039F0809157028A30C2
S1132310C1F42EE130E002C02FE130E080913702B9
S113232090E02750310902C0880F991F2A95E2F7DF
S1132330892B49F49091310281E0973029F080E0B3
S1132340089580E0089580E008951F93CF93DF936C
S1132350809156028F5F809356028C3309F08BC0B4
S11323601092560280912F028F5F80932F028C333C
S113237009F070C010922F02809136028F5F809313
S11323803602883121F4109236020E944211809163
S11323905702833069F480913602823049F40E94F6
S11323A08111882329F0809136028F5F8093360251
S11323B0809157028A3009F04DC0809136028330F3
S11323C009F048C080913002811144C00E948111FB
S11323D0882309F43FC080913602815080933602ED
S11323E081E08093300236C0C0E0D0E01DECE09183
S11323F03102F0E0EE0FFF1FEE0FFF1FE85CFD4F10
S1132400EC0FFD1F40818091360220912F0250E095
S113241090E0BC01660F771F880F991F880F991FE2
S1132420880F991F860F971F219F212D1124269510
S113243026952695820F911D4817590731F4E0918E
S11324405402F09155028C2F09952196C430D10580
S113245071F611C020912F028DEC289F812D11243B
S1132460869586958695880F982F990F990F890FD1
S1132470281709F4B9CFDF91CF911F910895CF9315
S1132480DF93E0915702F0E0EE0FFF1FEF55FF4F8F
S11324904591549180913702EA01C80FD11D809172
S11324A05702833028F00E941B11811101C021962C
S11324B090915802409158028091580250E0415046
S11324C051099A0112F42D5F3F4F359527953595A3
S11324D02795290F311D90E0019764E670E00E9472
S11324E01814A901461B570B4B5F5F4F4C0F5D1F20
S11324F09A01A3E9B4E20E946D14281B390B3695A6
S11325002795820F931F96958795969587959C019D
S1132510220F331F220F331F220F331FB901681BF1
S1132520790B461B570B40933102DF91CF910895ED
S11325309093550280935402E0E7F0E080818E7F0F
S1132540808388E08093B6001092B200E0EBF0E064
S1132550808185608083E6EBF0E0908180819170DA
S11325608470892BD1F78FEF87BBE0E7F0E080819F
S113257081608083109232021092330210923402EE
S1132580109235021092360210922F0210925602C7
S113259081E0809337028093570288E08093580249
S11325A00E943F1208959FEF980F9F3110F480937B
S11325B037020E943F1208959FEF980F9C3010F449
S11325C0809357020E943F120895809358020E94FC
S11325D03F1208951F920F920FB60F9211242F935A
S11325E03F934F935F936F937F938F939F93AF9397
S11325F0BF93EF93FF938091320290913302A091A5
S11326003402B09135020196A11DB11D80933202AE
S113261090933302A0933402B09335020E94A51123
S1132620FF91EF91BF91AF919F918F917F916F91A6
S11326305F914F913F912F910F900FBE0F901F907C
S113264018952F923F924F925F926F927F928F9242
S11326509F92AF92BF92CF92DF92EF92FF920F932D
S11326601F93CF93DF9300D000D0CDB7DEB789831B
S1132670E0E7F1E02381848190E01C013CE3239FA7
S1132680200C311C11248091A301813049F4109154
S113269076011A8311116DC06894882481F805C0ED
S11326A06894882481F810E01A82610199249A942C
S11326B000E0412C512C0F2EF7E0AF2EB12CF02D61
S11326C00F2EF0EA6F2EF02D0F2EF5E07F2EF02D59
S11326D0812F880F880F8B838C5F8C839B81981745
S11326E0C0F4E42CF52C8B810E94AA049F70803ADC
S11326F025E0920740F48E159F0528F0C816D906E8
S113270010F09B807C013B813F5F3B838C81831372
S1132710EACF9920BCF5112341F0812F90E0059672
S1132720B5010E94181411E0180F0F5FC62CD72CA6
S1132730081570F222C09C013F7022163306A9F4DA
S1132740292D992014F423E0290D259525953A8106
S113275023130DC0FC01EF2FFF27E295EF70E37008
S1132760FF27EE57FE4F808114C080E012C080E046
S113277010C06894882483F898CF892D0E94AA04F5
S113278080E007C0892D0E94AA0429812111D3CF9A
S1132790E1CF0F900F900F900F90DF91CF911F9189
S11327A00F91FF90EF90DF90CF90BF90AF909F90EC
S11327B08F907F906F905F904F903F902F900895EF
S11327C0529A84B1807F84B95B9A84B1876084B95A
S11327D05A9A80E58CBD81E08DBD08958EBD0DB4FF
S11327E007FEFDCF8EB50895DB018F939F930E9462
S11327F07C14BF91AF91A29F800D911DA39F900D5A
S1132800B29F900D11240895AA1BBB1B51E107C070
S1132810AA1FBB1FA617B70710F0A61BB70B881F6C
S1132820991F5A95A9F780959095BC01CD010895FB
S113283097FB072E16F4009407D077FD09D00E9469
S1132840041407FC05D03EF4909581959F4F08959C
S1132850709561957F4F0895A1E21A2EAA1BBB1BA8
S1132860FD010DC0AA1FBB1FEE1FFF1FA217B30758
S1132870E407F50720F0A21BB30BE40BF50B661F6E
S1132880771F881F991F1A9469F760957095809532
S113289090959B01AC01BD01CF010895052E97FBD6
S11328A01EF400940E94651457FD07D00E942C1456
S11328B007FC03D04EF40C94651450954095309564
S11328C021953F4F4F4F5F4F089590958095709598
S11328D061957F4F8F4F9F4F0895A29FB001B39F83
S11328E0C001A39F700D811D1124911DB29F700D15
S11328F0811D1124911D08950E946D14A59F900DB2
S1132900B49F900DA49F800D911D11240895689487
S113291001C0E8948F929F92CF93DF930E94951405
S1132920DF91CF919F908F90089588249924F4018A
S1132930E401B0E49F93AA279A158B049C04ED0547
S1132940FE05CF05D007A10798F4AD2FDC2FCF2FBC
S1132950FE2FE92D982C892E982F872F762F652FFF
S1132960542F432F322F2227B85031F7BF9127C05D
S11329701B2EBF91BB27220F331F441F551F661FF9
S1132980771F881F991F881C991CEE1FFF1FCC1FDF
S1132990DD1FAA1FBB1F8A149B04EC05FD05CE0591
S11329A0DF05A007B10748F08A189B08EC09FD0968
S11329B0CE09DF09A00BB10B21601A94E1F62EF4C5
S11329C09401AF01BE01CD01000C08952A0D3B1DF9
S11329D04C1D5D1D6E1D7F1D801F911F0895AEE06F
S11329E0B0E0E5EFF4E10C94B0170D891E8986E0A0
S11329F08C831A8309838FEF9FE79E838D83AE01B7
S1132A00475E5F4F6F89788DCE0101960E94111544
S1132A10EF81F885E00FF11F10822E96E4E00C940C
S1132A20CC17ABE0B0E0E7E1F5E10C94A2176C0140
S1132A307B018A01FC0117821682838181FFCCC14C
S1132A40CE0101963C01F6019381F70193FD859136
S1132A5093FF81917F01882309F4BAC1853239F447
S1132A6093FD859193FF81917F01853229F4B6010D
S1132A7090E00E940817E7CF912C212C312CFFE124
S1132A80F315D8F08B3279F038F4803279F0833250
S1132A90A1F4232D20611DC08D3261F0803369F4CF
S1132AA0232D216016C0832D8260382EE32DE4602F
S1132AB03E2E2AC0F32DF8601DC037FC2DC020ED3A
S1132AC0280F2A3040F08E32B9F436FC81C1232D10
S1132AD02064322E19C036FE06C08AE0989E200D6E
S1132AE01124922E11C0EAE02E9E200D1124222ED4
S1132AF0F32DF0623F2E08C08C3621F4832D8068BC
S1132B00382E02C0883641F4F70193FD859193FF76
S1132B1081917F018111B3CF982F9F7D955493307C
S1132B2028F40C5F1F4F9FE399830DC0833631F067
S1132B30833771F0833509F059C021C0F8018081D1
S1132B4089830E5F1F4F88248394912C530113C0F3
S1132B502801F2E04F0E511CF801A080B18036FE2E
S1132B6003C0692D70E002C06FEF7FEFC5010E94C2
S1132B70FD164C018201F32DFF773F2E16C028016C
S1132B8022E0420E511CF801A080B18036FE03C041
S1132B90692D70E002C06FEF7FEFC5010E94F2164D
S1132BA04C01F32DF0683F2E820133FC1BC0822DB3
S1132BB090E088169906B0F4B60180E290E00E9495
S1132BC008172A94F4CFF50137FC859137FE8191DB
S1132BD05F01B60190E00E94081721102A9421E0B9
S1132BE0821A91088114910471F7E8C0843611F0B7
S1132BF0893641F5F80137FE07C060817181828111
S1132C0093810C5F1F4F08C060817181072E000CF7
S1132C10880B990B0E5F1F4FF32DFF763F2E97FF06
S1132C2009C090958095709561957F4F8F4F9F4F08
S1132C30F0683F2E2AE030E0A3010E944417882E5A
S1132C40861845C0853731F4232D2F7EB22E2AE015
S1132C5030E025C0932D997FB92E8F36C1F018F43A
S1132C60883579F0B5C0803719F0883721F0B0C0C5
S1132C70E92FE061BE2EB4FE0DC0FB2DF460BF2E23
S1132C8009C034FE0AC0292F2660B22E06C028E0EF
S1132C9030E005C020E130E002C020E132E0F8017C
S1132CA0B7FE07C060817181828193810C5F1F4FE1
S1132CB006C06081718180E090E00E5F1F4FA30128
S1132CC00E944417882E8618FB2DFF773F2E36FE70
S1132CD00DC0232D2E7FA22E891458F434FE0BC070
S1132CE032FC09C0832D8E7EA82E05C0B82CA32CDF
S1132CF003C0B82C01C0B92CA4FE0FC0FE01E80D1E
S1132D00F11D8081803321F49A2D997EA92E09C06A
S1132D10A2FE06C0B394B39404C08A2D867809F049
S1132D20B394A3FC11C0A0FE06C0B21488F4280C0E
S1132D30922C9B180EC0B21460F4B60180E290E0AD
S1132D400E940817B394F7CFB21418F42B1802C0DA
S1132D50982C212CA4FE10C0B60180E390E00E94C0
S1132D600817A2FE17C0A1FC03C088E790E002C0C8
S1132D7088E590E0B6010CC08A2D867859F0A1FE52
S1132D8002C08BE201C080E2A7FC8DE2B60190E0B4
S1132D900E940817891438F4B60180E390E00E9479
S1132DA008179A94F7CF8A94F301E80DF11D8081F6
S1132DB0B60190E00E9408178110F5CF222009F493
S1132DC042CEB60180E290E00E9408172A94F6CF22
S1132DD0F6018681978102C08FEF9FEF2B96E2E187
S1132DE00C94BE17FC010590615070400110D8F797
S1132DF0809590958E0F9F1F0895FC01615070403F
S1132E0001900110D8F7809590958E0F9F1F08951B
S1132E100F931F93CF93DF93FB01238121FD03C005
S1132E208FEF9FEF2CC022FF16C04681578124816B
S1132E3035814217530744F4A081B1819D012F5F6E
S1132E403F4F318320838C93268137812F5F3F4FFF
S1132E503783268314C08B01EC01FB010084F185C8
S1132E60E02D0995892BE1F6D80116968D919C9158
S1132E701797019617969C938E931697CE01DF9120
S1132E80CF911F910F910895FA01AA27283051F18B
S1132E90203181F1E8946F936E7F6E5F7F4F8F4F87
S1132EA09F4FAF4FB1E03ED0B4E03CD0670F781FE6
S1132EB0891F9A1FA11D680F791F8A1F911DA11DCB
S1132EC06A0F711D811D911DA11D20D009F4689404
S1132ED03F912AE0269F11243019305D3193DEF6AC
S1132EE0CF010895462F4770405D4193B3E00FD062
S1132EF0C9F7F6CF462F4F70405D4A3318F0495D4D
S1132F0031FD4052419302D0A9F7EACFB4E0A6952F
S1132F109795879577956795BA95C9F70097610551
S1132F20710508959B01AC010A2E069457954795A7
S1132F3037952795BA95C9F7620F731F841F951F9C
S1132F40A01D08952F923F924F925F926F927F92AD
S1132F508F929F92AF92BF92CF92DF92EF92FF92A5
S1132F600F931F93CF93DF93CDB7DEB7CA1BDB0B51
S1132F700FB6F894DEBF0FBECDBF09942A883988F6
S1132F8048885F846E847D848C849B84AA84B984FD
S1132F90C884DF80EE80FD800C811B81AA81B98109
S1132FA0CE0FD11D0FB6F894DEBF0FBECDBFED011D
S1092FB00895F894FFCF20
S1132FB6480DB80BC409D007DC05E803F401300159
S1132FC654018D01D80125026602A30207101000E0
S1132FD601FFFF1F010174656D70203A202564000E
S9030000FC
