S01700006F70656E485232305F637573746F6D2E7372656365
S11300000C9464000C942F100C94AF0C0C94CD0839
S11300100C9481000C944A130C9481000C944805B0
S11300200C9481000C9481000C9481000C94810048
S11300300C9481000C9481000C9481000C94810038
S11300400C9481000C9481000C9481000C94810028
S11300500C9481000C9481000C9425070002030485
S113006005060708090A3935423E0C0D0E0F10111A
S11300701213141502031B1918000128241F1B3F17
S1130080065B4F666D7D077F6F777C395E797163A0
S113009054737630084001484111495054105C00B3
S11300A033273800001F003B005A0078009700B542
S11300B000D400F300110130014E011F1C1F1E1F4C
S11300C01E1F1F1E1F1E1F0011241FBECFEFD4E0D2
S11300D0DEBFCDBF11E0A0E0B1E0E2ECF0E302C08E
S11300E005900D92AE32B107D9F722E0AEE2B1E04D
S11300F001C01D92A735B207E1F70E9438090C949C
S11301005F180C940000209175013091760140E055
S113011050E060E070E381E190E00E948C14C9013A
S113012008958F929F92AF92BF92CF92DF92EF92F7
S1130130FF920F931F93CF93DF93EC01E0911C0187
S1130140E230A0F08091100190911101C817D907F5
S113015078F0A2E1B1E091E005C04D915D91C41742
S1130160D50740F09F5F9E13F8CF05C0E1E003C0C0
S1130170E1E001C0E92FF0E0AF0141505109440F23
S1130180551FDA01A050BF4FCD90DC90E12CF12C2B
S1130190EE0FFF1FDF01A050BF4F6D917C91CB018B
S11301A0A0E0B0E0BC01CD016C197D098E099F0966
S11301B0DA01A25FBE4F8D909C90A12CB12C8E01D0
S11301C020E030E0A9019801281939094A095B099E
S11301D00E945414E25FFE4F20813181890120E0A6
S11301E030E0A9019801281939094A095B090E94DC
S11301F0AE14C701B601620F731F841F951FDF91F0
S1130200CF911F910F91FF90EF90DF90CF90BF900F
S1130210AF909F908F9008958091480190914901EB
S11302200E949100611520E872072FEF8207920760
S113023044F0611520E87207810591052CF4CB0187
S1130240089580E090E808958FEF9FE70895EAE726
S1130250F0E0908190689083ACE7B0E08C938C914F
S113026080648C93808180648083808186FDFDCF4F
S11302708091780080917900EAE7F0E080818064E1
S11302808083808186FDFDCF209178008091790064
S1130290EAE7F0E090819F77908390E0982F882799
S11302A0820F911D08958EE10E942701909376019B
S11302B08093750108958B9A82E00E9427019093A0
S11302C04901809348018B9808952F923F924F9251
S11302D05F926F927F928F929F92AF92BF92CF92D2
S11302E0DF92EF92FF920F931F93CF93DF9380914E
S11302F0540290E020916C0130916D0182179307B4
S113030049F1C0913001D09131010E940C01CC0F10
S1130310DD1FC45BDE4F9983888380913001909107
S1130320310101968F709078992324F40197806F9E
S11303309F6F0196909331018093300180912E013B
S113034090912F01803191052CF4019690932F0107
S113035080932E0160902E0170902F0116141704C3
S11303609CF5ECE4F1E0C301880F991F9C01245B28
S11303703E4F4901412C512CD0E0C0E0B0E0A0E058
S1130380212C312C808131813296282F932F990F83
S1130390990B492F592F692F792F892FA42CB52C0C
S11303A0CD2EDC2EEB2EFA2E022D132D0E94461597
S11303B0422E532ED42FC52FB62FA72F282E392ED9
S11303C0E815F905F9F608C0412C512CD0E0C0E03D
S11303D0B0E0A0E0212C312C8091540290E0909365
S11303E06D0180936C01172D110F110BA62CB72CE6
S11303F0C12ED12EE12EF12E012F242D352D4D2F7E
S11304005C2F6B2F7A2F822D932D0E94E914822F5B
S1130410932FDF91CF911F910F91FF90EF90DF9079
S1130420CF90BF90AF909F908F907F906F905F9090
S11304304F903F902F9008952091360130913701CD
S1130440A901440F551F240F351F3695279536955E
S113045027958217930790F04F9780F0809132018F
S113046090913301A0913401B091350180933D0105
S113047090933E01A0933F01B09340018FEF9FEF13
S113048090933701809336010895CF92DF92EF92D3
S1130490FF921F93CF93DF93811104C08091420197
S11304A0811123C081E090914201911101C080E04B
S11304B00E9481138823C9F0809342019091200106
S11304C0992399F08093430190911D0199236CF431
S11304D090912101891749F010921D0180911E010C
S11304E090911F01009741F4BAC180911E0190912F
S11304F01F01009709F4B6C19C01215031093093C2
S11305001F0120931E0180911D01181624F48150AF
S113051080931D01F9C12115310511F08111F4C138
S1130520C0914301CA3008F4D4C1809141018111C2
S1130530D0C1D1E0809121018C1301C0D0E0D11150
S113054003C0232B09F087C180EF90E090931F0133
S113055080931E01CD3308F075C110917B010E9478
S1130560650122E3C29F600111249C01992314F4C4
S11305702F5F3F4F35952795C601821B930B80351E
S11305804BEF940714F480E59BEF6C01813B94409E
S113059034F00F2EF0EBCF2EF4E0DF2EF02DC60159
S11305A0DD2024F4882799278C199D097C01DD23FB
S11305B021F188E2809377018EE18093780186E0CF
S11305C080937C0180913A0190913B010E941C022E
S11305D0F0923701E092360180913D0190913E0105
S11305E0A0913F01B0914001809332019093330177
S11305F0A0933401B093350184C080917C018111B2
S11306006DC080917801882321F081508093780116
S113061002C010927701DD202CF081E0143630F016
S113062080E004C081E0111101C080E0882309F456
S11306304DC020913C0130E08D2D99278078992779
S11306402817390761F48091380190913901E8162F
S1130650F90661F480E1E816F1040CF043C188E284
S1130660809377018EE18093780111C02091770106
S1130670121684F5E816F906A0F1C70169E170E0E5
S11306800E947814862F8095280F20937701C60145
S1130690880F991F880F991F880F991F092E000C26
S11306A0AA0BBB0B40913D0150913E0160913F016B
S11306B070914001840F951FA61FB71F80933D01C1
S11306C090933E01A0933F01B09340018091770144
S11306D018163CF0C7010E941C0203C0815080938D
S11306E07C0180913A0190913B0190933901809370
S11306F03801F0923B01E0923A018D2D807880938D
S11307003C0180913D0190913E01A0913F01B09147
S11307104001813020E9920721E0A207B1056CF085
S113072080E090E9A1E0B0E080933D0190933E0128
S1130730A0933F01B093400111C081159047AE4F83
S1130740BF4F64F480E090E7AEEFBFEF80933D01CC
S113075090933E01A0933F01B09340010D2C000CF7
S1130760EE08FF08D701C601880F991FAA1FBB1FF7
S1130770880F991FAA1FBB1F880F991FAA1FBB1F91
S1130780880F991FAA1FBB1F880F991FAA1FBB1F81
S1130790BC01CD016C0D7D1D8E1D9F1DA701960111
S11307A00E945414BB2797FDBA95A92F982F872F21
S11307B0BC01CD01785F8F4F9F4F0E945414C090AD
S11307C03D01D0903E01E0903F01F0904001CC0CFF
S11307D0DD1CEE1CFF1CCC0CDD1CEE1CFF1CCC0C29
S11307E0DD1CEE1CFF1CCC0CDD1CEE1CFF1CCC0C19
S11307F0DD1CEE1CFF1CDC01CB018C0D9D1DAE1D10
S1130800BF1D9D96892F9A2FAB2FBB27A7FDBA95A5
S1130810813054E69507A105B105B4F4BB23B4F0C7
S1130820292F3327612F70E041E0261737070CF496
S113083040E0442319F0805C9F4F02C080549F4FD6
S1130840892F05C084E603C084E601C080E0C0931C
S1130850210180937B018FEF80931D0155C020E01F
S113086030E05ECE80911D0118160CF450CEF7CF07
S113087080EF90E090931F0180931E0110917B0103
S11308800E94650199230CF401969595879524EFB0
S113089031E0A901481B590BCA0180355BEF95076C
S11308A014F480E59BEF6C0181EBC81684E0D80654
S11308B034F00F2EF0EBCF2EF4E0DF2EF02DC60136
S11308C0DD2024F4882799278C199D097C01CAE02E
S11308D070CED1E0809121018A3009F4D0E0DD238B
S11308E079F0C6CF2091770112160CF4C6CEF2CE61
S11308F080EF90E090931F0180931E01CAE02DCEFB
S1130900232B09F0A8CFF4CFDF91CF911F91FF9053
S1130910EF90DF90CF90089590914301890F893033
S113092020F489E08093430108C08E3318F4809347
S1130930430103C08DE3809343011092410189E098
S113094080931D010895F999FECF92BD81BDF89A57
S113095080B508951F93CF93DF9390912201981748
S1130960B9F0C82FD0E0CC0FDD1FC451DF4FCE014A
S113097001960E94A304182FCE010E94A304212FE4
S113098030E0322F2227A901480F511DCA0104C0AB
S113099080917D0190917E01DF91CF911F91089507
S11309A080915402869590914501891709F444C0B9
S11309B080934501809144018F5F8093440181308D
S11309C019F0823039F136C00E9453010E940C01A3
S11309D02091AE013091AF018217930721F09093DB
S11309E0AF018093AE012091B0013091B10128177D
S11309F0390720F49093B1018093B0012091AC01A8
S1130A003091AD0182179307B8F49093AD018093B0
S1130A10AC0108950E945B010E9483002091AA0109
S1130A203091AB018217930739F09093AB01809317
S1130A30AA0108951092440108950E940C01EAEA63
S1130A40F1E09583848397838683938382830895D7
S1130A500E941D050895E1E8F0E080818A608083AA
S1130A6083E08093890088EE809388007894EFE691
S1130A70F0E08081826080830895F8946091B201EF
S1130A807091B3018091B4019091B5017894089567
S1130A901F920F920FB60F9211248F939F93AF93CF
S1130AA0BF938091B2019091B301A091B401B09130
S1130AB0B5010196A11DB11D8093B2019093B301BC
S1130AC0A093B401B093B501BF91AF919F918F9161
S1130AD00F900FBE0F901F9018959091E7008823F8
S1130AE069F09F70813021F49F3068F49F5F07C0E4
S1130AF08F3F29F4992349F0915001C09EE09093CF
S1130B00E70081E0089580E0089580E00895482F8B
S1130B1050E08170819520E030E0F901E754FE4F08
S1130B2080832F5F3F4F29303105B9F7CA0195956E
S1130B3087958170282F219580E090E0FC01E7548F
S1130B40FE4F2187019689309105C1F781E080939A
S1130B50B801089580E00E94870580E00E946D0539
S1130B6083EA8093E50086E08093E600E4EEF0E01B
S1130B7080EC80838081886080830895E82FE695E7
S1130B80E695E695877021E030E0A90102C0440FA4
S1130B90551F8A95E2F7CA01242F2095462F60FD40
S1130BA008C0AE2FB0E0A754BE4F3C9132233C9313
S1130BB007C0AE2FB0E0A754BE4F3C91382B3C93F6
S1130BC041FF07C0F0E0E754FE4F9185892B8187F0
S1130BD00895F0E0E754FE4F818528232187089586
S1130BE0CF92DF92EF92FF920F931F93CF93DF93F5
S1130BF0643040F5853230F5E42EE62FF0E0E55818
S1130C00FF4F0491E82FF0E0E158FF4FF490C4E760
S1130C10D0E00F2EFBE7CF2EF0E0DF2EF02D11E019
S1130C20FE018491800F9F2D912321F06E2D0E944F
S1130C30BE0503C060E00E94BE05110F2196CC15CD
S1130C40DD0571F7DF91CF911F910F91FF90EF9028
S1130C50DF90CF9008951F93CF93DF936230E0F439
S1130C608436D0F4D42FC62FCC0F1DEC819F112DC8
S1130C701124169516951695212F220F922F990F50
S1130C80990F920F6C2F891B0E94F00561E06C0F85
S1130C904D2F812F0E94F005DF91CF911F91089570
S1130CA01F93CF93DF93182FC62F60E083E20E9437
S1130CB0BE05111119C04C2F63E080E00E94F005BD
S1130CC04C2F62E08FE00E94F0054C2F61E08FE032
S1130CD00E94F0054C2F60E080E20E94F00560E085
S1130CE08BE30E94BE0566C01433C9F44C2F63E045
S1130CF080E00E94F0054C2F62E081E10E94F00543
S1130D004C2F61E080E20E94F0054C2F60E080E20D
S1130D100E94F00560E08BE30E94BE054BC01533D2
S1130D20C8F04C2F63E080E20E94F0054C2F62E093
S1130D308EE00E94F0054C2F61E08CE10E94F005EA
S1130D404C2F60E08CE10E94F00560E08BE30E9490
S1130D50BE0530C0212F30E021503109C90199234B
S1130D600CF4019695958795D5E0D80FDA3058F4B0
S1130D704C2F63E080E20E94F0054C2F62E08D2F3F
S1130D800E94F00505C04C2F61E08D2F0E942B06B8
S1130D9010FF02C080E001C085E04C2F61E00E949A
S1130DA0F0054C2F60E08CE00E94F0056C2F8BE383
S1130DB00E94BE05DF91CF911F910895E82FF0E0C6
S1130DC0E45AFF4F84910E94BE0508951F93CF9368
S1130DD0DF93162FD82F883108F0D7E1C0E0DC1359
S1130DE005C0612F8C2F0E94DE0604C060E08C2FAA
S1130DF00E94DE06CF5FC83191F7DF91CF911F913A
S1130E00089540E063E080E20E94F00540E062E083
S1130E1080E20E94F00540E061E080E20E94F0057B
S1130E2040E060E080E20E94F00560E08BE30E9415
S1130E30BE0560E083E20E94BE0581E08093B801B4
S1130E40089581E08093B80108951F920F920FB620
S1130E500F9211248F939F93EF93FF938091B60188
S1130E60811105C01092B70181E08093B80180918F
S1130E70B601883129F481E08093B7018093B801E9
S1130E808091B801882309F4A2C08091B70190E051
S1130E90FC01EE0FFF1FEE0FFF1FEE0FFF1F8E0F63
S1130EA09F1FFC01E754FE4F80818093EC008091EA
S1130EB0B70190E0FC01EE0FFF1FEE0FFF1FEE0FD6
S1130EC0FF1F8E0F9F1FFC01E754FE4F818180930B
S1130ED0ED008091B70190E0FC01EE0FFF1FEE0FD3
S1130EE0FF1FEE0FFF1F8E0F9F1FFC01E754FE4FE5
S1130EF082818093EE008091B70190E0FC01EE0FB7
S1130F00FF1FEE0FFF1FEE0FFF1F8E0F9F1FFC0131
S1130F10E754FE4F83818093F1008091B70190E004
S1130F20FC01EE0FFF1FEE0FFF1FEE0FFF1F8E0FD2
S1130F309F1FFC01E754FE4F84818093F20080914F
S1130F40B70190E0FC01EE0FFF1FEE0FFF1FEE0F45
S1130F50FF1F8E0F9F1FFC01E754FE4F8581809376
S1130F60F3008091B70190E0FC01EE0FFF1FEE0F3C
S1130F70FF1FEE0FFF1F8E0F9F1FFC01E754FE4F54
S1130F8086818093F6008091B70190E0FC01EE0F1A
S1130F90FF1FEE0FFF1FEE0FFF1F8E0F9F1FFC01A1
S1130FA0E754FE4F87818093F7008091B70190E06A
S1130FB0FC01EE0FFF1FEE0FFF1FEE0FFF1F8E0F42
S1130FC09F1FFC01E754FE4F80858093F8008091B9
S1130FD0B6018F5F8093B6018091B601813310F022
S1130FE01092B601FF91EF919F918F910F900FBED8
S1130FF00F901F9018951F93CF93DF93182F63E0E2
S11310008CE20E94BE0580910D02882349F0117084
S1131010C12F80E0D82FCF5EDD4F88818093CB0134
S1131020DF91CF911F910895E1E6F0E080E880839D
S113103091E0908380BF8FEF80937E0080E984B934
S113104088E183BB88E08DB980BB80E480BB84B138
S11310508E6084B981E685B981E280936C0080EC6E
S11310608DBB0E94AA058BEF97E00E94F8120E94A4
S1131070110B0E9428050895CF9387E00E94331333
S113108082E00E943C1388E00E94451386E10E949E
S1131090D5108DE10E94DA1080E00E94DF10E1E1BA
S11310A0F2E08BEA80838FE68183C0E044EA60E06B
S11310B08C2F0E94E4104CE161E08C2F0E94E4101C
S11310C040EC62E08C2F0E94E4104CEE63E08C2F25
S11310D00E94E410CF5FC73049F710920C021092BF
S11310E0CC01109210021092CE011092CD011092F8
S11310F00E021092140210921302CF910895CF930E
S11311008093150281E080930F021092CC01C4E316
S113111080910F02882369F080911502853310F0C5
S1131120C09315028091150263E00E9450060E944C
S113113021078091CC01813059F78091100282FF00
S1131140E7CF80911502CF9108950F931F93CF930A
S1131150C82F8823A1F00E943211082F017010E0DB
S1131160F801EF5EFD4F80818093CB0163E088E15D
S11311700E94BE0560E082E30E94BE0508C060E0F4
S113118088E10E94BE0563E082E30E94BE05C0932D
S11311900D02CF911F910F9108951F920F920FB6D8
S11311A00F9211248F939F9383B180958F768093B0
S11311B010029091CE0180911002981709F43FC05B
S11311C0809110028093CE018091100280768093EA
S11311D0CD019091CD0180910E02981769F1809113
S11311E0CD0180930E028091CD01803221F0809157
S11311F0CD01803469F4809115028F3FE9F080912C
S113120015028F5F8093150281E080930F0214C052
S11312108091CD01882321F08091CD01803661F445
S113122080911502882341F08091150281508093AA
S1131230150281E080930F0281E08093CC019F919D
S11312408F910F900FBE0F901F9018959C010CC0AA
S11312509FEF00009150E9F79FEF00009150E9F7EC
S11312609FEF00009150E9F72150310988F7089564
S1131270CF93DF93CDB7DEB76F970FB6F894DEBF89
S11312800FBECDBF0E9414080E943C08789481E0F0
S11312908093CC010E9453010E945B0141E263E010
S11312A081EB91E00E94860E80E00E94C70D8EE1E2
S11312B00E94420D80E090E00E94540E8BE20E9456
S11312C08C0478940F2EF3E04F2EF02D0F2EF3E6BE
S11312D02F2EF02D312C8E010F5F1F4F7E0121E147
S11312E0E20EF11C0F2EF6E2AF2EF1E0BF2EF02D30
S11312F03E018BE1680E711C5524539478940E942E
S11313003A0E882309F49BC0F801DF01A01BB10B3E
S1131310A153BE4F8C918193EE15FF05B1F78981DE
S1131320823509F062C08A818435F1F40E940C018F
S11313309F938F93BF92AF92FF92EF920E94751585
S1131340F70101900020E9F73197AF014E195F09C9
S113135020E0B70184E00E94E70F0F900F900F90F8
S11313600F900F900F906BC08635F1F480917B0144
S11313701F928F93BF92AF92FF92EF920E947515C6
S1131380F70101900020E9F73197AF014E195F0989
S113139020E0B70184E00E94E70F0F900F900F90B8
S11313A00F900F900F904BC0833509F048C0809187
S11313B043011F928F93BF92AF92FF92EF920E94CC
S11313C07515F70101900020E9F73197AF014E1927
S11313D05F0920E0B70184E00E94E70F0F900F90AF
S11313E00F900F900F900F902AC0873541F58FE032
S11313F097E20197F1F700C000008B811F928F9351
S11314008A811F928F9389E291E09F938F93FF9239
S1131410EF920E947515C7010E944F154C01992740
S11314209F938F93BF92AF927F926F920E94751594
S1131430809243010FB6F894DEBF0FBECDBF80E0AB
S11314400E94A5080E9465010E945B010E940C0194
S113145090915402852D913009F080E00E9445025C
S113146080917B01282F30E0C216D30639F060E06A
S11314700E943A0BC0907B01D12C01C0690180917C
S1131480CC01882309F46DC01092CC019090100215
S1131490892D85258170982E8091100283FF0DC0BF
S11314A085E00E948C044A9463E0842D0E94E60641
S11314B063E088E10E94BE0504C060E088E10E9408
S11314C0BE058091100281FF0DC08BEF0E948C0439
S11314D099E049120BC08091CB010E947F08809350
S11314E0CB0104C060E082E30E94BE05809110023B
S11314F082FF0EC088248394840C63E082E0840D10
S11315000E94E60663E08AE10E94BE05482C04C0FE
S113151060E08AE10E94BE05391401F1892D0E9420
S1131520330B9920E9F00E94010743E063E08CE06B
S11315300E94F00543E062E08AE00E94F00543E087
S1131540652D83E20E94F0050E94210760E08AE095
S11315500E949A0B0E940107392C03C0392C01C048
S1131560392C0E94D70A882351F0809154022816FE
S113157029F00E94960C2090540201C0282E8091DC
S113158010020E94D0048091430143E060E08695FC
S11315900E942B0643E0652D80917B010E942B065F
S11315A00E94210784E690E00E942609A7CE90912C
S11315B01B0281E0911101C080E0089581110CC0EB
S11315C0EBE6F0E090819F7E90837398A398A498B3
S11315D02F9898E494BD22C090911B028917F1F0D2
S11315E0739A90E190936B00611103C092EF97BDE1
S11315F002C092EB97BD2FEF3FEF30931F02209371
S11316001E02823031F4A39AA4982F9899E694BDCF
S113161005C0A398A49A2F9A99E794BD80931B02BE
S1131620089510921A021092190210921802109240
S1131630170210921D0210921C0260E080E00E94CA
S1131640DE0A089510921A021092190210921802DA
S11316501092170210921D0210921C0260E080E0AA
S11316600E94DE0A089580931602811102C00E942E
S1131670220B0895462F2091170230911802232B34
S113168009F454C0843651F48091170290911802E1
S1131690C29690931D0280931C0227C081110EC034
S11316A010921D0210921C028091190290911A024C
S11316B0C29690931A028093190217C06091170280
S11316C070911802869F9001879F300D11243695E2
S11316D0279536952795ABE7B4E10E94CD149695EE
S11316E0879590931D0280931C02642F2091190208
S11316F030911A0280911C0290911D028217930767
S113170028F482E00E94DE0A81E008952091190203
S113171030911A0280911C0290911D0228173907FA
S113172038F481E00E94DE0A81E0089580E00895A3
S113173081E008950F931F93CF93DF93082F162F03
S1131740833308F46EC088EE93E090931A0280937A
S1131750190210921D0210921C0282E00E94DE0AFD
S1131760C0911902D0911A0288EC90E00E942609D7
S113177080911B02882359F08091190290911A02DA
S1131780C817D90721F0809116028111E9CF809101
S11317901B02882309F4BEC080911602882309F431
S11317A0C0C0612F80E00E94DE0A10921A021092DB
S11317B0190288EE93E090931D0280931C02612F1E
S11317C081E00E94DE0AC0911902D0911A0288ECCD
S11317D090E00E94260980911B02882359F0809191
S11317E0190290911A02C817D90721F080911602A4
S11317F08111E9CF80911B02882309F48DC0809167
S11318001602882309F48DC0612F80E00E94DE0A4D
S11318108091190290911A029093180280931702F2
S113182073C010921A021092190288EE93E09093FA
S11318301D0280931C0281E00E94DE0AC0911902FD
S1131840D0911A0288EC90E00E94260980911B0234
S1131850882359F08091190290911A02C817D90768
S113186021F0809116028111E9CF80911B02882317
S113187009F454C080911602882309F452C0612FE0
S113188080E00E94DE0A88EE93E090931A0280932F
S1131890190210921D0210921C02612F82E00E9414
S11318A0DE0AC0911902D0911A0288EC90E00E94DD
S11318B0260980911B02882359F080911902909186
S11318C01A02C817D90721F0809116028111E9CFB5
S11318D080911B02882321F180911602882309F14B
S11318E0612F80E00E94DE0A2091190230911A02D1
S11318F088EE93E0821B930B909318028093170257
S113190010921A0210921902612F802F0E943A0B32
S113191081E007C080E005C080E003C080E001C032
S113192080E0DF91CF911F910F91089520911902CA
S113193030911A0280911E0290911F0228173907D4
S113194029F460E080E00E94DE0A08958091190283
S113195090911A0290931F0280931E0208951F9281
S11319600F920FB60F9211242F933F934F935F93CF
S11319706F937F938F939F93AF93BF93EF93FF9353
S1131980649B35C080911B028130C9F48091190297
S113199090911A02019690931A0280931902209151
S11319A0190230911A0280911C0290911D0228178D
S11319B03907E8F060E080E00E94DE0A18C08091F8
S11319C0190290911A02019790931A0280931902B6
S11319D02091190230911A0280911C0290911D02EB
S11319E08217930720F060E080E00E94DE0AFF91F6
S11319F0EF91BF91AF919F918F917F916F915F9183
S1131A004F913F912F910F900FBE0F901F901895FB
S1131A1080914701811101C0789408955A98F894EF
S1131A2008955A9A0E94080D0895CF93C82F0E94D2
S1131A300E0D8C2F8F770E944E1480E00E944E145E
S1131A40C82F0E94110D8C2FCF910895CF93DF934F
S1131A50D82FC62F0E940E0D8D2F80680E944E1421
S1131A608C2F0E944E140E94110DDF91CF91089586
S1131A70682F89E30E94260D0895682F80E30E9451
S1131A80260D0895CF93C82F80912401813009F445
S1131A90C69581E10E94150D807E682F6C2B81E133
S1131AA00E94260DCF910895813049F46DE58AE5B1
S1131AB00E94260D6CE78CE50E94260D089565E5CD
S1131AC08AE50E94260D60E78CE50E94260D0895A4
S1131AD0CF9390912501981709F457C0C82F8230ED
S1131AE069F128F48823F1F1813091F14EC08330FB
S1131AF0A1F0843009F049C081E00E94150D837E75
S1131B00682F6C6081E00E94260D80912401882357
S1131B1089F181E00E94540D2DC081E00E94150DD1
S1131B20837E682F606181E00E94260D80912401EC
S1131B30882301F180E00E94540D1CC081E00E94C2
S1131B40150D837E682F686081E00E94260D12C007
S1131B5081E00E94150D837E682F646081E00E94FD
S1131B60260D08C081E00E94150D682F637E81E078
S1131B700E94260D90912501911105C087E20E94D3
S1131B80150D8823BCF7C0932501CF910895809348
S1131B902401811102C06AE101C06FE083E10E9467
S1131BA0260D80912401813051F481E10E94150DAC
S1131BB08F71682F606681E10E94260D08956091FF
S1131BC02301606881E10E94260D0895813049F463
S1131BD061E083E20E94260D83E20E94150D81FFDD
S1131BE0FBCF84E20E94150D90E0919581959109B7
S1131BF0959587950895CF9380912501833079F445
S1131C00C0912A02C1110DC080E00E94E60D863AFF
S1131C109F4F44F481E00E94680DC1E003C0C0E01E
S1131C2001C0C0E08C2FCF91089510922902109228
S1131C30280210922C0210922A0210922B02109267
S1131C402502109227021092260288E20E94150DA6
S1131C5082FF08C08DE30E94150D682F64608DE338
S1131C600E94260D60E485E20E94260D83E00E9416
S1131C70680D0895F89480912501833049F480918A
S1131C802A02882329F081E00E94680D81E00895EA
S1131C9080912501833019F4789480E008950E949E
S1131CA0150E789480E00895EF92FF920F931F939E
S1131CB0CF93DF937C0181E00E94680DE114F1046D
S1131CC089F00E940E0D8EEB0E944E14E7018701ED
S1131CD0005F1F4F89910E944E14C017D107D1F79E
S1131CE00E94110D8DE30E94150D8E7F91E0EF2867
S1131CF009F490E0682F692B8DE30E94260DDF9193
S1131D00CF911F910F91FF90EF900895FF920F9341
S1131D101F93CF93DF93CDB7DEB7AE970FB6F8948A
S1131D20DEBF0FBECDBF062FF42E21E0298334E0A1
S1131D303A8322E02B831C8223E02D834DE04E83E3
S1131D403F8335E0388739872A8726E02B8723E3CA
S1131D502C8727E02D878B3321E0920709F4A4C058
S1131D60813B21E0920709F499C08436934009F03D
S1131D70A1C0A6C0888B89E0898B1A8A89E18B8BE4
S1131D8092E49C8B85E28D8B80E48E8B86E28F8B34
S1131D9087E0888F88E2898F80E18A8F89E28B8F40
S1131DA08CED8C8F8EE28D8F88E88E8F8FE28F8FF3
S1131DB08DE288A380E389A3FAA227E32BA320E979
S1131DC02CA328E32DA39EA39CE39FA39FE898A79D
S1131DD09DE399A792E19AA79FE69BA78CA78FEF13
S1131DE08DA71EA60E944014529A5A9A519804C074
S1131DF06AEA8FE20E94260D8FE20E94150D8A3A4C
S1131E00B9F704C065E58FE20E94260D8FE20E94B7
S1131E10150D8535B9F789818F3FE9F020E030E071
S1131E2010E0220F331FE1E0F0E0EC0FFD1FE20FA2
S1131E30F31F61810E94260D1F5F212F30E0F901FD
S1131E40EE0FFF1F81E090E08C0F9D1FE80FF91F3C
S1131E5080818F3F31F780E090E00E94540E8091A2
S1131E6024010E94C70D81E00E94680D87E20E9450
S1131E70150D8823DCF7E9E6F0E080818360808338
S1131E80E89A109247010E942B0500932402802FA8
S1131E900E94380D8F2D0E943D0D18C08CE68E8750
S1131EA088E08F8780E466CF8EE48E8788E08F8712
S1131EB080EC60CF84EE8E8788E08F8780EC5ACFE9
S1131EC089ED8E8788E08F8780E054CFAE960FB679
S1131ED0F894DEBF0FBECDBFDF91CF911F910F915C
S1131EE0FF900895EF92FF920F931F93CF93DF9388
S1131EF0C82F7B01142FD22F81E00E94680D87E246
S1131F000E94150D8823DCF760E085E20E94260D0F
S1131F101E3308F01DE3013021F0D13021F4D0E468
S1131F2003C0D0E801C0D0E00E940E0D80E80E94FA
S1131F304E1483E0810F0E944E148C2F0E944E1485
S1131F40809124020E944E148D2F0E944E1411235E
S1131F5071F0E7011150012F10E00F5F1F4F0E0DBC
S1131F601F1D89910E944E14C017D107D1F70E94FA
S1131F70110D84E00E94680D0E943D0560932002CB
S1131F80709321028093220290932302499915C0F1
S1131F900E943D050091200210912102209122020D
S1131FA030912302DC01CB01801B910BA20BB30BFC
S1131FB0883E9340A105B10548F381E00E94680D75
S1131FC0DF91CF911F910F91FF90EF900895DF92D1
S1131FD0EF92FF920F931F93CF93DF93F82EEB01B1
S1131FE0E42ED22E8DE30E94150D682F64608DE3DC
S1131FF00E94260D0E943D056093200270932102E9
S1132000809322029093230202C00E943A0E0E94FF
S1132010FB0D811115C00E943D0500912002109115
S113202021022091220230912302DC01CB01801B8A
S1132030910BA20BB30B883E9340A105B10528F385
S113204000E02D2D4E2DBE018F2D0E94720FDF91C9
S1132050CF911F910F91FF90EF90DF9008951F9201
S11320600F920FB60F9211240F931F932F933F9348
S11320704F935F936F937F938F939F93AF93BF938C
S1132080CF93EF93FF9381E08093470180912501E3
S1132090833009F06DC088E20E94150D82FF68C08C
S11320A081E00E94680D0E940E0D80E00E944E1493
S11320B080E00E944E1480932A0280912A02833485
S11320C018F082E480932A0280E00E944E148093E8
S11320D02C028091460181110AC090912C028091BA
S11320E02402981721F080912C028F3F21F48091D3
S11320F02A02833038F410922A020E94110D0E94A1
S1132100150E3FC080912A0283508093290280E0FB
S11321100E944E148093280280E00E944E14982F4F
S1132120907890932502807480932B0280912902E9
S1132130882379F0C0E00C2F10E080E00E944E1458
S1132140F801E153FE4F8083CF5F80912902C817C5
S113215090F3809129028D3330F4E0912902F0E06C
S1132160E153FE4F10820E94110D83E00E94680D1E
S113217080E00E94E60D909327028093260210923D
S11321804701FF91EF91CF91BF91AF919F918F91B3
S11321907F916F915F914F913F912F911F910F917B
S11321A00F900FBE0F901F901895883110F48093F4
S11321B0340208958C3310F480932D0208958C33E7
S11321C010F480935402089524E0829FC0011124E6
S11321D0FC01EA5CFD4FE60FF11D408308950F9367
S11321E01F93CF93DF93C7E0D0E01FEFE7E0F0E069
S11321F080912F0290E00696BF010E94781421E09E
S113220030E09927880F991F880F991F8A5C9D4F8A
S1132210B901DC01A20FB31F4C91D417A0F4DC0167
S1132220A20FB31F4C91403F70F440912F0250E035
S1132230440F551F440F551F4A5C5D4FDA01A60F2A
S1132240B71FDC91122F2F5F3F4F2430310501F768
S11322501F3F11F4C15061F6812FDF91CF911F917F
S11322600F910895CF93C091340280912D02CC0F29
S11322709C2F990F990FC90F9DEC899F812D1124D3
S1132280869586958695C80F0E94EF1021E030E070
S113229070E0E0912F02F0E0A901EE0FFF1FEE0FB6
S11322A0FF1FEA5CFD4FE20FF31F90817917E0F402
S11322B0E0912F02F0E0EE0FFF1FEE0FFF1FEA5C2C
S11322C0FD4FE20FF31F9081C91770F080912F0228
S11322D090E0880F991F880F991F8A5C9D4FFC011D
S11322E0E40FF51F7081822F2F5F3F4F243031059B
S11322F081F6CF9108959091560289E2989F812D9D
S1132300112482958F7024E6829F901911249923B9
S113231021F0809156028370089580E008958091A1
S11323205502823039F0E0915502F0E0E554FF4F58
S1132330849108950E947B11811102C08DE108955A
S11323408CE108950E948F11209135022F5F209314
S1132350350230E090E001962817390789F581E0CD
S113236080933502809155028F5F809355028D30A2
S113237041F481E080935502809156028F5F8093EF
S11323805602809155028B3011F410922E028091E6
S11323902F028F5F80932F0220912F0285E2289FC6
S11323A0912D1124822F891B8695890F86958695F8
S11323B0982F990F990F990F981B291B20932F027F
S11323C0089580915502833039F0809155028A3006
S11323D0C1F42EE130E002C02FE130E080913502FB
S11323E090E02750310902C0880F991F2A95E2F71F
S11323F0892B49F490912F0281E0973029F080E0F5
S1132400089580E0089580E008951F93CF93DF93AB
S1132410809154028F5F809354028C3309F08BC0F7
S11324201092540280912D028F5F80932D028C3381
S113243009F070C010922D02809134028F5F809356
S11324403402883121F4109234020E94A211809146
S11324505502833069F480913402823049F40E9439
S1132460E111882329F0809134028F5F8093340234
S1132470809155028A3009F04DC080913402833036
S113248009F048C080912E02811144C00E94E111DC
S1132490882309F43FC08091340281508093340230
S11324A081E080932E0236C0C0E0D0E01DECE091C4
S11324B02F02F0E0EE0FFF1FEE0FFF1FEA5CFD4F4F
S11324C0EC0FFD1F40818091340220912D0250E0D9
S11324D090E0BC01660F771F880F991F880F991F22
S11324E0880F991F860F971F219F212D1124269550
S11324F026952695820F911D4817590731F4E091CE
S11325005202F09153028C2F09952196C430D105C3
S113251071F611C020912D028DEC289F812D11247C
S1132520869586958695880F982F990F990F890F10
S1132530281709F4B9CFDF91CF911F910895CF9354
S1132540DF93E0915502F0E0EE0FFF1FEF55FF4FD0
S11325504591549180913502EA01C80FD11D8091B3
S11325605502833028F00E947B11811101C021960D
S113257090915602409156028091560250E041508B
S113258051099A0112F42D5F3F4F359527953595E2
S11325902795290F311D90E0019764E670E00E94B1
S11325A07814A901461B570B4B5F5F4F4C0F5D1FFF
S11325B09A01A3E9B4E20E94CD14281B390B369585
S11325C02795820F931F96958795969587959C01DD
S11325D0220F331F220F331F220F331FB901681B31
S11325E0790B461B570B40932F02DF91CF9108952F
S11325F09093530280935202E0E7F0E080818E7F53
S1132600808388E08093B6001092B200E0EBF0E0A3
S1132610808185608083E6EBF0E090818081917019
S11326208470892BD1F78FEF87BBE0E7F0E08081DE
S11326308160808310923002109231021092320233
S1132640109233021092340210922D02109254020E
S113265081E0809335028093550288E0809356028E
S11326600E949F1208959FEF980F9F3110F480935A
S113267035020E949F1208959FEF980F9C3010F42A
S1132680809355020E949F120895809356020E94DF
S11326909F1208951F920F920FB60F9211242F9339
S11326A03F934F935F936F937F938F939F93AF93D6
S11326B0BF93EF93FF938091300290913102A091E8
S11326C03202B09133020196A11DB11D80933002F4
S11326D090933102A0933202B09333020E94051208
S11326E0FF91EF91BF91AF919F918F917F916F91E6
S11326F05F914F913F912F910F900FBE0F901F90BC
S113270018952F923F924F925F926F927F928F9281
S11327109F92AF92BF92CF92DF92EF92FF920F936C
S11327201F93CF93DF9300D000D0CDB7DEB789835A
S1132730EEE6F1E02381848190E01C013CE3239FD9
S1132740200C311C11248091A101813049F4109195
S113275074011A8311116DC06894882481F805C02E
S11327606894882481F810E01A82610199249A946B
S113277000E0412C512C0F2EF7E0AF2EB12CF02DA0
S11327800F2EF0EA6F2EF02D0F2EF5E07F2EF02D98
S1132790812F880F880F8B838C5F8C839B81981784
S11327A0C0F4E42CF52C8B810E94AA049F70803A1B
S11327B025E0920740F48E159F0528F0C816D90627
S11327C010F09B807C013B813F5F3B838C818313B2
S11327D0EACF9920BCF5112341F0812F90E00596B2
S11327E0B5010E94781411E0180F0F5FC62CD72C86
S11327F0081570F222C09C013F7022163306A9F41A
S1132800292D992014F423E0290D259525953A8145
S113281023130DC0FC01EF2FFF27E295EF70E37047
S1132820FF27E058FE4F808114C080E012C080E092
S113283010C06894882483F898CF892D0E94AA0434
S113284080E007C0892D0E94AA0429812111D3CFD9
S1132850E1CF0F900F900F900F90DF91CF911F91C8
S11328600F91FF90EF90DF90CF90BF90AF909F902B
S11328708F907F906F905F904F903F902F9008952E
S1132880529A84B1807F84B95B9A84B1876084B999
S11328905A9A80E58CBD81E08DBD08958EBD0DB43E
S11328A007FEFDCF8EB50895DB018F939F930E94A1
S11328B0DC14BF91AF91A29F800D911DA39F900D39
S11328C0B29F900D11240895AA1BBB1B51E107C0B0
S11328D0AA1FBB1FA617B70710F0A61BB70B881FAC
S11328E0991F5A95A9F780959095BC01CD0108953B
S11328F097FB072E16F4009407D077FD09D00E94A9
S1132900641407FC05D03EF4909581959F4F08957B
S1132910709561957F4F0895A1E21A2EAA1BBB1BE7
S1132920FD010DC0AA1FBB1FEE1FFF1FA217B30797
S1132930E407F50720F0A21BB30BE40BF50B661FAD
S1132940771F881F991F1A9469F760957095809571
S113295090959B01AC01BD01CF010895052E97FB15
S11329601EF400940E94C51457FD07D00E948C14D5
S113297007FC03D04EF40C94C51450954095309543
S113298021953F4F4F4F5F4F0895909580957095D7
S113299061957F4F8F4F9F4F0895A29FB001B39FC2
S11329A0C001A39F700D811D1124911DB29F700D54
S11329B0811D1124911D08950E94CD14A59F900D91
S11329C0B49F900DA49F800D911D112408956894C7
S11329D001C0E8948F929F92CF93DF930E94F514E5
S11329E0DF91CF919F908F90089588249924F401CA
S11329F0E401B0E49F93AA279A158B049C04ED0587
S1132A00FE05CF05D007A10798F4AD2FDC2FCF2FFB
S1132A10FE2FE92D982C892E982F872F762F652F3E
S1132A20542F432F322F2227B85031F7BF9127C09C
S1132A301B2EBF91BB27220F331F441F551F661F38
S1132A40771F881F991F881C991CEE1FFF1FCC1F1E
S1132A50DD1FAA1FBB1F8A149B04EC05FD05CE05D0
S1132A60DF05A007B10748F08A189B08EC09FD09A7
S1132A70CE09DF09A00BB10B21601A94E1F62EF404
S1132A809401AF01BE01CD01000C08952A0D3B1D38
S1132A904C1D5D1D6E1D7F1D801F911F0895FC013F
S1132AA088279927E89421912032E9F3293010F0FE
S1132AB02E30C8F32B3241F02D3239F4689404C01F
S1132AC00E946D15820F911D219120532A30C0F36D
S1132AD01EF4909581959F4F08957AE0979F902DCD
S1132AE0879F802D910D11240895AEE0B0E0EBE7AF
S1132AF0F5E10C9436180D891E8986E08C831A83BF
S1132B0009838FEF9FE79E838D83AE01475E5F4FFE
S1132B106F89788DCE0101960E949715EF81F88513
S1132B20E00FF11F10822E96E4E00C945218ABE0F3
S1132B30B0E0EDE9F5E10C9428186C017B018A0101
S1132B40FC0117821682838181FFCCC1CE010196DC
S1132B503C01F6019381F70193FD859193FF8191E7
S1132B607F01882309F4BAC1853239F493FD859134
S1132B7093FF81917F01853229F4B60190E00E9490
S1132B808E17E7CF912C212C312CFFE1F315D8F0CF
S1132B908B3279F038F4803279F08332A1F4232D2A
S1132BA020611DC08D3261F0803369F4232D2160D2
S1132BB016C0832D8260382EE32DE4603E2E2AC099
S1132BC0F32DF8601DC037FC2DC020ED280F2A30EE
S1132BD040F08E32B9F436FC81C1232D2064322EAC
S1132BE019C036FE06C08AE0989E200D1124922E4C
S1132BF011C0EAE02E9E200D1124222EF32DF06246
S1132C003F2E08C08C3621F4832D8068382E02C0F4
S1132C10883641F4F70193FD859193FF81917F01FB
S1132C208111B3CF982F9F7D9554933028F40C5F76
S1132C301F4F9FE399830DC0833631F0833771F0C2
S1132C40833509F059C021C0F801808189830E5F62
S1132C501F4F88248394912C530113C02801F2E060
S1132C604F0E511CF801A080B18036FE03C0692DBF
S1132C7070E002C06FEF7FEFC5010E9483174C0123
S1132C808201F32DFF773F2E16C0280122E0420E69
S1132C90511CF801A080B18036FE03C0692D70E09C
S1132CA002C06FEF7FEFC5010E9478174C01F32D2E
S1132CB0F0683F2E820133FC1BC0822D90E0881601
S1132CC09906B0F4B60180E290E00E948E172A942F
S1132CD0F4CFF50137FC859137FE81915F01B60190
S1132CE090E00E948E1721102A9421E0821A910804
S1132CF08114910471F7E8C0843611F0893641F5E6
S1132D00F80137FE07C060817181828193810C5F75
S1132D101F4F08C060817181072E000C880B990B2E
S1132D200E5F1F4FF32DFF763F2E97FF09C090953E
S1132D308095709561957F4F8F4F9F4FF0683F2E20
S1132D402AE030E0A3010E94CA17882E861845C0E5
S1132D50853731F4232D2F7EB22E2AE030E025C0B2
S1132D60932D997FB92E8F36C1F018F4883579F0F8
S1132D70B5C0803719F0883721F0B0C0E92FE06181
S1132D80BE2EB4FE0DC0FB2DF460BF2E09C034FE70
S1132D900AC0292F2660B22E06C028E030E005C004
S1132DA020E130E002C020E132E0F801B7FE07C0C4
S1132DB060817181828193810C5F1F4F06C06081A5
S1132DC0718180E090E00E5F1F4FA3010E94CA173B
S1132DD0882E8618FB2DFF773F2E36FE0DC0232D3F
S1132DE02E7FA22E891458F434FE0BC032FC09C085
S1132DF0832D8E7EA82E05C0B82CA32C03C0B82C1E
S1132E0001C0B92CA4FE0FC0FE01E80DF11D8081A4
S1132E10803321F49A2D997EA92E09C0A2FE06C002
S1132E20B394B39404C08A2D867809F0B394A3FCB8
S1132E3011C0A0FE06C0B21488F4280C922C9B1872
S1132E400EC0B21460F4B60180E290E00E948E17C6
S1132E50B394F7CFB21418F42B1802C0982C212C79
S1132E60A4FE10C0B60180E390E00E948E17A2FE7B
S1132E7017C0A1FC03C088E790E002C088E590E099
S1132E80B6010CC08A2D867859F0A1FE02C08BE2EF
S1132E9001C080E2A7FC8DE2B60190E00E948E178B
S1132EA0891438F4B60180E390E00E948E179A9456
S1132EB0F7CF8A94F301E80DF11D8081B60190E00B
S1132EC00E948E178110F5CF222009F442CEB6015C
S1132ED080E290E00E948E172A94F6CFF601868154
S1132EE0978102C08FEF9FEF2B96E2E10C94441878
S1132EF0FC010590615070400110D8F780959095C1
S1132F008E0F9F1F0895FC016150704001900110C5
S1132F10D8F7809590958E0F9F1F08950F931F9358
S1132F20CF93DF93FB01238121FD03C08FEF9FEF3C
S1132F302CC022FF16C04681578124813581421757
S1132F40530744F4A081B1819D012F5F3F4F31832A
S1132F5020838C93268137812F5F3F4F37832683CD
S1132F6014C08B01EC01FB010084F185E02D09956F
S1132F70892BE1F6D80116968D919C9117970196AD
S1132F8017969C938E931697CE01DF91CF911F9144
S1132F900F910895FA01AA27283051F1203181F1C7
S1132FA0E8946F936E7F6E5F7F4F8F4F9F4FAF4F4D
S1132FB0B1E03ED0B4E03CD0670F781F891F9A1F60
S1132FC0A11D680F791F8A1F911DA11D6A0F711D14
S1132FD0811D911DA11D20D009F468943F912AE020
S1132FE0269F11243019305D3193DEF6CF01089508
S1132FF0462F4770405D4193B3E00FD0C9F7F6CF39
S1133000462F4F70405D4A3318F0495D31FD405200
S1133010419302D0A9F7EACFB4E0A6959795879596
S113302077956795BA95C9F7009761057105089575
S11330309B01AC010A2E0694579547953795279521
S1133040BA95C9F7620F731F841F951FA01D0895B9
S11330502F923F924F925F926F927F928F929F92A4
S1133060AF92BF92CF92DF92EF92FF920F931F9392
S1133070CF93DF93CDB7DEB7CA1BDB0B0FB6F89443
S1133080DEBF0FBECDBF09942A88398848885F8483
S11330906E847D848C849B84AA84B984C884DF80F4
S11330A0EE80FD800C811B81AA81B981CE0FD11DD8
S11330B00FB6F894DEBF0FBECDBFED010895F894AE
S10530C0FFCF3C
S11330C2480DB80BC409D007DC05E803F40130014C
S11330D254018D01D80125026602A30207101000D3
S11130E201FFFF1F0101256400256325630023
S9030000FC
