:100000000C9434000C945B030C9451000C9451003C
:100010000C9451000C9451000C9451000C9451001C
:100020000C9451000C9451000C9451000C946500F8
:100030000C9451000C9451000C9451000C945100FC
:100040000C9451000C9451000C9451000C945100EC
:100050000C9451000C9451000C9451000C945100DC
:100060000C9451000C94510011241FBECFEFD8E026
:10007000DEBFCDBF11E0A0E0B1E0EEE1FFE002C0E5
:1000800005900D92AA31B107D9F721E0AAE1B1E0BC
:1000900001C01D92AA36B207E1F70E948A000C94B3
:1000A0008D070C940000E1E8F0E080818A60808395
:1000B00083E08093890088EE809388007894EFE64F
:1000C000F0E080818260808308951F920F920FB6C6
:1000D0000F9211248F939F93AF93BF9380911C0134
:1000E00090911D01A0911E01B0911F010196A11DCB
:1000F000B11D80931C0190931D01A0931E01B0932C
:100100001F01BF91AF919F918F910F900FBE0F90E4
:100110001F901895CF93DF93CDB7DEB7A0970FB69A
:10012000F894DEBF0FBECDBF209A289A2FEF89E644
:1001300098E1215080409040E1F700C000002898ED
:100140000EE428E040E855E260E070E080EC90E0EA
:100150000E94120441E264E081EB91E00E946E0291
:1001600080E00E94C9018EE10E94440180E090E09D
:100170000E943C028E010F5E1F4F7E0121E2E20EC3
:10018000F11C0F2EF3E0AF2EF1E0BF2EF02DCE01CB
:1001900001966C010E9422028823E1F38FE19EE424
:1001A0000197F1F700C000000E94FD00F801DF0197
:1001B000A01BB10BA05EBE4F8C918193EE15FF0585
:1001C000B1F7B80180EC90E00E946C0480E00E94DE
:1001D000E8019F938F93BF92AF92DF92CF920E94DC
:1001E000A304B60180EC90E00E946C040F900F9085
:1001F0000F900F900F900F90CDCF809168018823C2
:1002000039F09091690181E09F3F19F480E00895F1
:1002100080E0089580911B01811101C078940895B8
:100220002A98F89408952A9A0E940A010895CF9373
:10023000C82F0E9410018C2F8F770E940C0480E041
:100240000E940C04C82F0E9413018C2FCF91089597
:10025000CF93DF93D82FC62F0E9410018D2F806877
:100260000E940C048C2F0E940C040E941301DF9149
:10027000CF910895682F89E30E9428010895682F7F
:1002800080E30E9428010895CF93C82F8091010137
:10029000813009F4C69581E10E941701807E682FA4
:1002A0006C2B81E10E942801CF910895813049F49F
:1002B0006DE58AE50E9428016CE78CE50E94280123
:1002C000089565E58AE50E94280160E78CE50E94B3
:1002D00028010895CF9390910201981709F457C00F
:1002E000C82F823069F128F48823F1F1813091F12F
:1002F0004EC08330A1F0843009F049C081E00E94F3
:100300001701837E682F6C6081E00E942801809134
:100310000101882389F181E00E9456012DC081E00E
:100320000E941701837E682F606181E00E9428018E
:1003300080910101882301F180E00E9456011CC0D8
:1003400081E00E941701837E682F686081E00E942F
:10035000280112C081E00E941701837E682F64602B
:1003600081E00E94280108C081E00E941701682FE7
:10037000637E81E00E94280190910201911105C0E5
:1003800087E20E9417018823BCF7C0930201CF9136
:10039000089580930101811102C06AE101C06FE0FC
:1003A00083E10E94280180910101813051F481E1B3
:1003B0000E9417018F71682F606681E10E942801F9
:1003C000089560910001606881E10E94280108950C
:1003D000813049F461E083E20E94280183E20E94B7
:1003E000170181FFFBCF84E20E94170190E09195F5
:1003F00081959109959587950895109266011092BF
:1004000065011092690110926701109268011092C3
:100410006201109264011092630188E20E94170148
:1004200082FF08C08DE30E941701682F64608DE38E
:100430000E94280160E485E20E94280183E00E9476
:100440006A010895F89480910201833049F4809103
:100450006701882329F081E00E946A0181E0089504
:1004600080910201833019F4789480E008950E940D
:10047000FD01789480E00895EF92FF920F931F930F
:10048000CF93DF937C0181E00E946A01E114F104C3
:1004900089F00E9410018EEB0E940C04E701870195
:1004A000005F1F4F89910E940C04C017D107D1F73C
:1004B0000E9413018DE30E9417018E7F91E0EF28C7
:1004C00009F490E0682F692B8DE30E942801DF91E9
:1004D000CF911F910F91FF90EF900895FF920F938E
:1004E0001F93CF93DF93CDB7DEB7AE970FB6F894D7
:1004F000DEBF0FBECDBF062FF42E21E0298334E0EE
:100500003A8322E02B831C8223E02D834DE04E832F
:100510003F8335E0388739872A8726E02B8723E316
:100520002C8727E02D878B3321E0920709F4A5C0A3
:10053000813B21E0920709F49AC08436934009F088
:10054000A2C0A7C0888B89E0898B1A8A89E18B8B2E
:1005500092E49C8B85E28D8B80E48E8B86E28F8B80
:1005600087E0888F88E2898F80E18A8F89E28B8F8C
:100570008CED8C8F8EE28D8F88E88E8F8FE28F8F3F
:100580008DE288A380E389A3FAA227E32BA320E9C5
:100590002CA328E32DA39EA39CE39FA39FE898A7E9
:1005A0009DE399A792E19AA79FE69BA78CA78FEF5F
:1005B0008DA71EA60E940104229A2A9A52985A9840
:1005C00004C06AEA8FE20E9428018FE20E941701AC
:1005D0008A3AB9F704C065E58FE20E9428018FE2EC
:1005E0000E9417018535B9F789818F3FE9F020E036
:1005F00030E010E0220F331FE1E0F0E0EC0FFD1FD0
:10060000E20FF31F61810E9428011F5F212F30E05C
:10061000F901EE0FFF1F81E090E08C0F9D1FE80FA6
:10062000F91F80818F3F31F780E090E00E943C020B
:10063000809101010E94C90181E00E946A0187E264
:100640000E9417018823DCF7E9E6F0E080818360EF
:100650008083E89A10921B010E945300009361016D
:10066000802F0E943A018F2D0E943F0118C08CE616
:100670008E8788E08F8780E465CF8EE48E8788E060
:100680008F8780EC5FCF84EE8E8788E08F8780EC49
:1006900059CF89ED8E8788E08F8780E053CFAE9663
:1006A0000FB6F894DEBF0FBECDBFDF91CF911F9183
:1006B0000F91FF9008951F920F920FB60F92112481
:1006C0000F931F932F933F934F935F936F937F935A
:1006D0008F939F93AF93BF93CF93EF93FF9381E05B
:1006E00080931B0180910201833009F06DC088E284
:1006F0000E94170182FF68C081E00E946A010E9487
:10070000100180E00E940C0480E00E940C048093A1
:10071000670180916701833418F082E48093670158
:1007200080E00E940C048093690180911A0181117C
:100730000AC09091690180916101981721F0809120
:1007400069018F3F21F480916701833038F4109262
:1007500067010E9413010E94FD013FC08091670163
:1007600083508093660180E00E940C0480936501B1
:1007700080E00E940C04982F90789093620180741E
:100780008093680180916601882379F0C0E00C2F86
:1007900010E080E00E940C04F801E05EFE4F8083D0
:1007A000CF5F80916601C81790F3809166018D3309
:1007B00030F4E0916601F0E0E05EFE4F10820E94AE
:1007C000130183E00E946A0180E00E94E801909397
:1007D00064018093630110921B01FF91EF91CF910F
:1007E000BF91AF919F918F917F916F915F914F9149
:1007F0003F912F911F910F910F900FBE0F901F905F
:10080000189584B1837C84B984B18C6284B980E505
:100810008CBD81E08DBD08958EBD0DB407FEFDCF6A
:100820008EB508950F93CF93DF93EC01DB01CA01DE
:100830008C529140A109B109853D904CA140B10570
:1008400008F040C025502430E8F580E2888388E134
:100850008983220F2A83053421F48A8180628A8366
:1008600005C00F3419F48A8180638A83DB01CA01D1
:1008700080589B47A14EBF4F880F991FAA1FBB1FCF
:10088000880F991FAA1FBB1F880F991FAA1FBB1F84
:10089000440F551F661F771F440F551F661F771F94
:1008A0009A01AB01220F331F441F551F220F331F24
:1008B000441F551FBC01CD010E9481042150310904
:1008C0003D832C83DF91CF910F910895FC0190819E
:1008D00095FFFDCF668308950F931F93CF93DF930A
:1008E000EB016881662341F08C012196C8010E94CA
:1008F000660469916111FACFDF91CF911F910F9139
:100900000895A1E21A2EAA1BBB1BFD010DC0AA1F50
:10091000BB1FEE1FFF1FA217B307E407F50720F068
:10092000A21BB30BE40BF50B661F771F881F991FE3
:100930001A9469F760957095809590959B01AC012C
:10094000BD01CF010895AEE0B0E0E9EAF4E00C9417
:1009500064070D891E8986E08C831A8309838FEFD3
:100960009FE79E838D83AE01475E5F4F6F89788DD1
:10097000CE0101960E94C504EF81F885E00FF11FBA
:1009800010822E96E4E00C948007ABE0B0E0EBEC34
:10099000F4E00C9456076C017B018A01FC0117827C
:1009A0001682838181FFCCC1CE0101963C01F60104
:1009B0009381F70193FD859193FF81917F018823B6
:1009C00009F4BAC1853239F493FD859193FF819181
:1009D0007F01853229F4B60190E00E94BC06E7CF82
:1009E000912C212C312CFFE1F315D8F08B3279F0CA
:1009F00038F4803279F08332A1F4232D20611DC0B8
:100A00008D3261F0803369F4232D216016C0832D6F
:100A10008260382EE32DE4603E2E2AC0F32DF8606C
:100A20001DC037FC2DC020ED280F2A3040F08E323B
:100A3000B9F436FC81C1232D2064322E19C036FE54
:100A400006C08AE0989E200D1124922E11C0EAE083
:100A50002E9E200D1124222EF32DF0623F2E08C071
:100A60008C3621F4832D8068382E02C0883641F4FC
:100A7000F70193FD859193FF81917F018111B3CFA0
:100A8000982F9F7D9554933028F40C5F1F4F9FE360
:100A900099830DC0833631F0833771F0833509F0C7
:100AA00059C021C0F801808189830E5F1F4F8824BF
:100AB0008394912C530113C02801F2E04F0E511C76
:100AC000F801A080B18036FE03C0692D70E002C03D
:100AD0006FEF7FEFC5010E94B1064C018201F32D3B
:100AE000FF773F2E16C0280122E0420E511CF8016C
:100AF000A080B18036FE03C0692D70E002C06FEFA8
:100B00007FEFC5010E94A6064C01F32DF0683F2E31
:100B1000820133FC1BC0822D90E088169906B0F448
:100B2000B60180E290E00E94BC062A94F4CFF50161
:100B300037FC859137FE81915F01B60190E00E94FC
:100B4000BC0621102A9421E0821A91088114910494
:100B500071F7E8C0843611F0893641F5F80137FEA7
:100B600007C060817181828193810C5F1F4F08C033
:100B700060817181072E000C880B990B0E5F1F4F4F
:100B8000F32DFF763F2E97FF09C0909580957095C5
:100B900061957F4F8F4F9F4FF0683F2E2AE030E0E6
:100BA000A3010E94F806882E861845C0853731F4C7
:100BB000232D2F7EB22E2AE030E025C0932D997F81
:100BC000B92E8F36C1F018F4883579F0B5C080376A
:100BD00019F0883721F0B0C0E92FE061BE2EB4FED5
:100BE0000DC0FB2DF460BF2E09C034FE0AC0292FB2
:100BF0002660B22E06C028E030E005C020E130E0DB
:100C000002C020E132E0F801B7FE07C060817181C7
:100C1000828193810C5F1F4F06C06081718180E0EB
:100C200090E00E5F1F4FA3010E94F806882E8618E1
:100C3000FB2DFF773F2E36FE0DC0232D2E7FA22EDB
:100C4000891458F434FE0BC032FC09C0832D8E7E0B
:100C5000A82E05C0B82CA32C03C0B82C01C0B92CF9
:100C6000A4FE0FC0FE01E80DF11D8081803321F448
:100C70009A2D997EA92E09C0A2FE06C0B394B39402
:100C800004C08A2D867809F0B394A3FC11C0A0FE9D
:100C900006C0B21488F4280C922C9B180EC0B21413
:100CA00060F4B60180E290E00E94BC06B394F7CFF6
:100CB000B21418F42B1802C0982C212CA4FE10C0DA
:100CC000B60180E390E00E94BC06A2FE17C0A1FC22
:100CD00003C088E790E002C088E590E0B6010CC050
:100CE0008A2D867859F0A1FE02C08BE201C080E215
:100CF000A7FC8DE2B60190E00E94BC06891438F48E
:100D0000B60180E390E00E94BC069A94F7CF8A94E3
:100D1000F301E80DF11D8081B60190E00E94BC0650
:100D20008110F5CF222009F442CEB60180E290E096
:100D30000E94BC062A94F6CFF6018681978102C0F4
:100D40008FEF9FEF2B96E2E10C947207FC01059068
:100D5000615070400110D8F7809590958E0F9F1FBD
:100D60000895FC016150704001900110D8F7809502
:100D700090958E0F9F1F08950F931F93CF93DF932E
:100D8000FB01238121FD03C08FEF9FEF2CC022FFC9
:100D900016C046815781248135814217530744F498
:100DA000A081B1819D012F5F3F4F318320838C93C0
:100DB000268137812F5F3F4F3783268314C08B01F5
:100DC000EC01FB010084F185E02D0995892BE1F60A
:100DD000D80116968D919C911797019617969C9322
:100DE0008E931697CE01DF91CF911F910F910895A9
:100DF000FA01AA27283051F1203181F1E8946F934C
:100E00006E7F6E5F7F4F8F4F9F4FAF4FB1E03ED0F1
:100E1000B4E03CD0670F781F891F9A1FA11D680F8F
:100E2000791F8A1F911DA11D6A0F711D811D911DC2
:100E3000A11D20D009F468943F912AE0269F112437
:100E40003019305D3193DEF6CF010895462F47709B
:100E5000405D4193B3E00FD0C9F7F6CF462F4F70F6
:100E6000405D4A3318F0495D31FD4052419302D054
:100E7000A9F7EACFB4E0A6959795879577956795FA
:100E8000BA95C9F700976105710508959B01AC01FA
:100E90000A2E06945795479537952795BA95C9F721
:100EA000620F731F841F951FA01D08952F923F92FC
:100EB0004F925F926F927F928F929F92AF92BF926A
:100EC000CF92DF92EF92FF920F931F93CF93DF9316
:100ED000CDB7DEB7CA1BDB0B0FB6F894DEBF0FBE73
:100EE000CDBF09942A88398848885F846E847D84C0
:100EF0008C849B84AA84B984C884DF80EE80FD80C2
:100F00000C811B81AA81B981CE0FD11D0FB6F89437
:0E0F1000DEBF0FBECDBFED010895F894FFCFF8
:100F1E001F01010A0A52737369206C6576656C2095
:0A0F2E006973203A202564200A00B0
:00000001FF
