S012000052464D363954657374322E73726563EC
S11300000C942E000C942C030C944B000C944B0079
S11300100C944B000C944B000C944B000C945A0021
S11300200C944B000C944B000C944B000C944B0020
S11300300C944B000C944B000C944B000C944B0010
S11300400C944B000C944B000C944B000C944B0000
S11300500C944B000C944B000C944B0011241FBEC9
S1130060CFEFD4E0DEBFCDBF11E0A0E0B1E0E4EA21
S1130070FDE002C005900D92AA31B107D9F721E045
S1130080AAE1B1E001C01D92AC36B207E1F70E94CB
S11300907F000C94D0060C940000E1E8F0E080812D
S11300A08A60808383E08093890088EE809388004F
S11300B0789408951F920F920FB60F9211248F9384
S11300C09F93AF93BF9380911E0190911F01A091C4
S11300D02001B09121010196A11DB11D80931E0143
S11300E090931F01A0932001B0932101BF91AF9180
S11300F09F918F910F900FBE0F901F901895CF93E3
S1130100DF93CDB7DEB760970FB6F894DEBF0FBEAE
S1130110CDBF41E264E081EB91E00E94400280E0C7
S11301200E949B018EE10E94160180E090E00E94F3
S11301300E0203E011E0CE0101967C010E94F4015D
S11301408823E1F38FE19EE40197F1F700C00000FA
S11301500E94CF0080E090E0FC01EE5DFE4F208124
S1130160019680319105C1F780E00E94BA019F9306
S11301708F931F930F93FF92EF920E94E603809157
S11301801A0190911B01019690931B0180931A010F
S11301900F900F900F900F900F900F90CFCF8091F2
S11301A06A01882339F090916B0181E09F3F19F433
S11301B080E0089580E0089580911D01811101C0BF
S11301C0789408955A98F89408955A9A0E94DC00F5
S11301D00895CF93C82F0E94E2008C2F8F770E943E
S11301E0E00380E00E94E003C82F0E94E5008C2F0A
S11301F0CF910895CF93DF93D82FC62F0E94E200AA
S11302008D2F80680E94E0038C2F0E94E0030E94DF
S1130210E500DF91CF910895682F89E30E94FA00E9
S11302200895682F80E30E94FA000895CF93C82FA1
S113023080910101813009F4C69581E10E94E900B1
S1130240807E682F6C2B81E10E94FA00CF91089583
S1130250813049F46DE58AE50E94FA006CE78CE58B
S11302600E94FA00089565E58AE50E94FA0060E7B5
S11302708CE50E94FA000895CF939091020198179B
S113028009F457C0C82F823069F128F48823F1F1AA
S1130290813091F14EC08330A1F0843009F049C01F
S11302A081E00E94E900837E682F6C6081E00E94F7
S11302B0FA0080910101882389F181E00E942801DC
S11302C02DC081E00E94E900837E682F606181E097
S11302D00E94FA0080910101882301F180E00E94CC
S11302E028011CC081E00E94E900837E682F6860B9
S11302F081E00E94FA0012C081E00E94E900837E3E
S1130300682F646081E00E94FA0008C081E00E94C6
S1130310E900682F637E81E00E94FA009091020157
S1130320911105C087E20E94E9008823BCF7C093BD
S11303300201CF91089580930101811102C06AE105
S113034001C06FE083E10E94FA00809101018130D5
S113035051F481E10E94E9008F71682F606681E1A8
S11303600E94FA00089560910001606881E10E9492
S1130370FA000895813049F461E083E20E94FA00B2
S113038083E20E94E90081FFFBCF84E20E94E9003E
S113039090E091958195910995958795089510928E
S11303A068011092670110926B011092690110921A
S11303B06A0110926401109266011092650188E24C
S11303C00E94E90082FF08C08DE30E94E900682FC3
S11303D064608DE30E94FA0060E485E20E94FA0002
S11303E083E00E943C010895F894809102018330D7
S11303F049F480916901882329F081E00E943C013D
S113040081E0089580910201833019F4789480E0AA
S113041008950E94CF01789480E00895EF92FF92AE
S11304200F931F93CF93DF937C0181E00E943C01E3
S1130430E114F10489F00E94E2008EEB0E94E003D3
S1130440E7018701005F1F4F89910E94E003C017F5
S1130450D107D1F70E94E5008DE30E94E9008E7F69
S113046091E0EF2809F490E0682F692B8DE30E9456
S1130470FA00DF91CF911F910F91FF90EF900895B3
S1130480FF920F931F93CF93DF93CDB7DEB7AE9751
S11304900FB6F894DEBF0FBECDBF062FF42E21E0B9
S11304A0298334E03A8322E02B831C8223E02D83CA
S11304B04DE04E833F8335E0388739872A8726E02D
S11304C02B8723E32C8727E02D878B3321E09207AA
S11304D009F4A4C0813B21E0920709F499C0843651
S11304E0934009F0A1C0A6C0888B89E0898B1A8A41
S11304F089E18B8B92E49C8B85E28D8B80E48E8BDF
S113050086E28F8B87E0888F88E2898F80E18A8FEB
S113051089E28B8F8CED8C8F8EE28D8F88E88E8FA5
S11305208FE28F8F8DE288A380E389A3FAA227E369
S11305302BA320E92CA328E32DA39EA39CE39FA334
S11305409FE898A79DE399A792E19AA79FE69BA7A6
S11305508CA78FEF8DA71EA60E94D203529A5A9A97
S1130560519804C06AEA8FE20E94FA008FE20E9466
S1130570E9008A3AB9F704C065E58FE20E94FA00FF
S11305808FE20E94E9008535B9F789818F3FE9F050
S113059020E030E010E0220F331FE1E0F0E0EC0F48
S11305A0FD1FE20FF31F61810E94FA001F5F212FDC
S11305B030E0F901EE0FFF1F81E090E08C0F9D1FEA
S11305C0E80FF91F80818F3F31F780E090E00E94AF
S11305D00E02809101010E949B0181E00E943C0176
S11305E087E20E94E9008823DCF7E9E6F0E08081F5
S11305F083608083E89A10921D010E944D0000934D
S11306006301802F0E940C018F2D0E94110118C0DC
S11306108CE68E8788E08F8780E466CF8EE48E87B1
S113062088E08F8780EC60CF84EE8E8788E08F87A8
S113063080EC5ACF89ED8E8788E08F8780E054CF95
S1130640AE960FB6F894DEBF0FBECDBFDF91CF914B
S11306501F910F91FF9008951F920F920FB60F9262
S113066011240F931F932F933F934F935F936F9393
S11306707F938F939F93AF93BF93CF93EF93FF9306
S113068081E080931D0180910201833009F06DC0E7
S113069088E20E94E90082FF68C081E00E943C0178
S11306A00E94E20080E00E94E00380E00E94E003F8
S11306B08093690180916901833418F082E4809306
S11306C0690180E00E94E00380936B0180911C012A
S11306D081110AC090916B0180916301981721F0F8
S11306E080916B018F3F21F480916901833038F44C
S11306F0109269010E94E5000E94CF013FC08091E1
S1130700690183508093680180E00E94E003809334
S1130710670180E00E94E003982F90789093640131
S1130720807480936A0180916801882379F0C0E025
S11307300C2F10E080E00E94E003F801EE5DFE4F14
S11307408083CF5F80916801C81790F3809168011E
S11307508D3330F4E0916801F0E0EE5DFE4F1082DD
S11307600E94E50083E00E943C0180E00E94BA01FF
S1130770909366018093650110921D01FF91EF91A2
S1130780CF91BF91AF919F918F917F916F915F9125
S11307904F913F912F911F910F910F900FBE0F908A
S11307A01F901895529A84B1807F84B95B9A84B162
S11307B0876084B95A9A80E58CBD81E08DBD089527
S11307C08EBD0DB407FEFDCF8EB50895AEE0B0E04A
S11307D0ECEEF3E00C94A7060D891E8986E08C8369
S11307E01A8309838FEF9FE79E838D83AE01475E53
S11307F05F4F6F89788DCE0101960E940804EF81C6
S1130800F885E00FF11F10822E96E4E00C94C306E5
S1130810ABE0B0E0EEE0F4E00C9499066C017B01EF
S11308208A01FC0117821682838181FFCCC1CE012B
S113083001963C01F6019381F70193FD859193FFA5
S113084081917F01882309F4BAC1853239F493FD7B
S1130850859193FF81917F01853229F4B60190E05F
S11308600E94FF05E7CF912C212C312CFFE1F315D9
S1130870D8F08B3279F038F4803279F08332A1F4F5
S1130880232D20611DC08D3261F0803369F4232D46
S1130890216016C0832D8260382EE32DE4603E2E45
S11308A02AC0F32DF8601DC037FC2DC020ED280FA1
S11308B02A3040F08E32B9F436FC81C1232D2064F5
S11308C0322E19C036FE06C08AE0989E200D1124EF
S11308D0922E11C0EAE02E9E200D1124222EF32D1B
S11308E0F0623F2E08C08C3621F4832D8068382EA8
S11308F002C0883641F4F70193FD859193FF8191FD
S11309007F018111B3CF982F9F7D9554933028F4A4
S11309100C5F1F4F9FE399830DC0833631F08337FB
S113092071F0833509F059C021C0F80180818983B1
S11309300E5F1F4F88248394912C530113C0280108
S1130940F2E04F0E511CF801A080B18036FE03C0C6
S1130950692D70E002C06FEF7FEFC5010E94F405BE
S11309604C018201F32DFF773F2E16C0280122E0AF
S1130970420E511CF801A080B18036FE03C0692DDF
S113098070E002C06FEF7FEFC5010E94E9054C01E2
S1130990F32DF0683F2E820133FC1BC0822D90E0C2
S11309A088169906B0F4B60180E290E00E94FF0533
S11309B02A94F4CFF50137FC859137FE81915F01CC
S11309C0B60190E00E94FF0521102A9421E0821ACA
S11309D091088114910471F7E8C0843611F08936C6
S11309E041F5F80137FE07C06081718182819381EE
S11309F00C5F1F4F08C060817181072E000C880BAB
S1130A00990B0E5F1F4FF32DFF763F2E97FF09C002
S1130A1090958095709561957F4F8F4F9F4FF068AB
S1130A203F2E2AE030E0A3010E943B06882E861860
S1130A3045C0853731F4232D2F7EB22E2AE030E0D5
S1130A4025C0932D997FB92E8F36C1F018F48835BF
S1130A5079F0B5C0803719F0883721F0B0C0E92F9C
S1130A60E061BE2EB4FE0DC0FB2DF460BF2E09C0A4
S1130A7034FE0AC0292F2660B22E06C028E030E0DA
S1130A8005C020E130E002C020E132E0F801B7FE09
S1130A9007C060817181828193810C5F1F4F06C002
S1130AA06081718180E090E00E5F1F4FA3010E947E
S1130AB03B06882E8618FB2DFF773F2E36FE0DC091
S1130AC0232D2E7FA22E891458F434FE0BC032FC41
S1130AD009C0832D8E7EA82E05C0B82CA32C03C07C
S1130AE0B82C01C0B92CA4FE0FC0FE01E80DF11D05
S1130AF08081803321F49A2D997EA92E09C0A2FE0B
S1130B0006C0B394B39404C08A2D867809F0B394D4
S1130B10A3FC11C0A0FE06C0B21488F4280C922CC9
S1130B209B180EC0B21460F4B60180E290E00E94FB
S1130B30FF05B394F7CFB21418F42B1802C0982C05
S1130B40212CA4FE10C0B60180E390E00E94FF05B2
S1130B50A2FE17C0A1FC03C088E790E002C088E5AC
S1130B6090E0B6010CC08A2D867859F0A1FE02C02F
S1130B708BE201C080E2A7FC8DE2B60190E00E9406
S1130B80FF05891438F4B60180E390E00E94FF0564
S1130B909A94F7CF8A94F301E80DF11D8081B60190
S1130BA090E00E94FF058110F5CF222009F442CE87
S1130BB0B60180E290E00E94FF052A94F6CFF60188
S1130BC08681978102C08FEF9FEF2B96E2E10C9410
S1130BD0B506FC010590615070400110D8F780956E
S1130BE090958E0F9F1F0895FC01615070400190F5
S1130BF00110D8F7809590958E0F9F1F08950F933D
S1130C001F93CF93DF93FB01238121FD03C08FEF5B
S1130C109FEF2CC022FF16C0468157812481358165
S1130C204217530744F4A081B1819D012F5F3F4FC8
S1130C30318320838C93268137812F5F3F4F378305
S1130C40268314C08B01EC01FB010084F185E02DA7
S1130C500995892BE1F6D80116968D919C911797E9
S1130C60019617969C938E931697CE01DF91CF91A0
S1130C701F910F910895FA01AA27283051F12031CC
S1130C8081F1E8946F936E7F6E5F7F4F8F4F9F4F1C
S1130C90AF4FB1E03ED0B4E03CD0670F781F891F5E
S1130CA09A1FA11D680F791F8A1F911DA11D6A0F2C
S1130CB0711D811D911DA11D20D009F468943F91DF
S1130CC02AE0269F11243019305D3193DEF6CF01DE
S1130CD00895462F4770405D4193B3E00FD0C9F7A4
S1130CE0F6CF462F4F70405D4A3318F0495D31FD11
S1130CF04052419302D0A9F7EACFB4E0A695979564
S1130D00879577956795BA95C9F700976105710539
S1130D1008959B01AC010A2E069457954795379583
S1130D202795BA95C9F7620F731F841F951FA01DDD
S1130D3008952F923F924F925F926F927F928F927B
S1130D409F92AF92BF92CF92DF92EF92FF920F9356
S1130D501F93CF93DF93CDB7DEB7CA1BDB0B0FB660
S1130D60F894DEBF0FBECDBF09942A88398848881D
S1130D705F846E847D848C849B84AA84B984C884B3
S1130D80DF80EE80FD800C811B81AA81B981CE0FAA
S1130D90D11D0FB6F894DEBF0FBECDBFED0108958F
S1070DA0F894FFCFF1
S1130DA41F01010A0A52737369206C6576656C200D
S10D0DB46973203A202564200A0028
S9030000FC
